:020000040000FA
:1000000030F40010651C00006D1C00006F1C000027
:10001000711C0000731C0000751C00000000000033
:10002000000000000000000000000000771C00003D
:10003000791C000000000000039200008F74000093
:10004000BD1C00000B1D0000591D0000A71D000075
:10005000F51D0000471E0000991E0000EB1E000069
:100060003D1F00008F1F0000E11F00003320000033
:100070008520000000000000D72100002B22000096
:100080007F220000D72200002F23000087230000DA
:10009000DF230000372400008F240000E724000045
:1000A0003F2500006D260000C52600001D2700002A
:1000B00075270000CD270000252800007D280000BE
:1000C000D52800002D29000085290000DD29000029
:1000D000352A00005D2B0000B52B00000D2C000020
:1000E000652C0000DFF80CD008F0E6FF0048004760
:1000F000A541000030F4001070B505460E460024FE
:100100000EE0295D0BA009F0ADF8601C84B20A2056
:1001100094FBF0F100FB114010B908A009F0A2F81F
:100120003000A6F101018EB2EBD104A009F09AF8DB
:1001300070BD704730782530327820000D0A0000FD
:100140002DE9F0410646884617460025002454480C
:1001500000F0E1F905460DB9BDE8F0812422204602
:10016000641C2A54281931680160241DA41C4D48C0
:100170000068C0F307422046641C2A54494800889E
:10018000C0F307222046641C2A54464802782046C1
:10019000641C2A5428193A46414608F0DAFE3C44C9
:1001A000A1B2284603F0E0FC2146641C6854200AF2
:1001B0006871AC71A2B22946032000F07CFC29468C
:1001C000374800F0C0F900BFC6E710B50021032092
:1001D00000F0A1FC10BD704700203249096801B948
:1001E0000120704708B500200090012269462EA02A
:1001F000FFF7A6FF08BD2DE9F04107460E46002493
:100200000025D22E03DCFFF7E7FF012800D13BE0F9
:10021000234800F080F9044604B935E04622284618
:100220006D1C22541F484068C0F3074228466D1CCD
:1002300022541C488088C0F3072228466D1C225493
:100240001848027928466D1C2254F000C0F307229A
:1002500028466D1C2254F006020E28466D1C2254BE
:10026000002228466D1C225460193246394608F097
:1002700070FE3544AAB221460DA0FFF761FF21466A
:10028000074800F060F900BFBDE8F08108B5002024
:1002900000900222694608A0FFF752FF08BD000047
:1002A000F8C900100000001049434A430000000054
:1002B0005458535100000000534A534300000000BB
:1002C00010B500F02FF8024800F00EF810BD000045
:1002D00080CB001010B5044601F0FEFB52222146EF
:1002E000002003F0C8F910BD10B504465222214683
:1002F000002003F041FA10BD70470100FFFFFFFF2F
:1003000070B504460025204600F017FA054625B1D1
:100310000021204600F0EEF903E00121204600F024
:10032000E9F970BD10B50121002000F0E3F90020CB
:1003300000F058F8012000F055F8022000F052F8C3
:10034000032000F04FF810BD70B506460C46E5B22C
:100350000D48405D20B1012807D002280ED109E0E8
:100360000021284600F0C6F909E00121284600F0E6
:10037000C1F904E02846FFF7C3FF00E000BF00BF5B
:1003800070BD014A115470470800001070B586B066
:1003900000200590002500BF1BE005EB850000EB69
:1003A000C5006E4901EB400405ABD4F81610D4F833
:1003B0001200228A01AE0BC60092E368A26861684F
:1003C000206808F0AEFBBDF8140000B105E0681C21
:1003D000C5B2042DE1D306B070BD61A008F042FFA4
:1003E00000BFF8E738B504460020009004EB840114
:1003F00001EBC401594A02EB41010868694608F063
:100400000BFCBDF8000020B1BDF8001059A008F0A9
:1004100029FF38BDFEB500200290002500BF12E084
:100420005A4800EB051402A9E089CDE90001A3892F
:10043000A2686168206807F03DFBBDF8080000B1C4
:1004400004E0681CC5B2042DEAD3FEBD50A008F03C
:1004500009FF00BFF9E738B500200090002400250F
:1004600000BF10E005EB85004E4901EB40042289F6
:10047000616820686B4607F002FFBDF8000000B11C
:1004800004E0681CC5B2062DECD338BD46A008F0C8
:10049000E9FE00BFF9E738B50020009000240025F0
:1004A00000BF0DE0454800EBC405696828686A464E
:1004B00007F076FCBDF8000000B104E0601CC4B297
:1004C000042CEFD338BD3EA008F0CCFE00BFF9E706
:1004D00010B5FFF79FFFFFF7BEFFFFF7DCFFFFF749
:1004E00055FF10BD014600203B4A914202D14FF416
:1004F00080600FE0394A914202D14FF4007009E068
:10050000374A914202D14FF4807003E0354A91425C
:1005100000D140207047F8B5054600240020009027
:1005200000266946284607F03BFB044604B908E06C
:100530002846FFF7D7FF06463146204608F022FD41
:1005400000BF2046F8BD38B504460D460020009097
:100550006A462946204607F04FFB38BD3897000011
:1005600054696D6572206D656D6F72792065727268
:10057000210D0A0054696D657220537461727420F4
:100580004572726F722564210D0A0000DC9700002D
:100590006372656174206D656D6F7279206572722A
:1005A000210D0A00A097000043726561742051205C
:1005B0004572726F72210D0A000000001C98000045
:1005C0004372656174204D75746578204572726F51
:1005D00072210D0A00000000C8C90010E0C9001017
:1005E000F8C9001010CA001010B5002000BF7DE04F
:1005F00000BF0122624901EB00110978614B03EB56
:10060000411101F0704101F100715D4B03EB0013EA
:100610001B784FF4182404EB4313C3F3130301EBCB
:100620004311574B03EB00135B6841F8232000BFD5
:1006300000BF534901EB0011097A524B03EB411102
:1006400001F0704101F100714D4B03EB00131B7A77
:1006500004EB4313C3F3130301EB4311484B03EBC8
:100660000013DB6841F8232000BF00BF002344498A
:1006700001EB00110978434A02EB4111143101F0FA
:10068000704101F100713E4A02EB0012127804EB56
:1006900042121432C2F3130201EB4211384A02EB48
:1006A0000012526841F8223000BF00BF344901EB0C
:1006B0000011097A334A02EB4111143101F0704103
:1006C00001F100712E4A02EB0012127A04EB421281
:1006D0001432C2F3130201EB4211294A02EB001259
:1006E000D26841F8223000BF411CC8B20528FFF48F
:1006F0007FAF10BD10B500BF214A02EB0012127887
:10070000204B03EB4212143202F0704202F10072ED
:100710001B4B03EB00131B784FF4182404EB43131B
:100720001433C3F3130302EB4312154B03EB001313
:100730005B6842F8231000BF10BD0146104800EB73
:10074000011000780F4A02EB4010143000F07040A6
:1007500000F100700A4A02EB011212784FF41823DC
:1007600003EB42121432C2F3130200EB4210044AAC
:1007700002EB0112526850F82200C0B2704700002C
:100780003C9800000080092030B5002200210020A4
:10079000014613E04B1D58B2FE4B440953F8243078
:1007A00000F01F050124AC40234201D0012300E0EA
:1007B000002303B104E0481CC0B201460429E9DB70
:1007C00000BF5018C0B230BD2DE9F041064606EB1F
:1007D0004610F14945180027D5F81D400120B040CA
:1007E000EE490978084220D1D5F811100868FFF7C2
:1007F00092FE074607B104B922E0D4F806206178DA
:10080000207803F04CF900BF0120B040E34909789B
:100810000843E249087000BF0020D5F8111089682C
:100820000880D5F81100476009E044B1D4F80620EB
:100830006178207803F051F9D5F81100476800BFBE
:100840003846BDE8F0812DE9F041FFF79DFF0646EF
:1008500006EB4610D04945182C68A06810F0060F2A
:1008600013D0277D17F08E0F0ED03A463146CCA01C
:1008700008F0F8FC0020D5F8111089680880207A6B
:1008800040F0020020722DE000BFA06810F0040FBD
:1008900027D03046FFF798FF074607B922E0D5F882
:1008A00011209189D5F81120926810880DE055F833
:1008B000112F926810882A6892681288521C55F885
:1008C00011399B681A8022783A54227D12F0010F68
:1008D00002D04A1E8242EADC227A42F002022272EE
:1008E00000BF00BFBDE8F08170B5AB4C2134B24809
:1008F000806810F0060F15D0AF48057D15F08E0FFB
:100900000FD02946ADA008F0ADFC0020D4F811109E
:1009100089680880A848007A40F00200A649087259
:1009200032E000BFA448806810F0040F2BD00120F3
:10093000FFF74AFF054605B926E0D4F81120918952
:10094000D4F81120926810880EE054F8112F9268A4
:100950001088226892681288521C54F811399B68DA
:100960001A80954A12782A54934A127D12F0010F88
:1009700002D04A1E8242E8DC8F4A127A42F002021A
:100980008D4B1A7200BF00BF70BD3EB5054605EB2A
:10099000451081490844D0F815400020029001908C
:1009A00004B908E001A802AB0022114600902046DD
:1009B00007F020FA00BF3EBD38B5054605EB4510EF
:1009C00075490844D0F815400020009004B905E0AE
:1009D0006A460021204607F046FB00BF38BD2DE9DE
:1009E000F84307460E4600256946384603F096F858
:1009F0008046002400BF10E001E0681CC5B205EB92
:100A0000451065490844D0F81D0040781DF80410D1
:100A10008842F2D13555601CC4B24445ECDB204617
:100A2000BDE8F8832DE9FF41002600250020019054
:100A300002A9FFF7D4FF0746002400BF21E002A867
:100A4000005D00EB401054494618D6F8115000BF25
:100A500002A8015D012088405049097881434F4830
:100A6000017000BF686850B101A80090AB681A8897
:100A70006968D6F819004FF4007307F02DFD601C6B
:100A8000C4B2BC42DBDBBDE8FF81514B187000BF34
:100A90004F4A127D12F0200FFAD0704770B504460D
:100AA0000D4604EB44103C4908440668294630468C
:100AB00002F044FC70BD2DE9F04705460E4617468E
:100AC00005EB451034490844D0F800804FF0000988
:100AD000CA46012D03D0C14608F1140A05E0DFF82B
:100AE000D890DFF8D4A00AF1140A2846FFF74DFF8A
:100AF000002409E0305D89F8000000BF9AF800008A
:100B000010F0200FFAD0641CBC42F3D32846FFF744
:100B100053FFBDE8F08770B505460E4605EB45105E
:100B20001D4944182B48006840F400402A49C1F888
:100B3000C40000BF61688979284A02EBC11261686C
:100B4000C97902EB810061688968016000BF00BF5C
:100B500061680978214A02EBC1116268527801EBA1
:100B600082006168D1F80210016000BF1A48D0F815
:100B7000C400D4F8091040EA01001749C1F8C400C4
:100B800031462846FFF78AFFD4F80D1094F9080083
:100B900026E0000000E300E0E49800004E000010B2
:100BA0005561727425642052656376204572722106
:100BB00025780D0A000000000000014055617274A4
:100BC000312052656376204572722125780D0A0026
:100BD00000C00040C4C00F4000C00F4000C0024031
:100BE00002F06CF8012D14D0206807210172022D4B
:100BF00002D11B21017301E00321017390F8301031
:100C000041F0800180F83010416841F005014160F9
:100C10000FE007202149087203200873204800785C
:100C200040F0800081F830000846406840F0050040
:100C30004860D4F81D0030B1D4F81D20D2F802105D
:100C4000107802F055FF70BD00EB4012154BD11823
:100C5000154AD2F8C420D1F809309A43124BC3F890
:100C6000C420704700EB40120E4BD1180E4AD2F848
:100C7000C420D1F809301A430B4BC3F8C420704785
:100C800070B504460D4604EB441006494618D6F8E4
:100C9000111008682946FFF756FC70BD000001409E
:100CA00030000140E498000000C00F4010B504215E
:100CB0000020FFF730FF00F04DF8FFF795FC02F041
:100CC000A4FC02F046F802F0C8FEFFF77EFA00F03E
:100CD00076FC012002F0BAFD10BD0000F0B585B031
:100CE00004460F4615461421684608F04BF90026C5
:100CF0003146761C0DF801400DEB06002A463946B8
:100D000008F027F96A1C69461A4802F0EEFF05B0A0
:100D1000F0BDF8B504460D461646002000900022AE
:100D200069462046FFF7DAFF32462946114803F0AC
:100D300014F8F8BD10B50446042221460020FFF740
:100D4000CDFF10BD10B50446042221460020FFF758
:100D5000E0FF10BD08B5002000906821054802F0B2
:100D60001DFF642000F09CFF012269460E20FFF762
:100D7000B5FF08BDFA02000070B504460D46FEA09E
:100D800008F070FA2A4621460020FFF794FEFAA0E8
:100D900008F068FA2A4621460120FFF78CFE70BD54
:100DA00070B5054600240026F448FFF7B4FB04465E
:100DB00004B912E0F24850F82520F248F2A1036885
:100DC000204608F05FFAC6B231462046FFF7D4FF4E
:100DD0002146EA48FFF7B7FB00BF70BD70B5054676
:100DE00000240026E548FFF796FB044604B913E00B
:100DF000E34850F82520E34803685B1DE5A1204641
:100E000008F040FAC6B231462046FFF7B5FF21464A
:100E1000DA48FFF798FB00BF70BD70B505460024A7
:100E20000026D648FFF777FB044604B913E0D44800
:100E300050F82520D34803685B1DD6A1204608F052
:100E400021FAC6B231462046FFF796FF2146CB482D
:100E5000FFF779FB00BF70BDF8B5044600250026FA
:100E6000C648FFF758FB054605B91FE0C5480068AE
:100E700090F8250008B1601CC4B2C24800680F3069
:100E80000090C0480068B0F82330BD4850F82420D6
:100E9000C2A1284608F0F6F9C6B231462846FFF747
:100EA0006BFF2946B548FFF74EFB00BFF8BD2DE9A3
:100EB000FE4305460F469046BDA1284608F06DF852
:100EC00004460126002002900CB9022613E03CB132
:100ED000207A352802D0207A312801D1002609E075
:100EE000012602A800210B460222CDE90010084687
:100EF00007F026FD00BF3046BDE8FE832DE9F04136
:100F0000064688461446ACA1304608F046F8054629
:100F100001270DB9022707E00027E879312802D11F
:100F20002078401C207000BF3846BDE8F0812DE9D4
:100F3000F04105460F4614460226A1A1284608F0B6
:100F40002CF808B10920207001263046BDE8F08158
:100F50002DE9FE430646884691469AA1304608F0A0
:100F60001CF8044601270025002002900CB9022736
:100F700014E0601D08F02AF80546092D03D3632DFF
:100F800001D0002709E0012702A800210B46012219
:100F9000CDE90010084607F0D3FC00BF3846BDE895
:100FA000FE8370B504468948007800EB80008849CC
:100FB00001EB8005296851F8240008F000F886B29A
:100FC000296851F824003146FFF7D6FE70BD3EB5C2
:100FD00004460020029020780D2802D020780E28A8
:100FE00002D10F20207004E02078092801DD0920BB
:100FF00020702078FFF7D5FF02A800210B460522BC
:10100000CDE90010084607F09BFC2078FFF7C9FFE8
:1010100000BF00206F49087000BF3EBD70B5054697
:101020000E4614466CA1284607F0B7FF48B10920C8
:1010300020702078FFF7B5FF00BF002065490870D9
:1010400000BF70BD002067490870704770B5044646
:101050000D465E48007800EB80005D4901EB80069C
:10106000604A294620463369984770BD2DE9F04112
:1010700004460E461746012551A1204607F08DFF74
:1010800008B1002507E058A1204607F086FF08B107
:10109000012500E002252846BDE8F0812DE9F04158
:1010A00004460E461746022551A1204607F075FF5B
:1010B00028B1002500BF01204649087007E04AA179
:1010C000204607F06AFF08B1012500E00225284606
:1010D000BDE8F0812DE9F04104460E461746022591
:1010E00045A1204607F059FF08B1002500E0022580
:1010F0002846BDE8F0812DE9F0470446884633488C
:10110000007800EB8000324901EB8005D5F80490AF
:10111000AE68012721463AA008F0A4F831480078CB
:1011200056F8200040B12F48007856F820302D4A5C
:10113000414620469847074647B91420334908706E
:1011400028480078401C2749087004E02F480078A0
:10115000401E2E4908702D48007858B900BF2C4811
:10116000007840F001002A49087000BF1420274988
:1011700008705CE04EE000003C3C000010CA00102B
:10118000009A00006899000025732C222573220D17
:10119000000000002573222573220D0025732C25E5
:1011A000642C222573222C302C302C300D000000B2
:1011B000435245473A00000023475052533A00003B
:1011C0004F4B00004353513A000000005000001004
:1011D0006C990000510000104E4F2043415252497B
:1011E000455200004F0000104552524F520000007F
:1011F000434F4E4E45435400524541445900000070
:101200003E3E3A25733E3E0D0A000000530000109A
:1012100052000010022F09D0B948007830B9B948FF
:10122000007859F82010B7480078884700BFBDE81B
:10123000F08710B5B4A008F015F8B848007800EBB6
:101240008000B74A02EB8000C168AE48884700BF03
:10125000B448007820F00200B249087000BF10BD09
:101260000EB5002002900120FFF7EEFC00BF012226
:101270004FF00851AC4801EB4010026600BF02A8D5
:1012800000210B460222CDE90010084607F058FB6A
:1012900000BF01224FF00851A348001F01EB40108E
:1012A000026600BF02A800210B46CDE900100846E7
:1012B00007F046FB00BF01224FF008519A4801EBAE
:1012C0004010826600BF02A800210B460522CDE92E
:1012D0000010084607F034FB00BF01224FF0085110
:1012E0009148001F01EB4010826600BF02A8002158
:1012F0000B46CDE90010084607F022FB00BF012293
:101300004FF00851884801EB4010426600BF02A828
:1013100000210B46CDE90010084607F011FB00BF85
:1013200001224FF008518048001F01EB4010426637
:1013300000BF02A800210B460522CDE90010084697
:1013400007F0FEFA0120FFF78DFC78A007F08AFF76
:1013500000BF00206A49087000BF00BF71480078D4
:1013600020F003006F49087000BF00206549087035
:101370000EBD7348006840F400407249C1F8C400D3
:1013800000BF4FF001024FF008506F4900EB4110D1
:10139000026600BF00BF4FF0085000EB41108266AC
:1013A00000BF00BF4FF0085000EB4110426600BF85
:1013B0007047704770B504460D465148007820B11B
:1013C00029462046FFF7D8FC02E060A007F04AFF5C
:1013D00070BD10B5FF245348007810F0010F06D0FF
:1013E0000024FFF73DFF47480078FFF7DAFD4D483E
:1013F000007810F0020F02D00024FFF71AFF2046F9
:1014000010BD142810DB00BF4649097841F00201E5
:10141000444A117000BF5149097841B14F490978D8
:10142000491E4E4A117002E014214C4A11704B497A
:10143000097839B900BF3B49097841F00101394ABF
:10144000117000BF704710B5FFF793FFFFF708FF5B
:10145000FFF7F8FDFFF7ADFF04210120FFF75BFB6D
:1014600028480078FFF79DFD10BD0EB50CE002A8DE
:1014700000210B460322CDE90010084607F060FA70
:101480000B2137A0FFF796FFF1E786B0002400207C
:10149000059000250026FFF7D6FF30E003A804A939
:1014A00005AB0022CDE900104FF47A712F4806F009
:1014B00045FF0446FFF78DFF064606B90025BDF837
:1014C0000C00B8B9BDF814102046FFF7BFFD0C485A
:1014D000007828B1214626A007F0C4FE002504E0CC
:1014E000BDF814102046FFF706FE21460120FFF745
:1014F000C7FB04E0681CC5B22846FFF782FFCDE7B2
:10150000510000104F0000104750525320536F6697
:1015100074205265736574210D0A0000500000109C
:101520006C990000520000107C8009004750525313
:101530002048617264205265736574210D0A0000B1
:10154000C4C00F4000C00F40608009004750525394
:10155000204F66664C696E65210D0A00540000102C
:1015600064757A61696C69616E0D0A0094CA001035
:101570003E3E25733E3E000010B5002000BF1BE03C
:1015800000BF00EB40022F4B13F812202E4B03EB51
:10159000C21200EB40032B4C04EB43035B7802EBDD
:1015A000830100EB4002234603EB4202D2F8022003
:1015B0000A6000BF411CC8B20428E1D310BD10B5B9
:1015C000012001F074FE04462048006840F4805079
:1015D0001F49C1F8C4001F48B4FBF0F000F101043A
:1015E0004FF4001040EA04201B490860FFF7C4FFD5
:1015F00010BD014600BF00BF1748006820F0FF0083
:10160000154A10601046006801228A401043124AB1
:10161000106000BF1046006840F08070106000BF8E
:1016200000BF00BF0C48103050F8210010F0004FF0
:10163000F8D000BF0848103050F82100C0F30B105C
:1016400070470000409A000000C00240C4C00F4034
:1016500000C00F4000B19E0000400340FA480068FF
:1016600040F40040F949C1F8C40000BF4FF0010246
:101670004FF00850F64900EB4110C26300BF00BFB5
:101680004FF0085000EB4110026400BF704710B5E6
:10169000F049096801F03F00EE49086010F0100FB2
:1016A00032D0ED490978012902D003292AD114E06A
:1016B000E849CA6AE9490B780978491CE74C217066
:1016C000E74941F82320214609780A2291FBF2F3E9
:1016D00002FB13112246117015E0DE49CA6AE14986
:1016E0000B780978491CDF4C2170DF4941F8232031
:1016F000214609780A2291FBF2F302FB13112246DC
:10170000117000E000BF00BF10BD10B5D749022026
:1017100002F0EEF910BD10B5FFF7A0FFFFF7F5FFDF
:1017200010BDD348007828B1D1480078401ED04978
:1017300008707047C848007830B1012825D00228C9
:1017400047D003287ED165E00120C349087000BF5F
:1017500000224FF00850BE4900EB4110026400BF68
:1017600000BF01224FF0085000EB4110C26300BFE0
:1017700000BF4FF00851B648183001EB4010C2636B
:1017800000BF0020B34988606EE00220B2490870B3
:1017900000BF01224FF00850AD4900EB4110C26379
:1017A00000BF00BF4FF0085000EB4110026400BFC3
:1017B00000BF4FF00851A6481C3001EB4010C26337
:1017C00000BF00BFA2481C3001EB4010026400BF04
:1017D0004AE00320A049087000BF00224FF00850E3
:1017E0009B4900EB4110C26300BF00BF01224FF0D4
:1017F000085000EB4110026400BF00BF4FF00851D9
:101800009348183001EB4010026400BF002091495A
:10181000886029E000209049087000BF01224FF045
:1018200008508B4900EB4110C26300BF00BF4FF06E
:10183000085000EB4110026400BF00BF4FF0085198
:10184000834800E00FE01C3001EB4010C26300BF92
:1018500000BF7F481C3001EB4010026400BF022033
:101860008349087000E000BF00BF00BF61E72DE9B9
:10187000F0470026002700229446904600BF14E05F
:10188000774850F8220070B1754850F82200DFF810
:10189000E491484507D8724850F8220006440CF1FC
:1018A000010000F0FF0C501CC2B20A2AE8DB002243
:1018B00014E06D4850F8220070B16B4850F82200D7
:1018C000DFF8B091484507D8674850F82200074430
:1018D00008F1010000F0FF08501CC2B20A2AE8DB40
:1018E000BCF1000F02D0B8F1000F02D10020BDE81A
:1018F000F087B7FBF8F7B6FBFCF642F210707843BE
:10190000B0FBF6F300259124281900EBD0794FEABB
:10191000690117E0584850F82100984201DA0C4656
:1019200009E0554850F82100984203DD601E04B2DA
:101930000D4600E008E0281900EBD0794FEA69096C
:101940000FFA89F1A542E5DB00BF912901D1692099
:10195000CDE7494850F82100984201DD481C01B20A
:10196000454850F821001B1ADFF80C91481C59F823
:10197000200059F82190A0EB090003EB83094FEAFE
:10198000490999FBF0F9A1F128004FF00A0A0AFB76
:10199000009000B2ABE710B50821384802F086FB92
:1019A00010BD2DE9F04104460D46164600274FF6BE
:1019B000FF7033494860A91E0122204601F092FFC2
:1019C0000746F9B2A81E205C814205D1681E205C42
:1019D000C7F30721884203D02AA007F043FC03E0A5
:1019E000D4F80300306000BFBDE8F08110B52A488C
:1019F0000068D0F8010029490968884209D02648C2
:101A00000068D0F80100254908600846006802F027
:101A1000A4FB10BD10B520480068007810B9FFF78E
:101A2000BAFF00E000BF00BF10BD70B504460D4610
:101A3000164619480068007828B9324629462046DB
:101A4000FFF7AFFF2DE02BE0C4C00F4000C00F40F8
:101A500020800900000009405800001059000010C3
:101A600048CC00105A00001070CC00108F160000F7
:101A70005B000010808D5B00589A0000A09C000065
:101A80000000092034383520437263204572726F9C
:101A900072210D0A00000000A89C00005C000010EC
:101AA00000BF00BF70BD70B504460025FFF7B2FF50
:101AB0006421604802F023FB054625B122462946F1
:101AC0005C48FFF7B2FF70BD10B50446FFF78EFF0C
:101AD0002046FFF7E8FF10BD4FF41650564909683D
:101AE000C1F801000020544909680870524909688A
:101AF000C1F8050050490968C1F80900704710B5E0
:101B000004464E48FFF71EF94C48807920704B4838
:101B10004079607049480079A07048488078E0704A
:101B200046484078207110BD002045490968454A63
:101B30001268891A444A1268D2F80E20914200D2E3
:101B400005E001203E4909683E4A116000BF704728
:101B500070B505466E1D00243C48FFF7D0FF00BF5E
:101B600007E03B4850F8241030468847361D601C7B
:101B7000C4B2002CF5D070BD3648006840F4004077
:101B80003549C1F8C40000BF4FF001024FF00850C2
:101B9000324900EB4110826500BF70472A48006857
:101BA000407B2F490978884222D027480068407B33
:101BB0002B4908700846007810B1012816D10AE0B8
:101BC00000BF01224FF008512448183001EB4010AB
:101BD000826500BF0BE000BF01224FF008511F4893
:101BE0001C3001EB4010826500BF00E000BF00BF69
:101BF000704710B5FFF78FFD02F0AAF902F02CFA3A
:101C0000FFF7BAFF10BD10B5FFF7C8FFFFF78CFF55
:101C100000B903E00D48FFF79BFF00BF10BD704700
:101C200070B504460D4624B9094850F824102846DA
:101C3000884770BDE1CB0010A89C00006000001038
:101C4000A000001068000010B09C0000D4CB001071
:101C5000AC9C0000C4C00F4000C00F406080090071
:101C60006C0000100648804706480047FEE7FEE784
:101C7000FEE7FEE7FEE7FEE7FEE7FEE7FEE7FEE73C
:101C8000F1300000E500000007E0002101E04A1CFF
:101C900091B2C829FBDB421E90B20028F5D17047F3
:101CA00010B50346642402E01846FFF7EDFF20005C
:101CB000A4F101018CB2F7D110BD000010B5FE48AF
:101CC000007988B1002400BF00BF07F031F9044655
:101CD00000BF00BF05F03FF900BF00BF204607F07E
:101CE0002BF900BF00BF00BFF348006818B1F249EC
:101CF0000868804703E0F1A1F4A007F0B3FAEE48CA
:101D0000007908B105F038F910BD10B5EA48007B3C
:101D100088B1002400BF00BF07F00AF9044600BFE5
:101D200000BF05F018F900BF00BF204607F004F916
:101D300000BF00BF00BFE048806818B1DE49886876
:101D4000804703E0E7A1E1A007F08CFADA48007BC6
:101D500008B105F011F910BD10B5D748007D88B164
:101D6000002400BF00BF07F0E3F8044600BF00BF37
:101D700005F0F1F800BF00BF204607F0DDF800BF16
:101D800000BF00BFCC48006918B1CB490869804743
:101D900003E0D9A1CDA007F065FAC748007D08B1DE
:101DA00005F0EAF810BD10B5C348007F88B10024E3
:101DB00000BF00BF07F0BCF8044600BF00BF05F03D
:101DC000CAF800BF00BF204607F0B6F800BF00BF4A
:101DD00000BFB948806918B1B7498869804703E0F6
:101DE000CAA1BAA007F03EFAB348007F08B105F0D7
:101DF000C3F810BD10B5B04890F8240088B1002495
:101E000000BF00BF07F094F8044600BF00BF05F014
:101E1000A2F800BF00BF204607F08EF800BF00BF49
:101E200000BFA548006A18B1A349086A804703E0CB
:101E3000BBA1A6A007F016FA9F4890F8240008B1AD
:101E400005F09AF810BD10B59B4890F82C0088B1A9
:101E5000002400BF00BF07F06BF8044600BF00BFBE
:101E600005F079F800BF00BF204607F065F800BF15
:101E700000BF00BF9048806A18B18F49886A8047C8
:101E800003E0ACA191A007F0EDF98B4890F82C008D
:101E900008B105F071F810BD10B5874890F834000E
:101EA00088B1002400BF00BF07F042F8044600BF1D
:101EB00000BF05F050F800BF00BF204607F03CF817
:101EC00000BF00BF00BF7C48006B18B17A49086BA7
:101ED000804703E09CA17DA007F0C4F9764890F804
:101EE000340008B105F048F810BD10B5724890F8FC
:101EF0003C0088B1002400BF00BF07F019F8044679
:101F000000BF00BF05F027F800BF00BF204607F064
:101F100013F800BF00BF00BF6748806B18B1664967
:101F2000886B804703E08DA168A007F09BF96248A9
:101F300090F83C0008B105F01FF810BD10B55E48E0
:101F400090F8440088B1002400BF00BF06F0F0FF05
:101F5000044600BF00BF04F0FEFF00BF00BF2046E4
:101F600006F0EAFF00BF00BF00BF5348006C18B185
:101F70005149086C804703E07DA154A007F072F935
:101F80004D4890F8440008B104F0F6FF10BD10B5BC
:101F9000494890F84C0088B1002400BF00BF06F00B
:101FA000C7FF044600BF00BF04F0D5FF00BF00BF5D
:101FB000204606F0C1FF00BF00BF00BF3E48806C56
:101FC00018B13D49886C804703E06EA13FA007F03F
:101FD00049F9394890F84C0008B104F0CDFF10BD24
:101FE00010B5354890F8540088B1002400BF00BFF8
:101FF00006F09EFF044600BF00BF04F0ACFF00BF28
:1020000000BF204606F098FF00BF00BF00BF2A486F
:10201000006D18B12849086D804703E05DA12BA031
:1020200007F020F9244890F8540008B104F0A4FF08
:1020300010BD10B5204890F85C0088B1002400BFA6
:1020400000BF06F075FF044600BF00BF04F083FF29
:1020500000BF00BF204606F06FFF00BF00BF00BFFB
:102060001548806D18B11449886D804703E04DA173
:1020700016A007F0F7F8104890F85C0008B104F0DB
:102080007BFF10BD10B50C4890F8640088B10024A7
:1020900000BF00BF06F04CFF044600BF00BF04F0C5
:1020A0005AFF00BF00BF204606F046FF00BF00BF3A
:1020B00000BF0148006E7DE098CC00105744545F8B
:1020C00049525148616E646C65720000497271201A
:1020D000257320436F6E66696720457272210D0A71
:1020E0000000000054494D4552305F49525148614B
:1020F0006E646C657200000054494D4552315F4971
:10210000525148616E646C657200000054494D453F
:1021100052325F49525148616E646C657200000032
:1021200054494D4552335F49525148616E646C6564
:102130007200000055415254305F49525148616E5F
:10214000646C65720000000055415254315F495281
:102150005148616E646C6572000000005541525434
:10216000325F49525148616E646C65720000000034
:1021700055415254335F49525148616E646C6572E7
:102180000000000050574D315F49525148616E6464
:102190006C657200493243305F49525148616E6448
:1021A0006C657200493243315F49525148616E6437
:1021B0006C65720018B1F849086E804704E0F7A119
:1021C000AFF2F80007F04EF8F34890F8640008B159
:1021D00004F0D2FE10BD10B5EF4890F8740088B13D
:1021E000002400BF00BF06F0A3FE044600BF00BFEE
:1021F00004F0B1FE00BF00BF204606F09DFE00BF08
:1022000000BF00BFE448006F18B1E349086F804782
:1022100004E0E6A1AFF24C1007F024F8DE4890F895
:10222000740008B104F0A8FE10BD10B5DA4890F8AB
:102230007C0088B1002400BF00BF06F079FE044690
:1022400000BF00BF04F087FE00BF00BF204606F0BD
:1022500073FE00BF00BF00BFCF48806F18B1CE49EA
:10226000886F804704E0D5A1AFF2A01006F0FAFF16
:10227000C94890F87C0008B104F07EFE10BD10B58E
:10228000C54890F8840088B1002400BF00BF06F064
:102290004FFE044600BF00BF04F05DFE00BF00BF5C
:1022A000204606F049FE00BF00BF00BFBA48D0F884
:1022B000800020B1B849D1F88000804704E0C3A174
:1022C000AFF2F81006F0CEFFB34890F8840008B1E2
:1022D00004F052FE10BD10B5AF4890F88C0088B1E4
:1022E000002400BF00BF06F023FE044600BF00BF6D
:1022F00004F031FE00BF00BF204606F01DFE00BF07
:1023000000BF00BFA448D0F8880020B1A249D1F88E
:102310008800804704E0B1A1AFF2502006F0A2FF90
:102320009D4890F88C0008B104F026FE10BD10B551
:10233000994890F8940088B1002400BF00BF06F0CF
:10234000F7FD044600BF00BF04F005FE00BF00BF5C
:10235000204606F0F1FD00BF00BF00BF8E48D0F858
:10236000900020B18C49D1F89000804704E09FA1F3
:10237000AFF2A82006F076FF874890F8940008B1E5
:1023800004F0FAFD10BD10B5834890F89C0088B1A8
:10239000002400BF00BF06F0CBFD044600BF00BF15
:1023A00004F0D9FD00BF00BF204606F0C5FD00BF08
:1023B00000BF00BF7848D0F8980020B17649D1F826
:1023C0009800804704E08EA1AFF2003006F04AFF8B
:1023D000714890F89C0008B104F0CEFD10BD10B516
:1023E0006D4890F8A40088B1002400BF00BF06F03B
:1023F0009FFD044600BF00BF04F0ADFD00BF00BF5D
:10240000204606F099FD00BF00BF00BF6248D0F82B
:10241000A00020B16049D1F8A000804704E07DA170
:10242000AFF2583006F01EFF5B4890F8A40008B1E8
:1024300004F0A2FD10BD10B5574890F8AC0088B16B
:10244000002400BF00BF06F073FD044600BF00BFBC
:1024500004F081FD00BF00BF204606F06DFD00BF07
:1024600000BF00BF4C48D0F8A80020B14A49D1F8BD
:10247000A800804704E06CA1AFF2B03006F0F2FE95
:10248000454890F8AC0008B104F076FD10BD10B5D9
:10249000414890F8B40088B1002400BF00BF06F0A6
:1024A00047FD044600BF00BF04F055FD00BF00BF5C
:1024B000204606F041FD00BF00BF00BF3648D0F8FF
:1024C000B00020B13449D1F8B000804704E05BA1EE
:1024D000AFF2084006F0C6FE2F4890F8B40008B1ED
:1024E00004F04AFD10BD10B52B4890F8BC0088B12F
:1024F000002400BF00BF06F01BFD044600BF00BF64
:1025000004F029FD00BF00BF204606F015FD00BF06
:1025100000BF00BF2048D0F8B80020B11E49D1F854
:10252000B800804704E049A1AFF2604006F09AFE8F
:10253000194890F8BC0008B104F01EFD10BD10B59C
:10254000154890F8C40088B1002400BF00BF06F011
:10255000EFFC044600BF00BF04F0FDFC00BF00BF5D
:10256000204606F0E9FC00BF00BF00BF0A48D0F8D3
:10257000C00020B10849D1F8C000804704E037A16D
:10258000AFF2B84006F06EFE034890F8C40008B100
:1025900004F0F2FC10BD000098CC00104932433228
:1025A0005F49525148616E646C65720053535030FC
:1025B0005F49525148616E646C65720053535031EB
:1025C0005F49525148616E646C657200504C4C30EA
:1025D0005F49525148616E646C6572005254435FAA
:1025E00049525148616E646C6572000045494E5411
:1025F000305F49525148616E646C657200000000A2
:1026000045494E54315F49525148616E646C657260
:102610000000000045494E54325F49525148616EF6
:10262000646C65720000000045494E54335F4952A6
:102630005148616E646C6572000000004144435F64
:1026400049525148616E646C65720000424F445FAC
:1026500049525148616E646C657200005553425F87
:1026600049525148616E646C6572000010B5FE48B5
:1026700090F8CC0088B1002400BF00BF06F058FCE1
:10268000044600BF00BF04F066FC00BF00BF204648
:1026900006F052FC00BF00BF00BFF348D0F8C800EE
:1026A00020B1F149D1F8C800804704E0EFA1AFF2B2
:1026B000E45006F0D7FDEC4890F8CC0008B104F0E7
:1026C0005BFC10BD10B5E84890F8D40088B1002438
:1026D00000BF00BF06F02CFC044600BF00BF04F0A2
:1026E0003AFC00BF00BF204606F026FC00BF00BF3A
:1026F00000BFDD48D0F8D00020B1DB49D1F8D000D0
:10270000804704E0DDA1AFF23C6006F0ABFDD648A7
:1027100090F8D40008B104F02FFC10BD10B5D248D9
:1027200090F8DC0088B1002400BF00BF06F000FC78
:10273000044600BF00BF04F00EFC00BF00BF2046EF
:1027400006F0FAFB00BF00BF00BFC748D0F8D800B2
:1027500020B1C549D1F8D800804704E0CBA1AFF241
:10276000946006F07FFDC04890F8DC0008B104F0EA
:1027700003FC10BD10B5BC4890F8E40088B10024FB
:1027800000BF00BF06F0D4FB044600BF00BF04F04A
:10279000E2FB00BF00BF204606F0CEFB00BF00BF3B
:1027A00000BFB148D0F8E00020B1AF49D1F8E00057
:1027B000804704E0B9A1AFF2EC6006F053FDAA48EF
:1027C00090F8E40008B104F0D7FB10BD10B5A6489E
:1027D00090F8EC0088B1002400BF00BF06F0A8FB11
:1027E000044600BF00BF04F0B6FB00BF00BF204698
:1027F00006F0A2FB00BF00BF00BF9B48D0F8E80076
:1028000020B19949D1F8E800804704E0A7A1AFF2D0
:10281000447006F027FD944890F8EC0008B104F0ED
:10282000ABFB10BD10B5904890F8F40088B10024BF
:1028300000BF00BF06F07CFB044600BF00BF04F0F1
:102840008AFB00BF00BF204606F076FB00BF00BF3A
:1028500000BF8548D0F8F00020B18349D1F8F000DE
:10286000804704E095A1AFF29C7006F0FBFC7E4827
:1028700090F8F40008B104F07FFB10BD10B57A4861
:1028800090F8FC0088B1002400BF00BF06F050FBA8
:10289000044600BF00BF04F05EFB00BF00BF20463F
:1028A00006F04AFB00BF00BF00BF6F48D0F8F80039
:1028B00020B16D49D1F8F800804704E084A1AFF25F
:1028C000F47006F0CFFC684890F8FC0008B104F002
:1028D00053FB10BD10B5644890F8040188B1002482
:1028E00000BF00BF06F024FB044600BF00BF04F099
:1028F00032FB00BF00BF204606F01EFB00BF00BF3A
:1029000000BF5948D0F8000120B15749D1F8000163
:10291000804704E072A1AFF64C0006F0A3FC5248D9
:1029200090F8040108B104F027FB10BD10B54E4823
:1029300090F80C0188B1002400BF00BF06F0F8FA3F
:10294000044600BF00BF04F006FB00BF00BF2046E6
:1029500006F0F2FA00BF00BF00BF4348D0F80801FC
:1029600020B14149D1F80801804704E060A1AFF6E9
:10297000A40006F077FC3C4890F80C0108B104F084
:10298000FBFA10BD10B5384890F8140188B1002446
:1029900000BF00BF06F0CCFA044600BF00BF04F041
:1029A000DAFA00BF00BF204606F0C6FA00BF00BF3B
:1029B00000BF2D48D0F8100120B12B49D1F81001EB
:1029C000804704E050A1AFF6FC0006F04BFC26481F
:1029D00090F8140108B104F0CFFA10BD10B52248E8
:1029E00090F81C0188B1002400BF00BF06F0A0FAD7
:1029F000044600BF00BF04F0AEFA00BF00BF20468F
:102A000006F09AFA00BF00BF00BF1748D0F81801BF
:102A100020B11549D1F81801804704E040A1AFF674
:102A2000541006F01FFC104890F81C0108B104F087
:102A3000A3FA10BD10B50C4890F8240188B1002409
:102A400000BF00BF06F074FA044600BF00BF04F0E8
:102A500082FA00BF00BF204606F06EFA00BF00BF3A
:102A600000BF014866E0000098CC001043414E5F73
:102A700049525148616E646C65720000444D415F7B
:102A800049525148616E646C657200004932535F6F
:102A900049525148616E646C65720000454E455460
:102AA0005F49525148616E646C6572004D43495FE5
:102AB00049525148616E646C657200004D43505735
:102AC0004D5F49525148616E646C657200000000B0
:102AD0005145495F49525148616E646C657200000E
:102AE000504C4C315F49525148616E646C657200C4
:102AF00055534241637469766974795F495251480C
:102B0000616E646C6572000043414E416374697686
:102B10006974795F49525148616E646C6572000056
:102B200055415254345F49525148616E646C65722C
:102B300000000000D0F8200120B1AD49D1F82001FB
:102B4000804704E0ABA1AFF67C2006F08BFBA848E1
:102B500090F8240108B104F00FFA10BD10B5A44894
:102B600090F82C0188B1002400BF00BF06F0E0F906
:102B7000044600BF00BF04F0EEF900BF00BF2046CE
:102B800006F0DAF900BF00BF00BF9948D0F828016D
:102B900020B19749D1F82801804704E099A1AFF608
:102BA000D42006F05FFB924890F82C0108B104F0A5
:102BB000E3F910BD10B58E4890F8340188B10024B7
:102BC00000BF00BF06F0B4F9044600BF00BF04F028
:102BD000C2F900BF00BF204606F0AEF900BF00BF3B
:102BE00000BF8348D0F8300120B18149D1F83001CD
:102BF000804704E087A1AFF62C3006F033FB7C4819
:102C000090F8340108B104F0B7F910BD10B5784858
:102C100090F83C0188B1002400BF00BF06F088F99D
:102C2000044600BF00BF04F096F900BF00BF204675
:102C300006F082F900BF00BF00BF6D48D0F8380130
:102C400020B16B49D1F83801804704E075A1AFF697
:102C5000843006F007FB664890F83C0108B104F0A8
:102C60008BF910BD10B5624890F8440188B100247A
:102C700000BF00BF06F05CF9044600BF00BF04F0CF
:102C80006AF900BF00BF204606F056F900BF00BF3A
:102C900000BF5748D0F8400120B15549D1F8400154
:102CA000804704E063A1AFF6DC3006F0DBFA504861
:102CB00090F8440108B104F05FF910BD4C4A42F8A5
:102CC000301070472DE9F04703460C464FF0000CDA
:102CD0000520254616460146C1F10709B9F1050F41
:102CE00001D9814601E0C1F10709C84601F1050992
:102CF000B9F1070F02D24FF0000901E0A1F102097A
:102D00004F464FF0010909FA08F9A9F1010909EA4A
:102D1000050909FA07F94FF0010A0AFA07FAAAF1B8
:102D2000010A0AEA060A49EA0A09CC461846614637
:102D3000002807DACD062F0E434D00F00F06361F90
:102D4000AF5503E0CD062E0E404D2E5400BFBDE81A
:102D5000F08710B5002400F02BFB052002463A4B0B
:102D60000C3B19684FF6FF031940394B0B4343EAFC
:102D70000221354B0C3B196000BF00BF10E0354B02
:102D800003EB04139A68334B03EB04135968314B7C
:102D900003EB041393F90000FFF794FF601CC4B227
:102DA000072CECD310BD70B500240725002600F0D9
:102DB000FFFA00BF19E0274800EB0410007B06462D
:102DC0008EB1244901EB041191F9000000F01F02BB
:102DD0000121914042094FF0E02303EB8202C2F847
:102DE000001100BF00BF601CC4B2AC42E3DB70BD89
:102DF00098CC0010535350325F49525148616E6471
:102E00006C6572004C43445F49525148616E646C7A
:102E1000657200004750494F5F49525148616E64E6
:102E20006C65720050574D305F49525148616E6475
:102E30006C657200454550524F4D5F495251486193
:102E40006E646C657200000018ED00E000E400E0C4
:102E50000000FA05B49C000030B5FC48006810F48E
:102E6000807F6BD1FA48006810F0010F2CD1F74831
:102E7000006810F01F0F01D1002006E0F348006841
:102E800000F01F00F349B1FBF0F0F3490860F3488C
:102E9000006810F01F0F01D1002006E0EF48006825
:102EA00000F01F00EB49B1FBF0F0ED490860ED4880
:102EB000006800F0010000F10100E7490968B1FB7A
:102EC000F0F0E9490860B6E0E848006810F0400F0B
:102ED00007D10020E0490860E1490860E249086044
:102EE000A9E0DA48006810F01F0F01D1002006E0C9
:102EF000D648006800F01F00D649B1FBF0F0D64973
:102F00000860D648006810F01F0F01D1002006E0CD
:102F1000D248006800F01F00CE49B1FBF0F0D04964
:102F20000860D048006800F0010000F10100CA49C3
:102F30000968B1FBF0F0CC4908607CE0CC4800683F
:102F400010F4807F07D10020C3490860C44908609D
:102F5000C54908606FE0BE48006810F0010F2ED12F
:102F6000C34C246804F01F0404F10100C14CD4F8E0
:102F7000044104F01F01B94C246804F01F02BD4C49
:102F8000D4F8004104F0010404F1010309B900245C
:102F900003E0B04C4443B4FBF1F4AF4D2C600AB9EC
:102FA000002403E0AB4C4443B4FBF2F4AC4D2C6082
:102FB000A94C2468B4FBF3F4AB4D2C603BE0AB4868
:102FC000006810F0400F07D10020A3490860A44911
:102FD0000860A54908602EE0A54C246804F01F0491
:102FE00004F10100A34CD4F8044104F01F019B4CF0
:102FF000246804F01F029F4CD4F8004104F001043F
:1030000004F1010309B9002403E0924C4443B4FBEA
:10301000F1F4914D2C600AB9002403E08D4C444337
:10302000B4FBF2F48E4D2C608B4C2468B4FBF3F4AB
:103030008D4D2C6000BF9048006810F4807F31D027
:103040008D48006810F01F0004D0042806D0062820
:1030500023D104E000208949086022E000BF844AAF
:10306000126802F01F0202F10100824AD2F8082120
:1030700002F01F01764A126812F0010F06D0754A5D
:103080004243B2FBF1F27D4B1A6005E0714A4243C4
:10309000B2FBF1F2794B1A6003E000207749086037
:1030A00000BF24E07448006810F4007F1CD068481A
:1030B000006810F0010F0BD07148006800F01F008D
:1030C00000F10100634900FB01F06C4908600EE06B
:1030D0006748006800F01F0000F101005D4900FB37
:1030E00001F06649086002E000206449086030BDD4
:1030F00000B521205D49086000BF5C48006810F001
:10310000400FFAD00120524908604FF00900594998
:10311000C1F884004FF001005A4908604FF0AA003E
:10312000594908604FF05500086000BF50480068DA
:1031300010F4806FFAD02320544908604FF001004A
:103140004C49C1F8A0004FF0AA00514908604FF067
:1031500055004849C1F8AC0000BF4948006810F468
:10316000806FFAD040F201103849086040F2012027
:103170004049C1F808014FF001003A4908604FF09A
:103180000200364908604348434908604FF48070A4
:103190003849C1F8C8010846D0F8B00140F0030032
:1031A0003E49086045F23A00324908604FF000009D
:1031B0003B490860FFF750FE00BD70B506460D465E
:1031C00036B1012E12D0022E1ED0032E6BD129E073
:1031D0001E48006820F01F0405F01F0040EA0404A8
:1031E0002448C0F80441FFF737FE5EE01B48006842
:1031F00020F01F0405F01F0040EA04041D48C0F839
:10320000A841FFF729FE50E01648006820F00104AD
:1032100005F0010040EA04041648C0F80041FFF739
:103220001BFE42E01448006820F01F0405F01F0058
:1032300040EA04040F48D0F8080105F01F0140EAF5
:1032400001000D490860FFF707FE2EE004C10F40A2
:103250000CC10F40001BB70070000010A8C10F4048
:103260007400001000C10F4078000010A0C10F4092
:1032700088C00F4000C00F4008C10F407C00001004
:10328000A8C00F4080C00F408CC00F40A4C00F40AA
:10329000ACC00F40DE872804C4C00F40B0C10F404F
:1032A00008ED00E0FFE700BFFEE700BF70BD01468C
:1032B00031B1012907D0022908D003290CD108E037
:1032C000FE4800687047FE480068FBE7FD4800685C
:1032D000F8E7FD480068F5E700BFFEE7012907D1E0
:1032E000FA4A126842EA0002F94BC3F8C42007E028
:1032F00031B9F64A126822EA0002F54BC3F8C4203D
:1033000070470020F349086030BF70470420F2493D
:1033100008600020EF49086030BF70470420EE4984
:1033200008600120EB49086030BF70470420EA497B
:1033300008600320E749086030BF704710B5E74BCD
:1033400003EB81039B781C09E44B03EB81039B781F
:1033500064F31F131A46E24B984213D0037B43F0E9
:1033600080030373DD4B13F821300370DB4B33F81C
:1033700021301B12037180F82820037B23F0800387
:10338000037314E0D64B1B7B43F08003D44C2373B0
:10339000D24B13F821302370D04B33F821301B125D
:1033A000237123469A621B7B23F08003237310BD95
:1033B0004FF0FF31CB4A11604FF00102CA49C1F80A
:1033C00084204FF0FF314FF0E022C2F880124FF01E
:1033D0000102C6490A604FF0000004E00022C4491F
:1033E0000A54411CC8B22028F8DB70474FF0206116
:1033F000B94A0C3A11600021121D1160BD49121D1D
:1034000011600021121D1160121D1160002005E0E5
:103410000022B14908310A54411CC8B22028F7DB08
:103420000021AD4A14321160491E121D1160121D97
:103430001160121D11607047A74908390860704774
:103440000146080B102802D30E2202EBD000704771
:1034500030B58BB004460D4632200190029403959E
:1034600006A901A8A44A126890470698C0B20BB0FA
:1034700030BD2DE9F0418AB004460D46164620467F
:10348000FFF7DEFF804641464046FFF7E1FF074673
:103490001FB138460AB0BDE8F08133200090019496
:1034A000029503960020FFF702FF4FF47A71B0FBFC
:1034B000F1F1049105A968468F4A12689047059872
:1034C000C0B2E7E770B58AB004460E4631462046E2
:1034D000FFF7BEFF054615B128460AB070BD34207F
:1034E0000090019402960020FFF7E1FE4FF47A71FC
:1034F000B0FBF1F1039105A968467F4A1268904735
:103500000598C0B2E9E7F0B58BB006460F46144601
:103510001D46352001900296039706A901A8764A18
:10352000126890470698082805D10CB107982060CA
:103530000DB1089828600698C0B20BB0F0BD10B568
:103540008AB004463620009005A968466A4A126887
:103550009047059810B90CB1069820600598C0B244
:103560000AB010BD30B58BB004460D46372001902F
:1035700006A901A8604A12689047069830B914B1AC
:103580000798000A20700DB1079828700698C0B2FD
:103590000BB030BD10B58AB004463A20009005A9A2
:1035A0006846554A12689047059860B95CB100209A
:1035B00000BF05E006A951F8201044F82010401C77
:1035C0000428F7D300BF0598C0B20AB010BD70B58B
:1035D0008AB004460E4615463820009001940296A3
:1035E000039505A96846444A126890470598C0B2F9
:1035F0000AB070BD00B58BB03920019006A901A8B2
:103600003D4A126890470BB000BD00B500203B4911
:103610000860FFF74CFE03463948B3FBF0F0421E4A
:103620004FF40010C0F894203648B3FBF0F0C0EB24
:1036300000104FF47A71B0FBF1F0421C3148B3FB3B
:10364000F0F000EBC001C1EB80104FF47A71B0FBD9
:10365000F1F0401C42EA00222A48B3FBF0F0C0EB34
:10366000C00000EB8000B0FBF1F0401C42EA0042D9
:103670002548026000BD70B50C46244B18604FF021
:10368000000175E04FF0A053214D2B600323214D25
:103690002B60635C4FF40015C5F8883000BF1E4BEB
:1036A0001B68C3F38063002BF9D000F1010398B2CB
:1036B000A0F101034FEAE37530E000007000001054
:1036C00074000010780000107C000010C4C00F408F
:1036D00000C00F40C0C00F4010ED00E0249D00006E
:1036E0000000014080E100E000E100E084E200E051
:1036F00000E400E00000FA058400001098002000BB
:10370000D8B8050040420F0090002000840020003F
:10371000E80F200080002000E00F200003EB9565FB
:103720004FF03E06B6EBA51F00DA23E0C51700EB0D
:103730009565AD11B0EB851502D0551E8D4215D1A2
:10374000431EDD1703EB9565C5F38515AD01774E77
:1037500035604FF006034FF40015C5F8803000BF08
:10376000734B1B68C3F30073002BF9D001F1010107
:10377000914287D300BF70BD30B503466B4C2360C8
:103780004FF008044FF40015C5F880404FF00000DA
:1037900010E04FF08064664D08352C60654C24685D
:1037A0000C5400BF624C2468C4F38064002CF9D030
:1037B00000F101009042ECD330BD10B510224FF063
:1037C000A0535B4C083423600023584C23604FF017
:1037D00005034FF40014C4F880304FF000010FE0EF
:1037E0000023554C236000BF514B1B68C3F380631B
:1037F000002BF9D04FF08063504C236001F10101A0
:103800009142EDD34FF080534C4C236083061B0D47
:10381000464C23604FF006034FF40014C4F8803088
:1038200000BF434B1B68C3F30073002BF9D04FF06C
:103830008053424C236010BD012803D10121404A2E
:10384000116002E000213E4A1160704748B9002132
:103850003C4A11604FF6FF71516000213A4A1170E5
:1038600017E0012808D11521364A11600021516066
:103870000121354A11700CE0022808D13621314A65
:103880001160C11E516002212F4A117001E000BF7A
:10389000FEE770472C48007820B94FF6FF702949A1
:1038A00048600EE028480078012803D1002025490F
:1038B000486006E024480078022802D1C01E214951
:1038C000486070470246012902D11E4B1A7206E079
:1038D000022902D11B4B1A8101E01A488260194863
:1038E0008068704770B504460B46214618E0012AEF
:1038F00002D0022A0CD105E008460578114E357237
:10390000491C0BE0084605880E4E3581891C05E0F0
:1039100008460C4E0568B560091D00BF00BF5B1E60
:10392000002BE4D10748806870BD000084002000AF
:10393000E00F20008C00200088002000E80F20000D
:103940009800200000000920880000104FF040215E
:10395000096801F00F004FF0402108607C49098898
:1039600001437B4A1180704770B505462C682E795B
:103970007848D0F8C400D5F8051008437549C1F857
:10398000C400002020612067A060686930B36869C6
:1039900000BF0278704B03EBC212437802EB830145
:1039A000D0F802200A6000BFC17969B1817906EBC5
:1039B0004602914006EB4602921C012393401943B4
:1039C000A26A1143A16206E0817906EB46029140AA
:1039D000A26A1143A1620021616119E0606906EBEE
:1039E00046020721914088436061E87C38B16069F4
:1039F00006EB4601891C01228A4010436061D5F81C
:103A00000F0028B1D5F80F1095F90E00FFF756F901
:103A1000687A20B9D5F80A00401EE0600AE001206B
:103A2000FFF745FC4D49B0FBF1F0D5F80A104843CB
:103A3000401EE060606840F003006060606820F055
:103A40000200606070BD01EB800301229A40404B90
:103A50001B8893433E4A1380704710B5002400BF73
:103A600008E004EB44013E4A02EBC100FFF77CFF93
:103A7000601CC4B2052CF4D310BD70B504460D46CD
:103A8000384850F8246029462046FFF7DCFF70696B
:103A900005EB4502012191408843706170BD2DE91D
:103AA000F04106460D4617462E4850F82640A068BD
:103AB000C11904F1180040F825100120A840206029
:103AC00029463046FFF7BFFF606905EB450201213B
:103AD000914008436061BDE8F08130B5214C54F855
:103AE00020309C68A51803F1180444F8215030BD1B
:103AF00070B504460D46611C48B22946FFF7DEF852
:103B000070BD024601EB820301209840104B1B88D8
:103B1000184201D0012070470020FCE7F0B50246B2
:103B20000B46104E56F82240266806F00F0100257D
:103B30000020216009E011F0010F03D00646471C68
:103B4000F8B29D556E1CF5B249080029F3D1F0BDBD
:103B50009200001000C00F4000C0024040420F0021
:103B6000489D0000389D000010B502460B4600201D
:103B7000002100BF03E0545C60404C1CE1B299425C
:103B8000F9DB10BD70B504460D460120FFF78FFB31
:103B9000B0FBF5F046082661666170BD2DE9F0477F
:103BA00005460F46287800EB40008E4901EBC00423
:103BB00095F8008095F801908B48006840F400402B
:103BC0008A49C1F8C40000BF217B894A02EBC112B7
:103BD000617B02EB8100D4F80E10016000BF00BFD2
:103BE000A17C834A02EBC112E17C02EB8100616996
:103BF000016000BF26687D48D0F8C400616840EAD3
:103C000001007A49C1F8C4004FF06C00B0614FF078
:103C1000400030603046A168FFF7B4FF08EB880031
:103C20007449084400F80970BDE8F087014600BFF8
:103C3000086810F0080FFBD0486800F0F8007047E3
:103C40002DE9F04704460F4615464FF003084FF0A4
:103C5000000900261EE0206840F020002060204679
:103C6000FFF7E4FF2020A06145EA4700A06000BF05
:103C70000820A06100BF2046FFF7D8FF0646402E6F
:103C800001D0182E02D14FF0000908E0A8F1010080
:103C900000F0FF08B8F1000FDDD1B14600BF012DE3
:103CA00004D1206840F00400206001E00420A061FD
:103CB0004846BDE8F08770B504460D46A56000BFD4
:103CC0000820A06100BF2046FFF7B0FF70BD70B5AF
:103CD0000446002500BF0820A06100BF2046FFF772
:103CE000A5FFA068C5B2284670BD2DE9F04705467E
:103CF0000F469046287800EB40003A4951F8304092
:103D0000287800EB80003B490844697810F801905E
:103D10000026B246002249462046FFF791FF824620
:103D2000BAF1000F00D016E0002605E0B95D20468C
:103D3000FFF7C1FF701C86B24645F7DB00BF0820C5
:103D4000A06100BF206840F01000206000BF082084
:103D5000A06100BF00BFBDE8F0872DE9F04706462F
:103D60000F469046307800EB40001E4951F8304035
:103D7000307800EB80001F490844717810F80190FA
:103D80000025AA46012249462046FFF759FF8246F0
:103D9000BAF1000F00D021E0002505E02046FFF732
:103DA00096FF7855681C85B2A8F10100A842F5DCA1
:103DB0000420A0612046FFF78AFF29466A1C95B2BD
:103DC000785400BF0820A06100BF206840F01000B8
:103DD000206000BF0820A06100BF00BF2846BDE8EA
:103DE000F0870000C09D0000C4C00F4000C00F401D
:103DF00000C00240E0CD001070B50646D6F8015074
:103E00002C688E48D0F8C400696808438B49C1F813
:103E1000C40000206060A060606840F00200606044
:103E2000206840F23F71084320600120FDF72CFF1D
:103E3000606820F002006060A868E060804884420A
:103E400005D1287B18B1606840F010006060D5F89B
:103E50000E0028B1D5F80E1095F90D00FEF72EFFD3
:103E6000606940F002006061A06AB6F80D10084376
:103E7000A062606840F00100606070BD714909682F
:103E800041F400416D4AC2F8C41000BF02786E4B85
:103E900003EBC212437802EB8301D0F802200A60E0
:103EA00000BF704710B50446D4F80500FFF7E6FFE1
:103EB0002046FFF7A1FF10BD30B502460B4600219A
:103EC000002000BF14E0C1EB0114604D2C5D9C424A
:103ED0000CD1C1EB01142C44D4F80140944205D11B
:103EE000C1EB01142C44D4F8090003E04C1CE1B2EE
:103EF0000229E8D300BF30BD70B500260024544825
:103F0000006885B25248056015F0100F00D005E03A
:103F100015F0200F01D0012600E018E031464D4891
:103F2000FFF7CAFF0446206848B149482C3050F8D2
:103F300026102279501C2071206840F82210207928
:103F40000A2190FBF1F201FB1200207100BF70BD4D
:103F500010B5002400BF07E0C4EB04113B4A8818E9
:103F6000FFF7A0FF601CC4B2022CF5D310BD704750
:103F70002DE9F04106460D46174606EBC6003549C9
:103F8000123901EB400004680120FFF790F98046E8
:103F9000E068401CB8FBF0F80020A060B8FBF7F028
:103FA000A061206D40F001002065032D06DDA069B1
:103FB000410804F1400040F8251005E0A0694108DF
:103FC00004F1180040F82510216D072D02DA0120B8
:103FD000A84000E0002001432165E16C05F00700E6
:103FE000012801DA002004E005F10800012202FAAC
:103FF00000F00143E164BDE8F0812DE9F04704469B
:104000000F464FF00009C8460025AA46002604EBDB
:10401000C401104A123A02EB41003946FFF74CFF47
:10402000064696F80480D6F800A000BF01E0681CA0
:10403000C5B24545FBDB0020BDE8F08700C00F405E
:1040400000400140C4C00F4000C00240209E00005C
:1040500000800140029E00000EB54D48006840F40B
:1040600000404C49C1F8C40000BF4FF001024FF0BE
:104070000850494900EB4110C26400BF00BF4FF037
:104080000851464801EB4010C26400BF4FF00001E8
:104090004FF00200FCF73FFD02A800211E230A4654
:1040A000CDE90010084604F04BFC0EBD3EB50446B9
:1040B0000D4600BF01224FF00851384801EB401077
:1040C000C26400BF4FF4FA70FDF7DEFD2A462146B8
:1040D0000220FCF7F0FC02A800210A230A46CDE9E1
:1040E0000010084604F02CFC00BF01224FF00851DC
:1040F0002A48001D01EB4010C26400BF3EBDF0B570
:1041000085B006460C46002004900027002502A832
:1041100003A904AB0022CDE900103221204804F0AD
:104120000DF90746BDF8080008B100BF12E0BDF860
:104130001000A04201DD204601E0BDF81000C5B22C
:104140002A463946304604F004FF39460220FCF77F
:1041500097FD00BF284605B0F0BD70B504460025A8
:10416000B4F5165F06D0B4F5964F05D0B4F5164FEA
:1041700006D103E0002504E0012502E0022500E06D
:1041800000BF00BF29460220FCF788FC70BD00007C
:10419000C4C00F4000C00F402080090038800900D3
:1041A000DCCA001000B58BB0FCF780FD0AA802F055
:1041B0006EFEFEF7F8FD0AA8032100220592CDE964
:1041C00006210890104680210C22094BCDE90132CE
:1041D000CDE903100A200023064A07A100900848F1
:1041E00001F0AFFB0AA802F071FF00200BB000BD88
:1041F000E8D00010DD8E000053656E736F72000012
:1042000018CE0010704700BFFEE70146412903DBCE
:104210005A2901DC012200E00022012A08D061298C
:1042200003DB7A2901DC012200E00022012A01D10E
:10423000012200E00022104670470146412903DBBD
:104240005A2901DC012200E00022012A08D061295C
:1042500003DB7A2901DC012200E00022012A01D1DE
:10426000012200E00022012A08D0302903DB39298D
:1042700001DC012200E00022012A01D1012200E03C
:104280000022104670470146612903DB7A2901DCD0
:10429000012200E00022104670470146412903DB5D
:1042A0005A2901DC012200E0002210467047014635
:1042B000302903DB392901DC012200E0002210460D
:1042C00070470146302903DB372901DC012200E079
:1042D0000022104670470146302901DB392907DDED
:1042E000412901DB462903DD612903DB662901DC65
:1042F000012200E00022104670470146202901D02B
:10430000092901D1012200E0002210467047014630
:10431000202909D00D2907D00A2905D00C2903D05E
:10432000092901D00B2901D1012200E00022104609
:1043300070470146202903DB7E2901DC012200E0D1
:104340000022104670470146212903DB7E2901DC4B
:10435000012200E00022104670470146202903DBBD
:104360007E2901DC012200E00022012A35D120292A
:1043700009D00D2907D00A2905D00C2903D0092915
:1043800001D00B2901D1012200E000222ABB4129E2
:1043900003DB5A2901DC012200E00022012A08D0B7
:1043A000612903DB7A2901DC012200E00022012AD5
:1043B00001D1012200E00022012A08D0302903DBCC
:1043C000392901DC012200E00022012A01D1012269
:1043D00000E000220AB9012200E0002210467047E6
:1043E00001464AB2002A01DB1F2901DD7F2901D1E4
:1043F000012200E00022104670470146412903DBFC
:104400005A2901DC012200E00022012A02D101F137
:10441000200200E00A46D0B270470146612903DB62
:104420007A2901DC012200E00022012A02D1A1F157
:10443000200200E00A46D0B27047F0B504460B46B1
:104440002046FFF7EAFF05461846FFF7E6FF064657
:10445000B54201D1012000E0002007463846F0BDFA
:1044600070B50446002500BF00BF04F061FD05469D
:1044700000BF00BFF748046000BF00BF284604F03B
:104480005BFD00BF00BF70BD10B50120FFF7E8FF66
:1044900010BD014643F23902EF4B03FB012222F02B
:1044A0000040704770B5002600BF00BF04F040FD1B
:1044B000064600BF00BFE74805682846FFF7E9FF4A
:1044C0000446E448046000BF00BF304604F034FDF9
:1044D00000BF00BF204670BD10B502460B46114616
:1044E000002001E0491C401C19B10C780CB1984225
:1044F000F8D310BD30B504464FF0FF312046FFF72A
:10450000EBFF0546284630BD70B504460D461646FD
:104510000CB9002070BD0DB90020FBE721462A46EA
:10452000002304E010780870491C521C5B1C21B168
:104530001AB1107808B1B342F4D301B10AB900201E
:10454000E8E7B34201D2002008702046E2E770B5E8
:1045500004460D464FF0FF3229462046FFF7D4FFB0
:104560000646304670BD70B503460C4615460BB97D
:10457000002070BD0CB90020FBE70DB91846F8E724
:10458000194600E0491C11B108780028FAD109B990
:104590000020EEE72246002604E010780870491C4F
:1045A000521C761C21B11AB1107808B1AE42F4D376
:1045B00001B10AB90020DCE7002008701846D8E7EE
:1045C00070B504460D464FF0FF3229462046FFF7EE
:1045D000CAFF0646304670BD2DE9F04305460B463E
:1045E0009446BCF1000F02D10020BDE8F08335B93C
:1045F0000BB90020F9E7187842421046F5E713B9E5
:104600002A781046F1E729461C460F4626467F1CAD
:10461000761C4FF0000805E0491C641C7F1C761CCA
:1046200008F10108087894F80090484505D1087809
:1046300018B117B10EB1E045EED3E04501D100202D
:10464000D3E7087894F80090484505D0087894F8A6
:104650000090A0EB09020BE0087808B9002207E0FF
:104660002FB90EB9002203E03078424200E03A78D8
:104670001046BAE770B504460D464FF0FF322946A2
:104680002046FFF7A9FF0646304670BD2DE9F74FDB
:1046900081B007460D46039818B9002004B0BDE864
:1046A000F08F4FB90DB90020F8E72878FFF7A5FE85
:1046B000064673421846F1E735B93878FFF79DFE94
:1046C000044623461846E9E7B846A9464746BA468F
:1046D0004D46AB4657460AF1010A5D460BF1010B08
:1046E000474698F80000FFF788FE04464D4699F8C3
:1046F0000000FFF782FE06460020009014E008F15B
:10470000010809F101090AF1010A0BF1010B0098F6
:10471000401C009098F80000FFF76FFE044699F8DF
:104720000000FFF76AFE0646B4420CD198F800007C
:1047300048B1BAF1000F06D0BBF1000F03D00399C6
:1047400000988842DBD303990098884201D1002069
:10475000A4E7B44201D0A31B17E00CB9002314E076
:10476000BAF1000F0BD1BBF1000F01D100230CE017
:104770009BF80000FFF741FE0646734205E09AF8F9
:104780000000FFF73AFE04462346184686E770B558
:1047900004460D464FF0FF3229462046FFF776FFCC
:1047A0000646304670BD30B504460B4615460CB97A
:1047B000002030BD0BB90020FBE72146002201E0BC
:1047C000491C521C31B1087820B10878A84201D0A8
:1047D0009A42F5D309B90020EBE79A4201D30020B1
:1047E000E7E70878A84201D00020E2E70846E0E7C2
:1047F00070B505460C4622464FF0FF312846FFF7BC
:10480000D2FF0646304670BD2DE9F04305460E4600
:10481000174615B90020BDE8F0830EB90020FAE76D
:104820002C46A6F1010949462046FFF755FE804671
:1048300044440CB90020EEE700E0641EAC4202D014
:104840002078B842F9D12078B84201D00020E2E7C0
:104850002046E0E7A80000106D4EC64170B5054641
:104860000C4622464FF0FF312846FFF7CDFF0646A3
:10487000304670BD2DE9FF4F06460F4615461EB95E
:10488000002004B0BDE8F08F0FB90020F9E70DB9A2
:104890000020F6E7681C00D001E04FF0FF300390E5
:1048A00029463046FFF718FE804638460399FFF741
:1048B00013FE04460CB93046E3E7444501D9002015
:1048C000DFE706EB080BBBF1000F01D10020D8E7B2
:1048D00007EB040BBBF1000F01D10020D1E7A8EBDF
:1048E000040002904FF000090020019000BF06EB89
:1048F00009000090224639460098FFF76DFE824677
:10490000BAF1000F01D1012000E00020019009F16F
:104910000109019810B902988145E8D9BAF1000F50
:1049200001D00020ADE70098ABE770B504460D4616
:104930004FF0FF3229462046FFF79CFF06463046DF
:1049400070BD2DE9FF4F8BB00E461446189D1B9885
:1049500018B900200FB0BDE8F08F4FF0000B012E0A
:1049600001DA4FF0010B022C01D3242C01D94FF0B6
:10497000010B95B32846FFF7DCFC01900198012854
:1049800002D04FF0010B28E0302D26D0A5F13000E9
:10499000C0B205901998012804D0A5F14100C0B219
:1049A000049003E0A5F16100C0B204900A2C02D883
:1049B0000598A04209DB0A2C09D905980A2804D3D6
:1049C000A4F10A000499884201D9012000E00020E6
:1049D00003900398012800D183461B9BBBF1000F75
:1049E00045D1DDF82C90DDF82C90CDF828900120F1
:1049F000099007E00998401CC0B209900A98B0FBE2
:104A0000F4F00A900A98A042F4D20E98012800D13E
:104A100000E000200790099907980844B04224DC80
:104A2000002000900998B04201DA099800E0304671
:104A300008903DB137460898311A0798081AC0B255
:104A4000069005E0DDE907100844C7B20020069093
:104A50000698002806DD302D01D1012000E000205D
:104A6000029004E00020029001E04FF0010BBBF146
:104A7000000F00D037463B441A9808B10020187048
:104A80005B1E4FF0000840E0BBF1000F38D1B9F1D8
:104A9000000F02D1B8F1000F1CD1B9FBF4F004FBF8
:104AA000109000F0FF0ABAF10A0F04D20AF13000A8
:104AB00003F801090BE01998012804D00AF1370026
:104AC00003F8010903E00AF1570003F80109B9FBF3
:104AD000F4F918E00E9801280ED1029808B9009850
:104AE00020B1029840B1781E404505D12D2003F831
:104AF00001090120009006E02DB103F8015902E000
:104B00003F2003F8010908F10108B845BCD3BBF107
:104B1000000F01D000201DE71B981BE72DE9FF5F68
:104B200005460E4617461C46DDE90F9ADDF838802B
:104B300000233A46314628468DE81007FFF701FF6B
:104B40008346584604B0BDE8F09F2DE9FF4F85B07D
:104B5000044689461F46DDE913AB002C02DA6542A4
:104B6000012601E02546002612983346CDE902AB26
:104B7000CDE9007049462846079AFFF7E2FE8046D5
:104B8000404609B0BDE8F08F2DE9FF4F89B00546DA
:104B900088461446B8F1000F02D10DF11C0800BF81
:104BA000C8F80050169810B906A8169000BF00214A
:104BB000169801701DB900200DB0BDE8F08F012CD2
:104BC00001D0242C01D90020F6E72B461878FFF7F6
:104BD0009EFB029004E05B1C1878FFF798FB0290A4
:104BE00002980128F7D018782B2802D02D280BD155
:104BF00003E05B1C4FF0000A09E00C98012800D18B
:104C00005B1C4FF0010A02E04FF0000A00BF00BF3A
:104C1000089324B1082C1CD0102C36D11EE0187833
:104C2000302814D15B1C1878582802D078280BD172
:104C300000BF10245E783046FFF74DFB8146B9F186
:104C4000010F00D15B1C01E0082400BF00E00A2432
:104C50001CE01878302800D15B1C17E01878302849
:104C600012D15B1C1878582802D078280AD100BFCE
:104C70005E783046FFF72FFB8146B9F1010F00D176
:104C80005B1C00E000BF00BF00E000BF00BF0027CA
:104C90000020019000903CE01E783046FFF7CDFAEE
:104CA00004900498012832D13046FFF700FB0590AC
:104CB0000598012804D1A6F1300000F0FF0B0FE0A9
:104CC0003046FFF7E0FA03900398012804D1A6F1DB
:104CD000570000F0FF0B03E0A6F1370000F0FF0BD8
:104CE000A34511DA019868B9F74850F82400B84292
:104CF00006D367435F445F4504D20120019001E081
:104D0000012001905B1C04E00120009001E00120E3
:104D1000009000980028BFD00198012800D1871E7C
:104D20000898834202D0C8F8003001E0C8F800506B
:104D3000169880F800A038463EE7F8B504460D46C0
:104D40001646002003463246294600902046FFF7CB
:104D50001BFF07463846F8BD2DE9FC4105460E46C7
:104D6000174601A801233A46314600902846FFF72E
:104D70000BFF04469DF8040040B9B4F1004F02D384
:104D80006FF0004000E02046804607E0B4F1004F9D
:104D900002D34FF0004000E0604280464046BDE84C
:104DA000FC81CA48CA48CB48CB48CC48CC48CD48FF
:104DB000CD48CE48CE48CF48CF48D048D048D1483B
:104DC000D148D248D248D348D348D448D448D5480B
:104DD000D548D648D648D748D748D848D848D948DB
:104DE000D948DA48DA48DB4800BF704770B500257B
:104DF000D94C03E005F12000C5B2241D206800282D
:104E0000F8D0206804F09BF82844C5B2284670BD4D
:104E100010B50024D1480078002800DD10BDD0482E
:104E20000078002800DDF9E700BF04F081F80446AF
:104E300000BFFFF7DBFFCB4908700846007800EBA6
:104E40004000C94951F82000C84908600846006878
:104E5000C7490968884205D100BF204604F06CF8B4
:104E600000BFDBE7C3480068401CC24908604FF040
:104E70008050C149086000BF204604F05DF800BFC3
:104E800000BFCBE770B504460025BC480078012878
:104E900003D045F68960208070BDB148007818B90C
:104EA00046F664502080F7E700BF00BF04F040F8EA
:104EB000054600BF00BFAA480078401EA8490870F8
:104EC0000846007800280ADD00BF00BF284604F02D
:104ED00033F800BF00BF46F663502080DCE700BF18
:104EE00000BF284604F028F800BF00BFFFF790FF7E
:104EF0000020208000BFCFE7F0B50C46022680F8E6
:104F00002A60012C05D19E4F466A3F683E44866167
:104F10000CE0066A2EB99A4F466A3F683E448661A5
:104F200004E0974F066A3F683E448661884F3F8899
:104F30008669B6FBF7FC07FB1C66B5B2914E06EB23
:104F4000C502166836B90026066146611060012662
:104F500096802CE08A4F86693F68F61BC66111680F
:104F600020E0874F8E693F68F61BCE61C669CF6926
:104F7000BE4209D90E690EB1096913E00026066127
:104F80004161086100210DE04E692EB9002646619D
:104F900001614861106004E04B694361016118617F
:104FA000486100210029DCD19688761C9680D6883D
:104FB0009788BE4201DA9688D680F0BDF0B5644E7F
:104FC00036888569B5FBF6F706FB1755ACB26D4D13
:104FD00005EBC4021568854205D10169116039B13C
:104FE00000254D6104E0416903690B6103B159611A
:104FF000012580F82A5000250561456195886D1EC0
:105000009580F0BD70B5044600255C480078012805
:1050100003D045F68960208070BD51480078FA2899
:1050200003DB45F209202080F6E700BF00BF03F054
:105030007FFF054600BF00BF49480078401C484933
:10504000087000BF00BF284603F076FF00BF00BF16
:105050000020208000BFDFE7F0B58E6896F837505B
:1050600007893FB90127078100274F600F60016062
:10507000416023E007897F1C0781026806E094688D
:1050800094F83770AF4200DD02E05268002AF6D192
:1050900000BF32B900274F6043680B605960416020
:1050A0000CE017682FB9116000270F604A6001609B
:1050B00004E013680B604A6059601160F0BD10B5E0
:1050C000C287016300236AE0409E0000CC9F00007D
:1050D0002C9F0000309F0000349F0000389F00008C
:1050E0003C9F0000409F0000449F0000489F00003C
:1050F0004C9F0000509F0000549F0000589F0000EC
:105100005C9F0000609F0000649F0000689F00009B
:105110006C9F0000889F00008C9F0000909F000003
:10512000949F0000989F00009C9F0000A09F00009B
:10513000A49F0000A89F0000AC9F0000B09F00004B
:10514000B49F0000B89F0000BC9F0000C09F0000FB
:10515000C49F0000C89F0000AC000010B400001005
:10516000E0000010DB000010D8DD00100C01001082
:1051700008010010E400001004ED00E0B50000108C
:10518000FC000010A8F1001000244C600C600C61C1
:105190004C610C83CC61886020315C1CA3B29342CB
:1051A000F2DB10BD30B5420900F01F030121C3F14D
:1051B0001F04A140F94C54F822408C43F74D45F8A8
:1051C000224030BDF0B5054695F8370000EB4000B1
:1051D000F34901EB80042F69EE6887B946B90020D6
:1051E00020812060606095F83700FFF7DBFF0EE05C
:1051F0002089401E208100203061266007E0208940
:10520000401E2081FE600EB9676000E0376100201B
:105210002861E860F0BD2DE9F04F0C4616461D46AA
:10522000042E1ED1DFF87C93D9F80090A4EB090975
:10523000A9F1010313F5803F0DD94FF00009C0F823
:105240004C90C0F85090C0F81C9047F27E29A5F809
:105250000090BDE8F08FC46403F10109C0F85090DC
:105260003FE084B3082E25D1D0F8489009EB04071D
:10527000DFF83093D9F80090A7EB0909A9F10103F1
:10528000A34201D2C76406E0DFF81893D9F8009072
:10529000A144C0F84C90DFF80CA3D0F84C90DAF899
:1052A00000A0A9EB0A09C0F85090D0F84C90C0F8C3
:1052B000489016E0DFF8EC92D9F80090A144C0F8CD
:1052C0004C9004650DE0FFE74FF00009C0F84C90EA
:1052D000C0F85090C0F81C9047F27E29A5F80090C5
:1052E000B7E7DFF8C4A2BAF800A0D0F84C90B9FB39
:1052F000FAFB0AFB1B991FFA89F8DFF8B09209EB59
:10530000C802B2F80490B9F1000F0BD14FF00009B8
:10531000C0F81490C0F8189010604FF00109A2F87E
:1053200004903EE0116834E0DFF878A2D1F84C90A8
:10533000DAF800A0A9EB0A09C1F85090D0F8509013
:10534000D1F850A0D1450ED9D1F81490B9F1000F81
:1053500001D049691DE04FF00009C0F81490816147
:105360004861002115E0D1F81890B9F1000F07D17C
:105370004FF00009C0F8189041618861106007E0A3
:10538000D1F818C0C0F818C04161CCF81400886189
:1053900000210029C8D1B2F8049009F10109A2F84E
:1053A0000490B2F80690B2F804A0D14503DAB2F83E
:1053B0000490A2F80690C2614FF00009A5F8009091
:1053C00000BF46E738B504460D4685B16B4602225C
:1053D00029462046FFF71FFFBDF8000018B903203B
:1053E00084F8360006E0022084F8360002E002204D
:1053F00084F836002046FFF7E5FE38BD2DE9F04180
:1054000005460C4616461F466948006880F8346019
:1054100000206749096881F835003946644800680A
:10542000FFF7D0FF6CB104F10808EC6001222946B7
:105430005F480068FFF743FE29464046FFF70CFE31
:1054400006E000205A490968C88759490968086375
:10545000BDE8F0812DE9F0470746884614461D4611
:105460004FF000090CB10020206000BF00BF03F026
:105470005FFD814600BF00BF4D480068406CD0B161
:105480004B480068406C401E4949096848644848D8
:105490000068466C1CB146480068006C206000BF84
:1054A00000BF484603F048FD00BF00BF0020288031
:1054B0003046BDE8F08718F4004F0BD000BF00BFA6
:1054C000484603F039FD00BF00BF46F2B010288007
:1054D0000020EEE73748007800280BDD00BF00BF52
:1054E000484603F029FD00BF00BF46F66350288000
:1054F0000020DEE700BF2F480078401C2D490870CF
:1055000000BF00BF484603F017FD00BF00BF00BF4B
:105510003B46072200210846FFF770FF00BF00BF8F
:1055200000BF03F005FD814600BF00BF21480078A1
:10553000401E2049087000BF00BF484603F0FCFC35
:1055400000BF00BF00BFFFF763FC00BF00BF03F058
:10555000EFFC814600BF00BF1548006890F8350099
:1055600020B101280AD0032826D110E01CB1104830
:105570000068006C20600020288021E01CB10C48ED
:105580000068006C206046F2A910288018E00CB179
:105590000020206047F2D920288011E0AC000010E4
:1055A000D8DD0010EC000010A49F000020EF0010D8
:1055B00008010010E000001046F62B60288000BFB4
:1055C00000BFFA480068466C00BF00BF484603F0C1
:1055D000B3FC00BF00BF30466BE71CB500BF4FE017
:1055E00001AB6A4600210846FFF734FF01A8FFF728
:1055F00009FD4FF0000AEE480068401CEC490860C5
:1056000008460068EB490988B0FBF1F201FB120083
:105610001FFA80F9E84800EBC9073C68D34621E04F
:10562000F4B1D4F81080E249A0690968884214D125
:105630002046FFF7C3FC208D022804D1012120461B
:10564000FFF75AFC02E0032084F82A00A56815B190
:105650002046E168A847444604E04FF0010B01E012
:105660004FF0010BBBF1000FDAD0CAF1000601A820
:10567000FFF708FCD1480068864201D9CF48066090
:10568000AEE710B5002400BF03F052FC044600BF93
:105690000020CB490870CB48CB490860CB48006854
:1056A000401CCA4908604FF08050C949086000BFDB
:1056B000204603F041FC00BF10BD10B590F8373014
:1056C00003EB4303C34C04EB83010B893BB9012378
:1056D0000B810023C36003610860486008E00B8908
:1056E0005B1C0B810023C3604A680261D060486084
:1056F00010BD30B5420900F01F030121C3F11F04A2
:10570000A140B54C54F822400C43B34D45F822401B
:1057100030BD70472DE9F04105460E46144600277E
:10572000AE480078002804DD46F663502080BDE8CE
:10573000F08136B1022E05D0042E0AD0082E09D1F0
:1057400001E000BF00BF1DB947F27E202080EEE7D8
:1057500004E003E045F625602080E8E700BF00BFD5
:1057600000BF00BF03F0E4FB074600BF00BF9B483B
:105770000078401C9949087000BF00BF384603F00C
:10578000DBFB00BF00BF00BF01208849096881F82A
:10579000360023463246294684480068FFF73BFD21
:1057A0002088A8B100BF00BF00BF03F0C1FB0746BF
:1057B00000BF00BF89480078401E8849087000BFBC
:1057C00000BF384603F0B8FB00BF00BF00BFAEE724
:1057D00076480068FFF7F6FC00BF00BF00BF03F08B
:1057E000A7FB074600BF00BF7C480078401E7B49EE
:1057F000087000BF00BF384603F09EFB00BF00BF2B
:1058000000BFFFF705FB0020208000BF8FE7704737
:1058100008B566480068FFF7FAFF00BF6A46002136
:105820006F480068FFF776FFF8E7F0B50446DDE95A
:10583000055602EB85004FF0807C071F3846C7F8FD
:1058400000C0071F38463C60AFF23B0C071F3846CC
:10585000C7F800C04FF0123C071F3846C7F800C019
:105860004FF0033C071F3846C7F800C04FF0023C1A
:10587000071F3846C7F800C0071F38463B60071FA0
:10588000384639604FF0113C071F3846C7F800C052
:105890004FF0103C071F3846C7F800C04FF0093CD6
:1058A000071F3846C7F800C04FF0083C071F3846AE
:1058B000C7F800C04FF0073C071F3846C7F800C0C4
:1058C0004FF0063C071F3846C7F800C04FF0053CB4
:1058D000071F3846C7F800C04FF0043C071F384682
:1058E000C7F800C0F0BD0021016081604160C16067
:1058F000016141618161C1613AA10162002141629E
:105900008162C1620164C165A0F860104166A0F8BF
:105910006C108166416481634167016781874FF044
:10592000004181640021C16401654165816580F8A1
:10593000341080F8351080F83610122180F83710B6
:1059400070472DE9FF4F85B0044690469946DDF833
:1059500054B0DDE912A5199E00200290BAF1000FA3
:1059600009D11848844206D046F273211A98018062
:1059700009B0BDE8F08FBAF1110F07D11B4884427E
:1059800004D046F273211A980180F1E72046FFF710
:10599000AAFF00211A98018016F0010F31D016F0ED
:1059A000020F2ED02F460020049027E0080100109F
:1059B000FC000010C49F0000A8F10010F8000010C7
:1059C000DB00001060DD00100C010010E40000108E
:1059D00004ED00E0D8DD0010AC000010E000001085
:1059E0008C9F00003F5461736B000000E8DC0010E6
:1059F000002038603F1D0498401C049004985845CE
:105A0000F6D3149805EB80000390CDE900B62A4642
:105A100049464046039BFFF708FF0746C4F8288025
:105A2000C4F82C900698206284F837A02760039869
:105A3000A06017986065189860606562C4F838B017
:105A4000A6872046FFF765FE00BF00BF00BF03F03A
:105A50006FFA029000BF00BFFB480078401CFA4973
:105A6000087000BF00BF029803F066FA00BF00BFD5
:105A700000BF94F83700FFF73CFE2046FFF71DFEFD
:105A8000F2480088401CF1490880F148007801285C
:105A90002DD000BF00BF00BF03F04AFA029000BF44
:105AA00000BFE9480078401EE749087008460078C2
:105AB000A0B9E8480088002809DD00BF00BF0298AF
:105AC00003F03AFA00BF00BFFFF7DBFD0DE000BFB7
:105AD00000BF029803F030FA00BF06E000BF00BF2D
