:10000000E0AE0010E9550100D9500100C5530100D0
:10001000ED5A0100F15A0100F55A0100C645F7EF0B
:10002000000000000000000000000000F95A01007C
:10003000FD5A010000000000DF7900006BCF0000D6
:10004000095B010015900000115B0100DFE5000075
:10005000195B0100096D0000DD6D00004F6E0000AE
:10006000236F000075FC0000315B0100355B01006F
:10007000395B01003D5B0100415B0100E54401008B
:10008000495B01004D5B0100515B0100555B0100C4
:10009000595B01005D5B0100615B0100655B010074
:1000A000695B01006D5B0100715B0100755B010024
:1000B000795B0100F7420100815B0100855B010073
:1000C000895B01008D5B0100915B0100F76F00000F
:1000D000995B01009D5B0100B9390100A55B01003E
:0400E000A95B010017
:1003000080B50020DFF8B0130978002945D1DFF867
:10031000AC030078002809D0DFF8A003007801289A
:1003200004D0DFF898030078022836D1DFF8840C77
:100330004088782831DBDFF87C0C00210180DFF871
:10034000740C00214180DFF8700C007802281ADA62
:10035000DA480078DA4951F8200003F015FE00234E
:10036000C0B2020092B2D5480078D54951F82010A9
:10037000012003F0C3FDDFF8400C0078401CDFF8DB
:10038000381C087009E0DFF8300C00210170DFF83C
:100390002C0C0021017004F04BFBDFF8200C0078DE
:1003A000002840F08E80DFF8180C0078002840F01C
:1003B0008880DFF8100C007801282FD1DFF8F40BCB
:1003C000007B08282ADBDFF8000C04F00EFDDFF8C4
:1003D000F40B00210170DFF8F40B00210170DFF84D
:1003E000D40B00210173DFF8E80B00214170DFF826
:1003F000E40B002180F8E513DFF8D80B002180F82A
:10040000E813DFF8D00B002180F8E413DFF8C80B05
:1004100000210170DFF8A40B01210170DFF8BC0B93
:100420000078012824D1DFF88C0BC088B0F5F07F6C
:100430001EDBDFF8AC0B0078002805D1DFF8A40B39
:1004400090F82700012803D1DFF89C0B04F0CDFCC5
:10045000DFF8880B00210170DFF8580B0021C18004
:10046000DFF8580B01210170DFF84C0B00210170FF
:10047000DFF8780B0078012823D1DFF8380B008BE8
:1004800050281EDBDFF8580B0078002805D1DFF874
:10049000540B90F82700012803D1DFF8540B04F027
:1004A000A4FCDFF8480B00210170DFF8080B0021E5
:1004B0000183DFF8080B01210170DFF8FC0A00213D
:1004C0000170DFF8300B90F84000012840F0958073
:1004D000DFF8200B807953281FD1DFF8F80A90F855
:1004E000E903012840F08980DFF80C0B0078002830
:1004F00040F08380DFF8DC0A002180F8E913DFF8A0
:10050000B40A00210180DFF8AC0A00214180DFF845
:10051000C40A012180F8E4136FE0DFF8B80A90F80C
:10052000E903012869D1DFF8D00A0078002864D1F6
:10053000DFF8A40A0078002843D1DFF8980A90F881
:10054000E603002838D0DFF8880A4078062803D16F
:10055000DFF87C0A00214170DFF8780A002180F87A
:10056000E913DFF8700A90F86100002816D1012322
:10057000DFF8600A90F8E22192B2DFF8801A0120D9
:1005800003F0BCFC0123DFF84C0A90F8E22192B2A0
:10059000DFF8681A002003F0B1FC07E0DFF8602AFA
:1005A000DFF8601ADFF82C0A05F0D6FDDFF8240A20
:1005B000012180F8E41314E0DFF8140A06214170E9
:1005C0000FE0DFF8100A002180F8E91305F012FFB0
:1005D000DFF8340A00210183DFF8F809012180F8EF
:1005E000E413DFF8D00900218182DFF8C809002177
:1005F0000180DFF8C00900214180DFF8100A00788F
:10060000062802D100F05EF836E0DFF8000A007834
:10061000052802D100F008FD2EE0DFF8F00900788F
:10062000042827D0DFF8E4090078032822D0DFF877
:10063000DC09007801281DD0DFF8D00900780728F0
:1006400018D0DFF8C8090078082813D0DFF8BC09F3
:10065000007802280ED0DFF8B4090078092809D004
:10066000DFF8A80900780A2804D0DFF8A00900788C
:100670000B2801D102F036FF01BD80B5DFF86029FB
:1006800001231370DFF858291278002A06D00A00D7
:1006900092B20100002004F09CFB0BE0DFF844293B
:1006A00092F82720012A05D10A0092B20100002009
:1006B00004F08FFB01BD0000C6A60010B9A6001013
:1006C0000C05001080B50022DFF8440900780C28E2
:1006D0004DD1DFF8E0084088B0F5167FC0F2CD813B
:1006E000DFF8D408007802282CDA00230122002148
:1006F000002005F0EBFFDFF8BC0800210180DFF8E7
:10070000B40800214180DFF808090078DFF80419F7
:1007100051F8200003F038FC02000023D2B292B25C
:10072000DFF8EC080078DFF8EC1851F82010012011
:1007300003F0E4FBDFF880080078401CDFF878184D
:1007400008709AE1DFF8880807214170DFF8640833
:1007500000210180DFF85C0800214180DFF85808A3
:1007600000210170DFF854080121017085E1DFF8F4
:10077000A0080078062809D0DFF8940800780A2835
:1007800004D0DFF88C0800780B282BD1DFF8240880
:1007900040882828C0F27181DFF81C080078022800
:1007A00017DADFF8100800210180DFF808080021BF
:1007B0004180DFF85C080078811FC9B2012003F096
:1007C000DAFEDFF8F4070078401CDFF8EC17087059
:1007D00053E1DFF8E40700210170DFF8E0070121B1
:1007E00001704AE1DFF8280800780E282AD1DFF8E6
:1007F000C4074088B0F5C87FC0F23F81DFF8B40776
:1008000000210180DFF8AC0700214180DFF8A80754
:10081000007802280DDADFF8DC078179012003F087
:100820001EFCDFF894070078401CDFF88C17087076
:1008300023E1DFF8840700210170DFF88007012140
:1008400001701AE1DFF8C8070078122846D1DFF8F6
:1008500064074088B0F5C87FC0F20F81DFF8540705
:1008600000210180DFF84C0700214180DFF84807B4
:10087000007802280DDADFF87C078179012003F087
:10088000EEFBDFF834070078401CDFF82C17087007
:10089000F3E0DFF83C0703214170DFF81C0700217B
:1008A0000170DFF8300790F86100012811D1DFF8FE
:1008B000600717210170DFF8600703F065FB020095
:1008C0000023D2B292B2DFF85017012003F016FBDA
:1008D000D3E0DFF83C0710210170CEE0DFF83007ED
:1008E0000078162837D1DFF8CC064088B0F5C87FED
:1008F000C0F2C380DFF8C006007802281ADA0023AD
:1009000002220021002005F0E1FE00230322DFF88F
:100910000C17012003F0F2FA00230222002100202C
:1009200005F0D4FEDFF890060078401CDFF888164A
:10093000087007E0DFF8800600210170DFF87C0610
:1009400001210170DFF86C0600210180DFF86406E8
:100950000021418091E0DFF8B806007809283AD1FB
:10096000DFF850064088A028C0F28780DFF84806EC
:100970000078022826DADFF83C0600210180DFF843
:10098000340600214180DFF888060078DFF88416FD
:1009900051F8200003F0F8FA02000023D2B292B21C
:1009A000DFF86C060078DFF86C1651F82010012093
:1009B00003F0A4FADFF800060078401CDFF8F81511
:1009C00008705AE0DFF8F00500210170DFF8EC054F
:1009D0000121017051E0DFF8380600780D284CD075
:1009E000DFF82C060078102847D0DFF824060078BE
:1009F000142842D0DFF81806007815283DD0DFF81B
:100A000010060078172838D0DFF8A8054088282875
:100A100033DBDFF8A4050078022826DADFF8940536
:100A200000210180DFF88C0500214180DFF8E0051E
:100A30000078DFF8E01551F8200003F0A5FA020075
:100A40000023D2B292B2DFF8C8050078DFF8C415EF
:100A500051F82010012003F051FADFF85C0500780E
:100A6000401CDFF85415087007E0DFF84C05002142
:100A70000170DFF8480501210170DFF840050078BA
:100A8000002840F04181DFF838050078002840F068
:100A90003B81DFF87C050078142804D0DFF870056E
:100AA000007815286AD1DFF81C050078002840F08E
:100AB0002B81DFF818050078012840F02581DFF848
:100AC000F404407B0428C0F21F81DFF8540504F0D1
:100AD0008CF903F05BFFDFF8F40400210170DFF80C
:100AE000D40400214173DFF8E80400214170DFF8ED
:100AF0003405002180F80114DFF82805002180F872
:100B00000014DFF82005002180F80214DFF8C40487
:100B1000002180F8E913DFF8BC04002180F8E51318
:100B2000DFF8B004002180F8E813DFF8A804002102
:100B300080F8E413DFF8A00400210170DFF8D0048E
:100B400016210170002302220021002005F0BEFDC5
:100B500000230322DFF8C414012003F0CFF900239F
:100B600002220021002005F0B1FDDFF84804002139
:100B70000180DFF8400400214180C5E0DFF89004E7
:100B800000780D38072880F0B580DFF83804007849
:100B9000002840F0B980DFF834040078012840F0E4
:100BA000B380DFF81004407B0428C0F2AD80DFF88A
:100BB000700404F01AF903F0E9FEDFF810040021D4
:100BC0000170DFF8F00300214173DFF858040021C1
:100BD00080F80114DFF84C04002180F80014DFF8DD
:100BE0004404002180F80214DFF8E803002180F8B3
:100BF000E913DFF8DC0300214170DFF8D80300219E
:100C000080F8E513DFF8CC03002180F8E813DFF863
:100C1000C403002180F8E413DFF8D8038079552855
:100C200004D0DFF8D0038079562828D1DFF8C80334
:100C30000078002868D1DFF87C0300210180DFF80C
:100C4000740300214180DFF8C8030D210170DFF833
:100C5000C0030078DFF8BC1351F8200003F094F9CA
:100C600002000023D2B292B2DFF8A4030078DFF8CA
:100C7000A41351F82010012003F040F944E0DFF8FC
:100C800078030078002805D1DFF8480390F8610068
:100C9000012809D0DFF8280B0078012804D0DFF8FC
:100CA0003803007801282FD1DFF8140B00210170E0
:100CB000C04800210180BF4800214180DFF8500377
:100CC00010210170DFF848030078DFF8481351F86D
:100CD000200003F059F902000023D2B292B2DFF8EB
:100CE00030030078DFF82C1351F82010012003F0B6
:100CF00005F909E0C64800780D2805DAB348002157
:100D00000170AC4800214173BA4890F840000028B7
:100D10003DD1B8488079552804D0B6488079562806
:100D200040F04681BF4890F80204012840F040811D
:100D3000DFF8900A04F059F8BA48002180F802144C
:100D4000B84890F8040403280ADBB648002180F86C
:100D5000041499480021017098480121017027E18D
:100D6000B04890F80404401CAE4981F80404DFF850
:100D7000500A0121017095480078002840F0188140
:100D80009248012101708B480021417310E199487C
:100D90008079552803D09748807956283DD1A148BD
:100DA00090F80204012840F003818248008AB0F5DF
:100DB000FA5FC0F2FD80DFF8100A04F016F87D48F3
:100DC000002101829748002180F80214954890F88C
:100DD000040403280ADB9348002180F804147648B1
:100DE00000210170754801210170E1E08D4890F803
:100DF0000404401C8B4981F80404DFF8C409012174
:100E0000017072480078002840F0D2806F480121BC
:100E10000170684800214173CAE076488079532800
:100E200028D16C4890F8E803012840F0C180694857
:100E300090F8E703002840F0BB805E48008AB0F5D8
:100E4000FA5FC0F2B580DFF8840903F0CEFF59489D
:100E500000210182DFF86809012101705B480078F8
:100E6000002840F0A5805948012101705148002117
:100E700041739DE0574890F8E403012874D14D4830
:100E8000808AB0F5167F6FDB5248002180F8E413AA
:100E900048480021818247480021018045480021BF
:100EA00041804C4890F8E503002832D1494890F839
:100EB000E503401C474981F8E503474800780028CE
:100EC0001DD1444890F86100002812D10123414807
:100ED00090F8E22192B24949012003F00FF8012372
:100EE0003C4890F8E22192B24449002003F006F811
:100EF0000AE0434A4349374805F02EF904E005F07B
:100F000079FA4148002101833248012180F8E41335
:100F10002AE0DFF8BC0803F068FF2E48002180F8C3
:100F2000E5132C48002180F8E4132A4890F861006A
:100F3000012804D1DFF88808012101700AE0DFF8F8
:100F400080080021017024480078012802D122483D
:100F5000002101701D480078002805D11B4801219F
:100F600001701448002141731A4890F8E8030128E1
:100F70001ED1184890F8E703002819D10D48008ABF
:100F8000B0F5FA6F14DBDFF8440803F02EFF0948D0
:100F900000210182DFF82808012101700B48007848
:100FA000002805D109480121017002480021417340
:100FB00001BD000038A50010C8A60010C4A600108E
:100FC000BEA60010BFA6001054470100C0A6001026
:100FD000ECA500100C8C0010CCA60010C1A60010CF
:100FE000C7A6001098A20010A04A0100C2A60010D7
:100FF000C04A0100AC990010CBA60010EE8C001086
:101000004C8C00102C8C001000A50010BDA6001008
:10101000BAA6001010030010DC040010A405001094
:10102000A04901000470001080B50020DFF8A4176B
:10103000097807293FD1DFF8A0074088B0F5487F3D
:10104000C0F23D81DFF8900700210180DFF88807BA
:1010500000214180DFF88407007802281EDADFF8DB
:1010600074070078DFF8781751F8200002F08CFF41
:101070000023C0B2020092B2DFF858070078DFF810
:10108000601751F82010012002F038FFDFF84C07FC
:101090000078401CDFF84417087010E1DFF84407BF
:1010A00007214170DFF8340700210170DFF83807AD
:1010B0000121017003E1DFF81C070078052804D046
:1010C000DFF81007007806282BD1DFF80C074088DE
:1010D0002828C0F2F480DFF804070078022817DA25
:1010E000DFF8F40600210180DFF8EC0600214180E2
:1010F000DFF8E0060078011FC9B2012003F0B0FA62
:10110000DFF8D8060078401CDFF8D0160870D6E06B
:10111000DFF8C80600210170DFF8CC06012101705C
:10112000CDE0DFF8B00600780D2839D1DFF8A80649
:101130004088B0F5487FC0F2C280DFF89C060021ED
:101140000180DFF8940600214180DFF890060078E6
:1011500002280DDADFF894068179012003F04FF8B8
:10116000DFF878060078401CDFF870160870A6E0FB
:10117000DFF8700603214170DFF86006002101707E
:10118000DFF86C0690F86100012804D1DFF85806FA
:101190000121017093E0DFF83C060C2101708EE024
:1011A000DFF830060078112837D1DFF82C064088A8
:1011B000B0F5C87FC0F28380DFF8200600780228EF
:1011C0001ADA002302220021002005F07FFA002312
:1011D0000322DFF82016012002F090FE00230222F5
:1011E0000021002005F072FADFF8F0050078401CBD
:1011F000DFF8E815087007E0DFF8E005002101706E
:10120000DFF8E40501210170DFF8CC050021018041
:10121000DFF8C4050021418051E0DFF8B80500780F
:1012200009284CD0DFF8AC0500780C2847D0DFF84F
:10123000A40500780F2842D0DFF898050078102820
:101240003DD0DFF8B4050078122838D0DFF88805E3
:101250004088282833DBDFF884050078022826DA66
:10126000DFF8740500210180DFF86C050021418062
:10127000DFF860050078DFF8681551F8200002F00B
:1012800083FE0023C0B2020092B2DFF84805007866
:10129000DFF84C1551F82010012002F02FFEDFF886
:1012A0003C050078401CDFF83415087007E0DFF8D3
:1012B0002C0500210170DFF8300501210170DFF8F5
:1012C00028050078002840F03681DFF830050078E6
:1012D000002840F03081DFF8FC0400780F2804D0AB
:1012E000DFF8F0040078102871D1DFF814050078D9
:1012F000002840F02081DFF80C050078012840F03C
:101300001A81DFF8D404407B0428C0F21481DFF88E
:10131000F80403F06AFD03F039FBDFF8E80400216C
:101320000170DFF8B40400214173DFF8B804002134
:101330004170DFF8D804002180F80114DFF8CC04F4
:10134000002180F80014DFF8C404002180F80214A2
:10135000DFF89C04002180F8E913DFF894040021F1
:1013600080F8E513DFF88804002180F8E813DFF83F
:101370008004002180F8E413DFF894040021017058
:10138000DFF8500411210170002302220021002007
:1013900005F09CF900230322DFF85814012002F025
:1013A000ADFD00230322DFF84C14002002F0A6FD5F
:1013B000002302220021002005F088F9DFF818043C
:1013C00000210180DFF8100400214180B3E0DFF844
:1013D000040400780938072880F0A380DFF8F403BC
:1013E00000780B2800F09D80DFF8140400780028B6
:1013F00040F0A180DFF80C040078012840F09B80C9
:10140000DFF8D403407B0428C0F29580DFF8F803AE
:1014100003F0EBFC03F0BAFADFF8E80300210170F7
:10142000DFF8B40300214173DFF8B80300214170F5
:10143000DFF8D803002180F80114DFF8D003002181
:1014400080F80014DFF8C403002180F80214DFF8EC
:10145000A003002180F8E913DFF89403002180F84D
:10146000E513DFF88C03002180F8E813DFF8800330
:10147000002180F8E413DFF874038079552804D044
:10148000DFF868038079562817D1DFF888030078E1
:10149000002850D1DFF8400300210180DFF8380335
:1014A00000214180DFF82C0309210170DFF83C03A3
:1014B0008179012002F0A3FE3DE0DFF858030078B7
:1014C000002805D1DFF8280390F86100012808D032
:1014D000BB480078012804D0DFF8340300780128E5
:1014E00029D1B74800210170BB4800210180BA48CA
:1014F00000214180B7480C210170B6480078B849F6
:1015000051F8200002F040FD0023C0B2020092B268
:10151000B0480078B24951F82010012002F0EEFCEA
:1015200009E0AC480078082805DAB64800210170C7
:10153000A94800214173AD4890F8400000283BD1F4
:10154000AA488079552804D0A8488079562840F0C8
:101550003581AE4890F80204012840F02F81994867
:1015600003F043FCA948002180F80214A74890F832
:10157000040403280ADBA548002180F804149748D6
:101580000021017098480121017017E19F4890F8EF
:101590000404401C9D4981F804048948012101701C
:1015A00098480078002840F0098196480121017090
:1015B00089480021417301E18C488079552803D086
:1015C0008A48807956283BD1904890F80204012837
:1015D00040F0F4808048008AB0F5FA5FC0F2EE80F7
:1015E000794803F002FC7C480021018287480021F1
:1015F00080F80214854890F8040403280ADB834825
:10160000002180F8041475480021017076480121FA
:101610000170D3E07D4890F80404401C7B4981F8B8
:10162000040467480121017076480078002840F0E2
:10163000C580744801210170674800214173BDE0F5
:101640006A488079532826D1694890F8E803012830
:1016500040F0B480664890F8E703002840F0AE8080
:101660005D48008AB0F5FA5FC0F2A880574803F0E1
:10167000BCFB594800210182514801210170614899
:101680000078002840F09A805E480121017052489D
:101690000021417392E0564890F8E40301286BD191
:1016A0004D48808AB0F5167F66DB5148002180F8EE
:1016B000E4134948002181824D4890F8E503002851
:1016C00032D14B4890F8E503401C494981F8E503C5
:1016D0004F48007800281DD1454890F86100002847
:1016E00012D10123424890F8E22192B24A490120E6
:1016F00002F004FC01233E4890F8E22192B24649F0
:10170000002002F0FBFB0AE0444A4549384804F057
:1017100023FD04E004F06EFE4248002101833448BA
:10172000012180F8E41327E0294803F05EFB3048EC
:10173000002180F8E5132E48002180F8E4132C489E
:1017400090F86100012803D11D480121017009E0D2
:101750001B48002101702E480078012802D12C4836
:101760000021017027480078002805D12548012173
:1017700001701948002141731D4890F8E8030128C1
:101780001CD11B4890F8E703002817D11248008AA3
:10179000B0F5FA6F12DB0D4803F027FB0E4800216D
:1017A000018207480121017016480078002805D100
:1017B00014480121017008480021417301BD000057
:1017C000CDA600101C4D010080470100E04A010039
:1017D000004B0100BBA6001038A50010C8A60010E1
:1017E000A4030010ECA50010C4A60010AC990010D2
:1017F0000C8C0010A4050010BAA60010BEA60010A4
:10180000BFA60010C0A60010C4490100047000105B
:10181000CCA60010CBA60010EE8C00104C8C001053
:101820002C8C001000A50010F0B5ADF2144D040092
:101830000D00002100200026002700235FF0000C8F
:10184000634604E09BB204A8002119545B1C9BB2C0
:10185000B3F5806FF6DB0027288892B282420AD067
:10186000288892B2904202D22888171A03E012F513
:1018700000602988471ABFB2B7F5806F01DD4FF4C9
:101880008067DFF8140B007800282ED0022800F0C3
:10189000D381C0F03C81042800F05682C0F054820D
:1018A000062800F07D83C0F0CF82082800F09F84D6
:1018B000C0F027840A2800F0C285C0F0FE840C28FE
:1018C00001F06780C0F03E870E2801F07582C1F0FC
:1018D0006281102801F07B83C1F04C82122801F054
:1018E000E984C1F0EA8301F0BABDDFF8B00A0088EC
:1018F0002828C0F20A81DFF8A80A4078002802D020
:101900006FA003F072FADFF8940A0021018000232F
:1019100010E02888005D9BB204A958542888401C18
:10192000288028884FF4006190FBF1F202FB11023D
:101930002A805B1C9BB2BFB2BB42EAD3390089B29A
:1019400004A8FEF79AFE05233A0092B2DFF8541A73
:1019500004A802F039FB002800F0D780DFF83C0A29
:1019600000210180DFF8340A00214180DFF8380AC5
:10197000007802281FDADFF8200A0078DFF82C1A36
:1019800051F8200002F000FB06000023F6B23200FE
:1019900092B2DFF8040A0078DFF8101A51F820102C
:1019A000012002F0ABFADFF8000A0078401CDFF8F3
:1019B000F8190870A9E0DFF8F8090078002805D1C7
:1019C000DFF8F00990F82700012803D1DFF8E809D3
:1019D00003F00BFADFF8E4094078022803D1DFF8BE
:1019E000DC0900214170DFF8D8090078072804D00D
:1019F000DFF8CC090078082820D1DFF8AC090021F5
:101A00000170DFF8940904210170DFF88C09007877
:101A1000DFF8981951F8200002F0B6FA060000230A
:101A2000F6B2320092B2DFF870090078DFF87C1964
:101A300051F82010012002F061FA66E0DFF8800919
:101A40000078032809D0DFF878090078092804D045
:101A5000DFF86C0900780A2819D1DFF84C09002159
:101A60000170DFF834090078801CDFF82C19087049
:101A70000023F6B2320092B2DFF81C090078DFF8DA
:101A80002C1951F82010012002F038FA3DE0DFF85F
:101A9000300900780B2815D1DFF80C0900210170FE
:101AA000DFF8F4080078401CDFF8EC180870002319
:101AB0000622DFF81019012002F020FA25E000BF0D
:101AC00031000000DFF8E00800210170DFF8C808ED
:101AD0000078401CDFF8C0180870DFF8BC080078F8
:101AE000DFF8C81851F8200002F04EFA0600002373
:101AF000F6B2320092B2DFF8A0080078DFF8AC1836
:101B000051F82010012002F0F9F901F0A8BCDFF82B
:101B10008C0800880828C0F28D80002310E02888F7
:101B2000005D9BB204A958542888401C288028884E
:101B30004FF4006190FBF1F202FB11022A805B1C62
:101B40009BB2BFB2BB42EAD3390089B204A8FEF708
:101B500094FD02233A0092B2DFF8E81D04A802F0D7
:101B600033FA002827D0DFF8340800210180DFF89D
:101B70002C0800214180DFF820080078401CDFF8A5
:101B800018180870DFF810080078DFF8201851F8EE
:101B9000200002F0F9F906000023F6B2320092B2FA
:101BA000DFF8F4070078DFF8041851F8201001205E
:101BB00002F0A4F93EE005233A0092B2DFF8E41DFA
:101BC00004A802F001FA002834D0DFF8D007002181
:101BD0000180DFF8C80700214180DFF8CC070078DA
:101BE00002281FDADFF8B0070078DFF8C01751F8D5
:101BF000200002F0C9F906000023F6B2320092B2CA
:101C0000DFF894070078DFF8A41751F820100120BE
:101C100002F074F9DFF890070078401CDFF88817AD
:101C2000087007E0DFF8800700210170DFF8780D09
:101C30000121017001F013BCDFF86007008808285B
:101C4000C0F28080002310E02888005D9BB204A9C8
:101C500058542888401C288028884FF4006190FB45
:101C6000F1F202FB11022A805B1C9BB2BFB2BB42A5
:101C7000EAD3390089B204A8FEF7FFFC02233A0038
:101C800092B2DFF8C01C04A802F09EF9002813D01D
:101C9000DFF8080700210180DFF8000700214180FC
:101CA000DFF8F4060078401CDFF8EC16087000211D
:101CB000012002F025FD45E005233A0092B2DFF84D
:101CC000E41C04A802F080F900283BD0DFF8CC0621
:101CD00000210180DFF8C40600214180DFF8C8063A
:101CE000007802281FDADFF8B0060078DFF8BC16AB
:101CF00051F8200002F048F906000023F6B2320045
:101D000092B2DFF894060078DFF8A01651F82010A0
:101D1000012002F0F3F8DFF890060078401CDFF8AD
:101D2000881608700EE0DFF8800600210170DFF8E9
:101D300068060078401CDFF860160870002101205A
:101D400002F0DEFC01F08BBBDFF8500600880828AB
:101D500078DB002310E02888005D9BB204A958546A
:101D60002888401C288028884FF4006190FBF1F2FD
:101D700002FB11022A805B1C9BB2BFB2BB42EAD3BA
:101D8000390089B204A8FEF778FC02233A0092B227
:101D9000DFF8B01B04A802F017F9002827D0DFF8FD
:101DA000FC0500210180DFF8F40500214180DFF807
:101DB000E8050078401CDFF8E0150870DFF8D8056A
:101DC0000078DFF8E81551F8200002F0DDF8060091
:101DD0000023F6B2320092B2DFF8BC050078DFF8DB
:101DE000CC1551F82010012002F088F82AE00523D4
:101DF0003A0092B2DFF8AC1B04A802F0E5F8002824
:101E000020D0DFF8980500210180DFF8900500213F
:101E10004180DFF89405007802280BDA00210120C8
:101E200002F06EFCDFF880050078401CDFF87815C2
:101E3000087007E0DFF8700500210170DFF8680B1B
:101E40000121017001F00BBBDFF85005008810285C
:101E5000C0F2A480002310E02888005D9BB204A992
:101E600058542888401C288028884FF4006190FB33
:101E7000F1F202FB11022A805B1C9BB2BFB2BB4293
:101E8000EAD3390089B204A8FEF7F7FB06233A002B
:101E900092B2DFF8201C04A802F096F80100C9B243
:101EA00000297BD0491EC9B204A80818093004F0E3
:101EB00035FCC0B2012802D0C0B205282BD1DFF812
:101EC000F80B00210170DFF8D40400210180DFF855
:101ED000CC0400214180DFF8C0040078401CDFF80A
:101EE000B8140870DFF8B0040078DFF8C01451F8B7
:101EF000200002F049F806000023F6B2320092B248
:101F0000DFF894040078DFF8A41451F820100120C1
:101F100001F0F4FF42E0DFF8900400210170DFF8E7
:101F20007C0400210180DFF8740400214180DFF887
:101F3000880B0078401CDFF8801B0870DFF8780BF6
:101F400000781F282ADBDFF8700B00210170DFF812
:101F50004C0400210180DFF8440400214180DFF8B7
:101F600038040078401CDFF830140870DFF82804CB
:101F70000078DFF8381451F8200002F005F8060068
:101F80000023F6B2320092B2DFF80C040078DFF8DA
:101F90001C1451F82010012001F0B0FF01F05FBACD
:101FA000DFF8F80300882828C0F2A980002310E099
:101FB0002888005D9BB204A958542888401C2880BA
:101FC00028884FF4006190FBF1F202FB11022A8095
:101FD0005B1C9BB2BFB2BB42EAD3390089B204A8F2
:101FE000FEF74BFB05233A0092B2DFF8D01A04A8A3
:101FF00001F0EAFF0100C9B200294BD0491EC9B265
:1020000004A80818801D04F089FBDFF8B013497894
:10201000012903D1DFF8A40300214170DFF87C031C
:1020200000210180DFF8740300214180DFF878038C
:1020300000210170DFF888030078072804D0DFF85A
:102040008003007808280BD1DFF84C030078801C4F
:10205000DFF8441308700121012002F051FB4EE02B
:10206000CD480078401CCC490870CB480078CF4957
:1020700051F8200001F088FF06000023F6B232007C
:1020800092B2C5480078C94951F82010012001F0EA
:1020900035FF34E005233A0092B2DFF8081904A8AE
:1020A00001F092FF00282AD0BC4800210180BB48E3
:1020B00000214180BC480078022819DAB64800782F
:1020C000BA4951F8200001F05FFF06000023F6B284
:1020D000320092B2B0480078B44951F82010012083
:1020E00001F00CFFB0480078401CAF49087006E0D2
:1020F000AD4800210170DFF8B0080121017001F046
:10210000AEB9A648008850286FDB002310E028886D
:10211000005D9BB204A958542888401C2880288858
:102120004FF4006190FBF1F202FB11022A805B1C6C
:102130009BB2BFB2BB42EAD3390089B204A8FEF712
:102140009CFA02233A0092B2DFF8F81704A801F0D3
:102150003BFF00280FD09148002101808F480021CB
:1021600041808D480078401C8B4908700121012076
:1021700002F0C6FA39E005233A0092B2DFF82418DB
:1021800004A801F021FF00282FD0844800210180FD
:1021900082480021418084480078022819DA7E486C
:1021A0000078824951F8200001F0EEFE060000237D
:1021B000F6B2320092B2784800787C4951F820108B
:1021C000012001F09BFE78480078401C7649087099
:1021D0000BE07548002101706F480078401C6E4983
:1021E00008700121012002F08BFA01F038B96B4828
:1021F000008808285FDB002310E02888005D9BB280
:1022000004A958542888401C288028884FF400616D
:1022100090FBF1F202FB11022A805B1C9BB2BFB261
:10222000BB42EAD3390089B204A8FEF726FA02239A
:102230003A0092B2DFF80C1704A801F0C5FE00289E
:102240000FD0564800210180544800214180524857
:102250000078401C504908700221012002F050FA19
:1022600029E005233A0092B2DFF8381704A801F0FC
:10227000ABFE00281FD049480021018047480021BB
:10228000418049480078022809DA0121012002F042
:1022900037FA45480078401C434908700BE0424833
:1022A000002101703C480078401C3B490870022125
:1022B000012002F025FA01F0D2B838480088082839
:1022C000C0F2BB80002310E02888005D9BB204A907
:1022D00058542888401C288028884FF4006190FBBF
:1022E000F1F202FB11022A805B1C9BB2BFB2BB421F
:1022F000EAD3390089B204A8FEF7BFF902233A00F5
:1023000092B2DFF8401604A801F05EFE00285BD010
:102310002B480078072803D02948007808281CD1CA
:102320002148002101701D48002101801B48002127
:10233000418019480078401C17490870DFF8880D63
:1023400001F022FE06000023F6B2320092B2DFF85E
:10235000781D012001F0D2FD6FE0134800210170CB
:102360000E48002101800D48002141800A481221B9
:102370000170DFF80C0E01F007FE06000023F6B234
:10238000320092B2DFF8F81D012001F0B7FDDFF84E
:10239000F40D0021017050E0BCA6001038A500101B
:1023A000CCA500108C050010C8A60010E00300109A
:1023B000C7A6001098A200106C510100ECA50010F7
:1023C000BDA600105858010005233A0092B2DFF86C
:1023D000D41504A801F0F8FD00282ED0DFF8A80DD0
:1023E00000210180DFF8A00D00214180DFF89C0D65
:1023F000007802280BDA0221012002F081F9DFF8CF
:102400008C0D0078401CDFF8841D087015E0DFF8A3
:102410007C0D00210170DFF8EC0D12210170DFF856
:10242000600D01F0B1FD06000023F6B2320092B259
:10243000DFF84C1D012001F061FD01F010B8DFF85C
:10244000480D00887828C0F27B81002310E028889E
:10245000005D9BB204A958542888401C2880288815
:102460004FF4006190FBF1F202FB11022A805B1C29
:102470009BB2BFB2BB42EAD3390089B204A8FEF7CF
:10248000FCF802233A0092B2DFF8B81404A801F075
:102490009BFD00284DD0DFF8F00C00210180DFF813
:1024A000E80C00214180DFF8DC0C007800281FD107
:1024B000DFF8500D0078401CDFF8481D0870DFF889
:1024C000440D0078DFF8401D51F8200001F05CFD5C
:1024D00006000023F6B2320092B2DFF8280D007831
:1024E000DFF8241D51F82010012001F007FD27E13D
:1024F000DFF8900C00210170DFF8080D0C2101704D
:10250000DFF8000D0078DFF8001D51F8200001F021
:102510003BFD06000023F6B2320092B2DFF8E40C75
:102520000078DFF8E41C51F82010012001F0E6FCEF
:1025300006E105233A0092B2DFF8681404A801F01E
:1025400043FD002800F0E380DFF83C0C002101800F
:10255000DFF8340C00214180DFF8300C00780228CD
:1025600080F2BA80DFF8600D0078072804D0DFF829
:10257000580D0078082839D1DFF84C0D007807286D
:1025800016D1DFF8080C0078002806D100230522B8
:102590000021002004F09AF80AE0DFF8F00B007840
:1025A000012805D100230A220021002004F08EF822
:1025B000DFF8D40B00210180DFF8CC0B0021418033
:1025C000DFF8040B01F0E0FC06000023F6B2320055
:1025D00092B2DFF8F41A012001F090FCDFF8AC0BA6
:1025E0000078401CDFF8A41B0870A9E0DFF8D80CC5
:1025F00000780B2809D0DFF8D00C0078032804D02D
:10260000DFF8C40C0078092846D1DFF8800B007889
:1026100000280ED1002305220021002004F056F8E6
:10262000DFF8640B00210180DFF85C0B00214180A2
:1026300012E0DFF8580B007801280DD100230A22A0
:102640000021002004F042F8DFF83C0B002101805B
:10265000DFF8340B00214180DFF8A80B0078DFF8A9
:10266000A81B51F8200001F08FFC06000023F6B2F1
:10267000320092B2DFF88C0B0078DFF88C1B51F837
:102680002010012001F03AFCDFF8000B0078401C1C
:10269000DFF8F81A087053E0DFF8680B0078DFF80D
:1026A000681B51F8200001F06FFC06000023F6B211
:1026B000320092B2DFF84C0B0078DFF84C1B51F877
:1026C0002010012001F01AFCDFF8C00A0078401C3D
:1026D000DFF8B81A087033E0DFF8880D00780028BA
:1026E00005D1DFF8840D90F82700012803D1DFF829
:1026F0007C0D02F07AFBDFF8780D07214170DFF8DE
:102700008C0A00210170A8480121017018E0F6B27E
:1027100033009BB23A0092B2DFF8E80A0078DFF8A3
:10272000E81A51F8201004A801F04EFC002807D048
:10273000DFF8540A00210180DFF84C0A00214180B3
:1027400000F08DBEDFF8400A00880828C0F21F8123
:10275000002310E02888005D9BB204A95854288803
:10276000401C288028884FF4006190FBF1F202FBA6
:1027700011022A805B1C9BB2BFB2BB42EAD3390074
:1027800089B204A8FDF779FF02233A0092B26D499D
:1027900004A801F019FC002800F0A780DFF8C40CA1
:1027A0000078002805D1DFF8C00C90F82700012838
:1027B00003D1DFF8C00C02F018FBDFF8B40C40784E
:1027C000072803D1DFF8A80C00214170DFF8B80911
:1027D00000210180DFF8B00900214180DFF8240AE0
:1027E0000078401CDFF81C1A0870DFF88C0C807928
:1027F000552804D0DFF8800C8079562823D1DFF8E3
:102800007C0C0078002840F0C280DFF8F8090078DE
:10281000DFF8F41951F8200001F0B6FB06000023A0
:10282000F6B2320092B2DFF8DC090078DFF8D8198E
:1028300051F82010012001F061FBDFF8440C002169
:1028400080F80414A3E0DFF8300C90F84000002872
:102850001ED1DFF8280C0078002840F09880DFF8BF
:10286000A4090078DFF8A01951F8200001F08CFBD2
:1028700006000023F6B2320092B2DFF88809007831
:10288000DFF8841951F82010012001F037FB7EE0B9
:10289000DFF8E80B0078002805D1DFF8E80B90F8A6
:1028A0006100012804D0DFF8E00B007801286ED128
:1028B000DFF8D40B00210170DFF848090078DFF859
:1028C000481951F8200001F05FFB06000023F6B222
:1028D000320092B2DFF82C090078DFF82C1951F899
:1028E0002010012001F00AFB51E0DFF89C080021D4
:1028F0000180DFF8940800214180DFF8900800781B
:10290000022821DADFF8FC080078DFF8FC1851F81B
:10291000200001F039FB06000023F6B2320092B22B
:10292000DFF8E0080078DFF8E01851F82010012007
:1029300001F0E4FADFF854080078401CDFF84C1886
:10294000087024E0A8050010DFF84008002101709D
:10295000DFF8B0080078401CDFF8A8180870DFF82E
:10296000A4080078DFF8A01851F8200001F00CFB53
:1029700006000023F6B2320092B2DFF88808007831
:10298000DFF8841851F82010012001F0B7FA00F0A8
:1029900066BDDFF8F40700880828C0F2FA8000233B
:1029A00015E000BF7C050010C4A600102888005D5B
:1029B0009BB204A958542888401C288028884FF4CA
:1029C000006190FBF1F202FB11022A805B1C9BB2BA
:1029D000BFB2BB42EAD3390089B204A8FDF74DFE6D
:1029E00002233A0092B2DFF8A41A04A801F0ECFA2C
:1029F000002800F09980DFF8900700210180DFF8BF
:102A0000900A0078012804D1DFF8880A01210170BA
:102A1000BFE0DFF8680A0078002840F0BA80DFF8ED
:102A2000680700214180DFF85C070078012847D162
:102A3000DFF894080078072804D0DFF88C080078C5
:102A4000082823D1DFF8300A8079552804D0DFF830
:102A5000280A807956280AD1DFF8A8070D210170CD
:102A6000DFF8140A8179012001F08DFC91E0DFF894
:102A7000180A00210170DFF88C070E210170DFF8C1
:102A8000F8098179012001F07EFC82E0DFF874070B
:102A900012210170DFF8E80601F076FA0600002343
:102AA000F6B2320092B2DFF8D816012001F026FA11
:102AB0006FE000BF74050010B6A600106C05001092
:102AC000DFF8B4098079552804D0DFF8AC098079A3
:102AD00056280AD1DFF82C070D210170DFF898097C
:102AE0008179012001F04FFC53E0DFF89009007874
:102AF000002805D1DFF88C0990F86100012804D086
:102B0000DFF884090078012843D1DFF87C0900212F
:102B10000170DFF8F0060E210170DFF85C098179A1
:102B2000012001F030FC34E0DFF860060078022874
:102B30002BDADFF8540600210180DFF84C06002173
:102B40004180DFF848060078401CDFF84016087026
:102B5000DFF8B0060C210170DFF8A8060078DFF876
:102B6000A81651F8200001F00FFA06000023F6B273
:102B7000320092B2DFF88C060078DFF88C1651F83C
:102B80002010012001F0BAF903E0DFF80809012163
:102B9000017000F064BCDFF8F00500887828C0F20E
:102BA000E880002310E02888005D9BB204A95854F7
:102BB0002888401C288028884FF4006190FBF1F29F
:102BC00002FB11022A805B1C9BB2BFB2BB42EAD35C
:102BD000390089B204A8FDF750FDDFF82806007817
:102BE000DFF8241651F8200001F0CEF90600072383
:102BF0003A0092B2DFF8A01804A801F0E5F9002825
:102C00004BD0DFF860080078002805D1DFF85808BD
:102C100090F82700012803D1DFF8800802F0E5F8DA
:102C2000DFF8640500210180DFF85C0500214180A8
:102C3000DFF8D0050F2101700020039000200290E2
:102C4000DFF85C080190DFF85C080090DFF8583886
:102C5000DFF858280321DFF8200890F8400002F040
:102C600059FC322300220021002003F02FFD002018
:102C7000039000200290002001900020009000238B
:102C800000220721DFF8F00790F8400002F042FC34
:102C9000DFF8F4040021C1826BE005233A0092B210
:102CA000DFF80C1804A801F08FF900284CD0DFF8E9
:102CB000D80400210180DFF8D00400214180DFF832
:102CC000CC040078022827DADFF8B804012101706B
:102CD000DFF830050C210170DFF828050078DFF8F7
:102CE000281551F8200001F04FF906000023F6B234
:102CF000320092B2DFF80C050078DFF80C1551F8BD
:102D00002010012001F0FAF8DFF880040078401C60
:102D1000DFF8781408702CE0DFF848070078002806
:102D200005D1DFF8440790F82700012803D1DFF828
:102D3000840702F05AF8DFF8540400210170DFF82C
:102D400054070121017014E0F6B233009BB23A003F
:102D500092B2DFF8B0040078DFF8AC1451F820101C
:102D600004A801F031F9002803D0DFF81C04002189
:102D7000018074E3002310E02888005D9BB204A961
:102D800058542888401C288028884FF4006190FB04
:102D9000F1F202FB11022A805B1C9BB2BFB2BB4264
:102DA000EAD3DFF8DC06012180F80014390089B28B
:102DB00004A802F0C1FE52E3DFF8CC0300887828B3
:102DC000C0F20481002310E02888005D9BB204A9B2
:102DD00058542888401C288028884FF4006190FBB4
:102DE000F1F202FB11022A805B1C9BB2BFB2BB4214
:102DF000EAD3390089B204A8FDF73FFCDFF80404E8
:102E00000078DFF8041451F8200001F0BDF8060046
:102E10000A233A0092B2DFF8A01604A801F0D4F811
:102E2000002831D0DFF83C060078002805D1DFF813
:102E3000380690F82700012803D1DFF8800601F05A
:102E4000D4FFD14800210180CF4800214180DFF824
:102E5000B4030C210170DFF8AC030078DFF8A8138D
:102E600051F8200001F090F806000023F6B232007D
:102E700092B2DFF890030078DFF88C1351F820103D
:102E8000012001F03BF8EAE207233A0092B2DFF8B2
:102E9000081604A801F098F8002826D0DFF8C40529
:102EA0000078002805D1DFF8C00590F82700012838
:102EB00003D1DFF80C0601F098FFDFF8B405407885
:102EC000032803D1DFF8A80500214170AE48002196
:102ED0000180AD4800214180CA4810210170DFF80F
:102EE000A405012180F8E91370E005233A0092B2AD
:102EF000DFF8BC1504A801F067F8002851D0A248FB
:102F000000210180A04800214180A04800780228CB
:102F10001FDA9C4801210170BA480C210170B948A0
:102F20000078B94951F8200001F02EF8060000237E
:102F3000F6B2320092B2B3480078B34951F820108B
:102F4000012000F0DBFF91480078401C8F49087099
:102F50003CE0DFF810050078002805D1DFF808050F
:102F600090F82700012803D1DFF8580501F03DFF54
:102F7000DFF8FC0403214170844800210170DFF870
:102F8000040590F86100012804D1DFF8080501214B
:102F900001701BE09B480C2101707A4801210170EF
:102FA00014E0F6B233009BB23A0092B29548007832
:102FB000954951F8201004A801F006F8002805D022
:102FC00071480021018070480021418047E2DFF80C
:102FD000A804807953286FD1002310E02888005D71
:102FE0009BB204A958542888401C288028884FF494
:102FF000006190FBF1F202FB11022A805B1C9BB284
:10300000BFB2BB42EAD36048002101805E48002184
:1030100041800A233A0092B2DFF89C1404A800F021
:10302000D3FF002819D057480121017075480C21A1
:10303000017074480078744951F8200000F0A4FF32
:1030400006000023F6B2320092B26E4800786E4954
:1030500051F82010012000F051FFDFF86C040078D7
:10306000002805D03A0092B204A9002001F09AFE8F
:1030700000231DE0DFF85404008BDFF85014496989
:103080009BB204AA9A5C4254DFF84004008B401CB7
:10309000DFF838140883DFF83404008B4FF4006144
:1030A00090FBF1F202FB1102DFF8200402835B1CAB
:1030B0009BB2BFB2BB42DDD3D1E133480088502878
:1030C000C0F2F780002312E0EC0400102888005DB5
:1030D0009BB204A958542888401C288028884FF4A3
:1030E000006190FBF1F202FB11022A805B1C9BB293
:1030F000BFB2BB42EAD3390089B204A8FDF7BDFADA
:1031000002233A0092B2DFF8841304A800F05CFFB7
:1031100000285BD01C48002101801B480021418011
:1031200038480C210170DFF85C03002180F8E913B6
:10313000DFF844038079552804D0DFF83C03807918
:10314000562825D10F48002101700F480021018029
:103150000D48002141802B4800782B4951F8200070
:1031600000F012FF06000023F6B2320092B22548AA
:103170000078254951F82010012000F0BFFE98E0AA
:1031800018050010CAA6001038A50010C8A6001027
:10319000CF4800210170CF4800210180CD48002197
:1031A000418018480078184951F8200000F0ECFEE2
:1031B00006000023F6B2320092B21248007812499B
:1031C00051F82010012000F099FE72E005233A002A
:1031D00092B2B74904A800F0F7FE002869D0BE48B3
:1031E0000078022812DABB48002101800023032264
:1031F000BA49012000F082FEB7480078401CB64969
:10320000087056E0BCA60010E0030010B148002191
:103210000180B04800214180AF4800210170B048D2
:103220000C21017094488079552803D09248807908
:1032300056281FD1A64800210170A6480021018010
:10324000A44800214180A6480078DFF8381C51F8D6
:10325000200000F099FE06000023F6B2320092B280
:103260009F480078DFF81C1C51F82010012000F066
:1032700045FE1EE09648002101709648002101801D
:1032800094480021418096480078DFF8F81B51F8F7
:10329000200000F079FE06000023F6B2320092B260
:1032A0008F480078DFF8DC1B51F82010012000F077
:1032B00025FED4E0874800880828C0F2CF808548E2
:1032C00000210180002312E0BDA600102888005DC7
:1032D0009BB204A958542888401C288028884FF4A1
:1032E000006190FBF1F202FB11022A805B1C9BB291
:1032F000BFB2BB42EAD3390089B204A8FDF7BDF9D9
:1033000008233A0092B2DFF8801B04A800F05CFEAC
:1033100000283BD06F48002101806E480021418089
:103320006B480078002819D16D480B2101706C485A
:103330000078DFF8501B51F8200000F025FE060051
:103340000023F6B2320092B265480078DFF8341BF1
:1033500051F82010012000F0D1FD7FE05C480021F1
:10336000017045488079552803D043488079562814
:1033700003D15B480D21017002E059480E21017014
:103380003D488179012000F0FEFF67E008233A0004
:1033900092B2DFF8F81A04A800F016FE002832D026
:1033A0004D4800210170DFF8E80A0078092804D0B0
:1033B000DFF8DC0A00780B2805D100230522002164
:1033C000002003F083F946480A210170414800219A
:1033D000018040480021418041480078DFF8A41A6C
:1033E00051F8200000F0D0FD06000023F6B23200B4
:1033F00092B23B480078DFF88C1A51F82010012077
:1034000000F07CFD2AE005233A0092B2284904A886
:1034100000F0DAFD002821D02E48002101802D483F
:10342000002141802C48002101702D480A210170A3
:103430002B480078DFF84C1A51F8200000F0A4FD6A
:1034400006000023F6B2320092B225480078DFF879
:10345000341A51F82010012000F050FDFFE70DF262
:10346000144DF0BDC7A6001098A20010804E0100B8
:10347000ECA5001080510100AC990010CBA6001003
:10348000047000100C8C0010CDA60010A8050010D0
:10349000C5A60010C4A600108405001094510100B8
:1034A000EE990010A40400109405001054A500101B
:1034B0007C050010A851010048050010984E01003D
:1034C000D8530100BC510100CCA5001000A500108C
:1034D000CAA6001038A50010C8A60010A405001048
:1034E000BCA6001080B50020DFF8A81909780A29C9
:1034F00009D0DFF8A0090078072804D0DFF8940984
:103500000078062863D1DFF890094088B0F5C87FBD
:10351000C0F23582DFF8800900210180DFF87809E8
:1035200000214180DFF87409007802283DDADFF8D5
:1035300060090078072804D0DFF8540900780828CB
:1035400014D1DFF85C0900F01FFD0023C0B20200B7
:1035500092B2DFF84C19012000F0D0FCDFF83C09F2
:103560000078401CDFF83419087008E2DFF82409FD
:103570000078DFF8101951F8200000F005FD002355
:10358000C0B2020092B2DFF80C090078DFF8F4183C
:1035900051F82010012000F0B1FCDFF8000900789C
:1035A000401CDFF8F8180870E9E1DFF8E808007857
:1035B0000A2803D1DFF8EC0807214170DFF8DC08A6
:1035C00000210170DFF8E00801210170D7E1DFF888
:1035D000C408007803282BD1DFF8BC0840882828CD
:1035E000C0F2CD81DFF8B4080078022817DADFF8DE
:1035F000A80800210180DFF8A00800214180DFF841
:1036000094080078C11EC9B2012001F079F8DFF8F2
:103610008C080078401CDFF884180870AFE1DFF8F0
:103620007C0800210170DFF8800801210170A6E10B
:10363000DFF860080078082804D0DFF85808007820
:1036400009282CD1DFF8500840882828C0F297813B
:10365000DFF848080078022818DADFF83C08002173
:103660000180DFF8340800214180DFF82808007865
:10367000B0F10801C9B2012001F042F8DFF81C08DE
:103680000078401CDFF81418087078E1DFF80C08A7
:1036900000210170DFF81008012101706FE1DFF8EF
:1036A000F40700780D282AD1DFF8EC074088B0F540
:1036B000C87FC0F26481DFF8E00700210180DFF8F5
:1036C000D80700214180DFF8D407007802280DDAFE
:1036D000DFF8D8078179012000F055FEDFF8BC073C
:1036E0000078401CDFF8B417087048E1DFF8AC0739
:1036F00000210170DFF8B007012101703FE1DFF820
:10370000940700780E283DD1DFF88C074088B0F58B
:10371000C87FC0F23481DFF8800700210180DFF824
:10372000780700214180DFF87407007802280DDA5D
:10373000DFF878078179012000F025FEDFF85C07CB
:103740000078401CDFF85417087018E1DFF85407C0
:1037500003214170DFF8440700210170DFF85007B2
:1037600090F86100012804D1DFF83C0701210170C5
:1037700005E1DFF820070C210170DFF8380701218F
:103780000170FCE0DFF80C07007811282BD1DFF87E
:1037900008074088B0F5C87FC0F2F180DFF8F8066E
:1037A00000210180DFF8F00600214180DFF8EC06FF
:1037B000007802280EDA00230322DFF8FC1601202D
:1037C00000F09CFBDFF8D4060078401CDFF8CC1634
:1037D0000870D4E0DFF8C40600210170DFF8C806E5
:1037E00001210170CBE0DFF8AC060078022841D15E
:1037F000DFF8A40640882828C0F2C180DFF89806C8
:1038000000210180DFF8900600214180DFF88C065E
:10381000007802281EDADFF87C060078DFF86416EC
:1038200051F8200000F0B0FB0023C0B2020092B2B9
:10383000DFF860060078DFF84C1651F82010012000
:1038400000F05CFBDFF854060078401CDFF84C16F3
:10385000087094E0DFF8440600210170DFF83406B8
:103860000078401CDFF82C1608700021012000F0C1
:1038700047FF84E0DFF81C06007812282FD1DFF81C
:103880001806408828287ADBDFF80C060021018022
:10389000DFF8040600214180DFF8000600780228E6
:1038A00014DADFF8180600F06FFB0023C0B2020044
:1038B00092B2DFF80816012000F020FBDFF8DC05EB
:1038C0000078401CDFF8D415087058E0DFF8CC050C
:1038D00000210170DFF8D005012101704FE0DFF811
:1038E000B40500780C284AD0DFF8A80500780F2826
:1038F00045D0DFF8A0050078102840D0DFF8980503
:10390000408850283BDBDFF894050078022826DA4F
:10391000DFF8840500210180DFF87C05002141806B
:10392000DFF870050078DFF85C1551F8200000F032
:103930002BFB0023C0B2020092B2DFF858050078DA
:10394000DFF8401551F82010012000F0D7FADFF819
:103950004C050078401CDFF8441508700FE0DFF8D4
:10396000380500210180DFF8300500214180DFF8B3
:103970002C0500210170DFF8300501210170DFF80E
:1039800028050078002840F03C81DFF834050078F5
:10399000002840F03681DFF8FC0400780F2804D0BE
:1039A000DFF8F004007810286AD1DFF818050078F5
:1039B000002840F02681DFF810050078012840F04B
:1039C0002081DFF8D404407B0428C0F21A81DFF89C
:1039D000FC0401F00AFA00F0D9FFDFF8EC04002142
:1039E0000170DFF8B40400214173DFF8E404002122
:1039F00080F80114DFF8D804002180F80014DFF803
:103A0000D004002180F80214DFF8A404002180F81B
:103A1000E913DFF8900400214170DFF894040021DD
:103A200080F8E513DFF88804002180F8E813DFF858
:103A30008004002180F8E413DFF89804002101706D
:103A4000DFF8500411210170002301220021002021
:103A500002F03CFE00230322DFF85C14012000F09A
:103A60004DFA002301220021002002F02FFEDFF892
:103A7000280400210180DFF8200400214180C0E0FB
:103A8000DFF8100400780C2840F0B180DFF834042F
:103A90000078002840F0B580DFF82C040078012879
:103AA00040F0AF80DFF8F003407B0428C0F2A9802B
:103AB000DFF8180401F099F900F068FFDFF8080456
:103AC00000210170DFF8D00300214173DFF800040A
:103AD000002180F80114DFF8F803002180F80014B9
:103AE000DFF8EC03002180F80214DFF8C4030021A2
:103AF00080F8E913DFF8AC0300214170DFF8B00370
:103B0000002180F8E513DFF8A803002180F8E8130E
:103B1000DFF89C03002180F8E413DFF8900380793C
:103B2000552804D0DFF884038079562828D1DFF89F
:103B3000A8030078002864D1DFF878030121017020
:103B4000DFF8540300210180DFF84C03002141809D
:103B5000DFF840030078DFF82C1351F8200000F064
:103B600013FA0023C0B2020092B2DFF828030078F3
:103B7000DFF8101351F82010012000F0BFF940E0E9
:103B8000DFF854030078002805D1DFF8240390F80B
:103B90006100012809D0DFF844030078012804D02F
:103BA000DFF83003007801282BD1DFF8080301216A
:103BB0000170DFF8280300210170B748002101805F
:103BC000B54800214180B3480078AE4951F8200043
:103BD00000F0DAF90023C0B2020092B2AD480078DA
:103BE000A84951F82010012000F088F909E0A948FF
:103BF00000780C2805DAB44800210170A64800219D
:103C00004173AA4890F8400000283BD1A74880792A
:103C1000552804D0A5488079562840F03181AC4819
:103C200090F80204012840F02B81AD4801F0DDF846
:103C3000A748002180F80214A54890F8040403283E
:103C40000ADBA348002180F8041494480021017085
:103C500095480121017013E19D4890F80404401C2F
:103C60009B4981F804049D48012101709648007821
:103C7000002840F005819448012101708648002108
:103C80004173FDE089488079552803D087488079C1
:103C900056283BD18E4890F80204012840F0F0806D
:103CA0007D48008AB0F5FA5FC0F2EA808D4801F0E5
:103CB0009CF87948002101828548002180F802148F
:103CC000834890F8040403280ADB8148002180F827
:103CD0000414724800210170734801210170CFE083
:103CE0007B4890F80404401C794981F804047B481F
:103CF0000121017074480078002840F0C1807248AA
:103D000001210170644800214173B9E0674880795E
:103D1000532826D1664890F8E803012840F0B08087
:103D2000634890F8E703002840F0AA805A48008AC8
:103D3000B0F5FA5FC0F2A4806B4801F056F856481F
:103D4000002101826548012101705F480078002848
:103D500040F096805C48012101704F48002141737A
:103D60008EE052488079542840F08A805948007883
:103D7000002863D14E4890F8E40301285ED14648FC
:103D8000808AB0F5487F59DB4948002180F8E41368
:103D9000414800218182464890F8E50300282CD153
:103DA000434890F8E503401C414981F8E503494840
:103DB0000078002842D13E4890F86100002812D1D6
:103DC00001233B4890F8E22192B24849012000F0DB
:103DD00095F80123364890F8E22192B24349002039
:103DE00000F08CF804E0424A4249314802F0B4F94C
:103DF0002F48012180F8E41320E03F4800F0F5FF50
:103E00002B48002180F8E5132948002180F8E413AD
:103E1000274890F86100012803D130480121017042
:103E200002E02E480021017027480078002805D1C3
:103E30002548012101701848002141731C4890F861
:103E4000E80301281CD11A4890F8E703002817D18D
:103E50001148008AB0F5FA5F12DB234800F0C5FF75
:103E60000D48002101821D4801210170164800788B
:103E7000002805D114480121017007480021417331
:103E800001BD0000E0030010300500103C050010EB
:103E9000BDA60010BCA6001038A50010C8A60010D2
:103EA000EC040010ECA50010C4A60010AC990010A2
:103EB0000C8C0010CAA60010A405001018050010F4
:103EC000BEA60010BFA60010C0A60010A0490100A9
:103ED00004700010CCA60010CBA60010CDA60010D8
:103EE0001C4D010080470100E04A0100EE8C0010EB
:103EF0004C8C00102C8C0010004B0100F8B5060013
:103F00000D0014000027A4B2002C32D0DBB2012B2C
:103F100019D10027BFB2A4B2A7422AD22878032819
:103F200002D02878102805D1012210213000C0B21B
:103F300000F020F8012229783000C0B200F01AF811
:103F40006D1C7F1CE6E7220092B229003000C0B24F
:103F500000F03FFFDFF8340B0121C170DFF82C0BBC
:103F6000C078002805D0220092B22900002000F07D
:103F700030FFF1BD02B592B2002A04D092B200A97E
:103F8000C0B200F026FF01BD002100E0491C020084
:103F9000501C1278002AF9D1080080B2704730B462
:103FA00000230024230000E05B1CDBB2D2B293426A
:103FB00007D2DBB21C5CDBB25D5CAC42F4D000200B
:103FC00000E0012030BC70472DE9F04105000E00F3
:103FD000170098460024002000210C0000E0641C1B
:103FE000A4B2BFB2BC4225D2BFB2A4B2381B1FFAE2
:103FF00088F8404501DA00201DE04246D2B2310087
:10400000A4B26019FFF7CBFFC0B2002802D001288C
:1040100001D0E4E7E3E72878412808D168785428FC
:1040200005D1642300220021002002F04FFB601C18
:10403000C0B200E00020BDE8F08110B400230022EF
:104040000024230003E0DBB21C5C62405B1CDBB29B
:10405000C9B28B42F7D31000C0B210BC7047F8B59C
:104060000400002500260027C9B2552902D0C9B294
:10407000562911D1DFF81C0A806BFFF785FF060077
:104080000023F6B2320092B2DFF8080A816B2000FA
:10409000C0B2FFF733FF10E0DFF8F809806CFFF7DC
:1040A00073FF06000023F6B2320092B2DFF8E40993
:1040B000816C2000C0B2FFF721FFDFF8DC09007936
:1040C0004FF48071DFF8D029527901FB0025DFF829
:1040D000C80990F88060002714E0FFB2DFF8B80943
:1040E000381890F8810020280BD000230122FFB25D
:1040F000DFF8A409381810F181012000C0B2FFF7E1
:10410000FDFE7F1CFFB2F6B2B742E6D301222221A8
:104110002000C0B2FFF72EFF01222C212000C0B2E8
:10412000FFF728FF012222212000C0B2FFF722FF63
:10413000ADB2DFF8840A012295FBF0F100FB1150CB
:1041400042F2107190FBF1F010F13001C9B2200081
:10415000C0B2FFF70FFFADB242F21070012295FB23
:10416000F0F100FB11504FF47A7190FBF1F010F177
:104170003001C9B22000C0B2FFF7FCFEADB24FF46F
:104180007A70012295FBF0F100FB1150642190FB45
:10419000F1F010F13001C9B22000C0B2FFF7EAFE21
:1041A000ADB26420012295FBF0F100FB11500A2111
:1041B00090FBF1F010F13001C9B22000C0B2FFF75E
:1041C000D9FEADB20A20012295FBF0F100FB11509F
:1041D000012190FBF1F010F13001C9B22000C0B212
:1041E000FFF7C8FE012222212000C0B2FFF7C2FE65
:1041F00001220D212000C0B2FFF7BCFEF1BDF8B5D1
:104200000400002500260027C9B2552902D0C9B2F2
:10421000562911D1DFF89409406AFFF7B5FE060070
:104220000023F6B2320092B2DFF88009416A200022
:10423000C0B2FFF763FE10E0DFF87009406BFFF7D4
:10424000A3FE06000023F6B2320092B2DFF85C094A
:10425000416B2000C0B2FFF751FEDFF83C08007947
:104260004FF48071DFF83028527901FB0025DFF828
:10427000280890F88060002714E0FFB2DFF81808E3
:10428000381890F8810020280BD000230122FFB2BB
:10429000DFF80408381810F181012000C0B2FFF7E0
:1042A0002DFE7F1CFFB2F6B2B742E6D301222221D7
:1042B0002000C0B2FFF75EFE01222C212000C0B218
:1042C000FFF758FEADB2DFF8F008012295FBF0F1E0
:1042D00000FB115042F2107190FBF1F010F130012F
:1042E000C9B22000C0B2FFF745FEADB242F2107075
:1042F000012295FBF0F100FB11504FF47A7190FB15
:10430000F1F010F13001C9B22000C0B2FFF732FE67
:10431000ADB24FF47A70012295FBF0F100FB115021
:10432000642190FBF1F010F13001C9B22000C0B25D
:10433000FFF720FEADB26420012295FBF0F100FBF7
:1043400011500A2190FBF1F010F13001C9B22000A8
:10435000C0B2FFF70FFEADB20A20012295FBF0F1CB
:1043600000FB1150012190FBF1F010F13001C9B2B6
:104370002000C0B2FFF7FEFD01220D212000C0B2D7
:10438000FFF7F8FDF1BDF0B58BB004000025002665
:104390000027DFF8040700794FF48072DFF8F83661
:1043A0005B7902FB00300500C9B2552903D0C9B2C0
:1043B000562940F0AB80DFF80408406BFFF7E4FDBE
:1043C00006000023F6B2320092B2DFF8F007416B2C
:1043D0002000C0B2FFF792FDADB2DFF8DC0701228A
:1043E00095FBF0F100FB115042F2107190FBF1F0DF
:1043F00010F13001C9B22000C0B2FFF7BBFDADB271
:1044000042F21070012295FBF0F100FB11504FF4C5
:104410007A7190FBF1F010F13001C9B22000C0B206
:10442000FFF7A8FDADB24FF47A70012295FBF0F1D1
:1044300000FB1150642190FBF1F010F13001C9B282
:104440002000C0B2FFF796FDADB26420012295FBBB
:10445000F0F100FB11500A2190FBF1F010F1300156
:10446000C9B22000C0B2FFF785FDADB20A2001221B
:1044700095FBF0F100FB1150012190FBF1F010F1E0
:104480003001C9B22000C0B2FFF774FD01222C2117
:104490002000C0B2FFF76EFD012222212000C0B231
:1044A000FFF768FDDFF8F00590F88060002714E062
:1044B000FFB2DFF8E405381890F8810020280BD00F
:1044C00000230122FFB2DFF8D005381810F1810176
:1044D0002000C0B2FFF712FD7F1CFFB2F6B2B74258
:1044E000E6D3012222212000C0B2FFF743FD0122C2
:1044F0002C212000C0B2FFF73DFD00230922DFF888
:10450000C0162000C0B2FFF7F9FC32E0ADB22B00BC
:10451000DFF8A806826BDFF8AC1602A802F002F9F9
:1045200002A802F019F90023020092B202A92000A9
:10453000C0B2FFF7E3FCDFF8900600790190DFF8E6
:104540008806C0780090DFF880068378DFF8780668
:104550004278DFF8841602A802F0E4F802A802F01C
:10456000FBF80200002392B202A92000C0B2FFF7BC
:10457000C5FC0BB0F0BD10B504000020C9B2002985
:1045800003D0022948D024D369E0DFF80805806908
:10459000FFF7FAFC0023C0B2020092B2DFF8F40485
:1045A00081692000C0B2FFF7A9FC0023DFF8E8040E
:1045B00090F8202092B2DFF814162000C0B2FFF766
:1045C0009DFC0023022289A12000C0B2FFF796FCC7
:1045D00045E0DFF8C004806AFFF7D6FC0023C0B2D4
:1045E000020092B2DFF8AC04816A2000C0B2FFF78B
:1045F00085FC0023DFF8D805027892B2DFF8D415E5
:104600002000C0B2FFF77AFC0023022277A120002D
:10461000C0B2FFF773FC22E0DFF87804C06AFFF74E
:10462000B3FC0023C0B2020092B2DFF86804C16A92
:104630002000C0B2FFF762FC0023DFF8A00502787B
:1046400092B2DFF89C152000C0B2FFF757FC0023A0
:10465000022266A12000C0B2FFF750FCFFE710BDA8
:1046600010B504000020C9B2012902D0022923D0CC
:1046700045E0DFF838054069FFF786FC0023C0B24B
:10468000020092B2DFF8240541692000C0B2FFF7B2
:1046900035FC0023DFF83805027892B2DFF83415D4
:1046A0002000C0B2FFF72AFC002302224FA1200005
:1046B000C0B2FFF723FC22E0DFF8F0048069FFF7C7
:1046C00063FC0023C0B2020092B2DFF8E00481690B
:1046D0002000C0B2FFF712FC0023DFF800050278CB
:1046E00092B2DFF8FC142000C0B2FFF707FC0023F1
:1046F00002223EA12000C0B2FFF700FCFFE710BD80
:1047000010B504000020C9B2002903D0022948D006
:1047100024D369E0DFF8A404C068FFF735FC002368
:10472000C0B2020092B2DFF89404C1682000C0B2A7
:10473000FFF7E4FB0023DFF8600390F8202092B23B
:10474000DFF888142000C0B2FFF7D8FB0023022254
:1047500026A12000C0B2FFF7D1FB45E0DFF85C04E2
:10476000006AFFF711FC0023C0B2020092B2DFF82A
:104770004C04016A2000C0B2FFF7C0FB0023DFF841
:104780005004027892B2DFF84C142000C0B2FFF758
:10479000B5FB0023022215A12000C0B2FFF7AEFB3B
:1047A00022E0DFF81804406AFFF7EEFB0023C0B2F6
:1047B000020092B2DFF80404416A2000C0B2FFF7A1
:1047C0009DFB0023DFF81404027892B2DFF8101486
:1047D0002000C0B2FFF792FB0023022203A12000B9
:1047E000C0B2FFF78BFBFFE710BD0000220D0000F9
:1047F00010B5DFF8F0030078002856D1DFF88C02FE
:104800004078002802D05FA000F0EFFADFF8D8036C
:10481000007809280BD000225FF08071032002F09D
:1048200007F8002302220021002001F04FFF01229F
:104830005FF08071032001F0FBFF002301220021C3
:10484000002001F043FF00225FF08061032001F0AF
:10485000EFFF002305220021002001F037FF012295
:104860005FF08061032001F0E3FF4FF4FA73002250
:104870000021002001F02AFF00225FF000710320D8
:1048800001F0D6FFC82300220021002001F01EFF06
:1048900001225FF00071032001F0CAFFC823022249
:1048A0000021002001F012FF6BE0784840780028DA
:1048B00002D035A000F099FADFF82803002101703A
:1048C000DFF824030078072832D100225FF08071DE
:1048D000032001F0ADFF4FF4FA7300220021002005
:1048E00001F0F4FE01225FF08071032001F0A0FFCF
:1048F000C82300220021002001F0E8FE00225FF022
:104900008061032001F094FFC823052200210020CC
:1049100001F0DCFE01225FF08061032001F088FFDE
:104920004FF4FA7300220021002001F0CFFE17E0BF
:1049300000225FF00071032001F07AFFC8230022FB
:104940000021002001F0C2FE01225FF0007103206F
:1049500001F06EFFC82300220021002001F0B6FE06
:10496000002406E0C82300220021002001F0AEFE52
:10497000641CE4B20A2C04DADFF870020078012823
:10498000F0D110BD350000003600000080B542486F
:1049900090F84000002815D1DFF8540200F025FA05
:1049A0003D488079552803D03B488079562804D16A
:1049B000DFF8400200F019FA36E0DFF83C0200F0C0
:1049C00014FA31E0DFF8340200F00FFA324880794F
:1049D000552803D030488079562804D1DFF81402D6
:1049E00000F003FA20E02C488079542818D1DFF831
:1049F00048030078012804D1DFF8400300F0F5F9FE
:104A000012E06C4890F86100012804D1DFF830030F
:104A100000F0EBF908E0DFF82C0300F0E6F903E022
:104A2000DFF81C0300F0E1F919A000F0DEF901BD88
:104A300010B50024DFF8100301210170FFF7D8FE44
:104A4000594800214180584800210180DFF8FC02CC
:104A500000210170DFF8F4020078584951F8200075
:104A6000FFF792FA04000023E4B2220092B2DFF8CA
:104A7000DC020078514951F820100120FFF73EFA7E
:104A8000DFF8CC020021018010BD0000CCA5001091
:104A90000D0A000010030010AC990010DFF8480167
:104AA0000078032803D0DFF83C0100210170DFF813
:104AB000A40203210170DFF8A00200210170DFF8D9
:104AC0009C0200210170DFF8840200210170DFF8F0
:104AD000900200210170DFF88C0200210170DFF8E4
:104AE0005402002180F80114DFF84802002180F808
:104AF0000014DFF84002002180F802142D48002144
:104B000080F8E913DFF85C0200218170DFF85402BD
:104B10000021C1702748002180F8E41325480021B6
:104B200080F8E5132348002180F8E813DFF8080235
:104B300000210170DFF83002002101701D480021C2
:104B400080F8E713DFF8A40000210170DFF81C02F1
:104B500000210170DFF8180200210170DFF8140253
:104B600000210170DFF8100200210170DFF80C0253
:104B700000210170DFF8080200210170DFF8040253
:104B800000210170DFF8000200210170DFF8FC0154
:104B900000210180DFF8B80100210180DFF8F00179
:104BA000002101807047000038A50010A403001008
:104BB000704700000C8C0010A0860100E00300107C
:104BC000F85501003858010080A30010CD9900105D
:104BD00060A4001061A40010684E010098A50010A8
:104BE00099A50010C4A60010BDA60010BEA6001016
:104BF0004058010048580100804A01005058010007
:104C000080B554480078032803DA55480021017024
:104C10004CE04E480078002803D15148062101702D
:104C200044E04A480078062803D14D480721017026
:104C30003CE0464800780C2803DA49480521017019
:104C400034E0424800780F2803DB40480078112800
:104C500006D143480321017050480021017025E02E
:104C60003A4800780F280AD1324890F8000400280A
:104C70001CD03B480121017001F058FE16E033487A
:104C80000078102812D1444890F8E80301280AD18E
:104C9000414890F8E703002805D13148042101700C
:104CA00001F044FE02E02E480221017029480078FC
:104CB000032804DA334827490978017039E023488A
:104CC00000780D2805DA21480078C01C2D490870AD
:104CD0002FE030488079542803D02E48807953281B
:104CE00014D12F4811210170184800780E2805D1E1
:104CF00016480078401E234908701AE013480078CF
:104D0000102816D11F480F21017012E024480F21EE
:104D100001700E4800780D2804D11A480B49097813
:104D2000017006E0094800780F2802D115480F21CC
:104D3000017001BD04700010CCA60010004D0100F0
:104D40004451010058510100C6A60010BCA6001035
:104D50009CA60010B9A60010BAA60010BBA60010B1
:104D6000C3A60010ECA50010CBA60010BFA6001033
:104D7000C0A60010C1A60010C2A60010C8A6001050
:104D8000C9A60010CEA60010CAA600109EA600104C
:104D9000A2A60010AC9900100C8C0010C5A6001043
:104DA000CFA6001080B5C0B2002802D0C0B2022841
:104DB00004D192B2C0B200F00CF809E0C0B20328EE
:104DC00006D0C0B2012803D192B2002001F028FF22
:104DD00001BD80B5C0B20A2804DA92B2C0B202F0B6
:104DE000E4FA01E0C0B20B2801BD10B504002000B8
:104DF00001F0B2FC020092B221000020FFF7E9FFAF
:104E000010BD0870012048704FF4165048800020F3
:104E1000087100208860002088810020086100203F
:104E2000088300204883704780B5DFF81C06C068FF
:104E3000000EDFF8181681F86100DFF80C06C06874
:104E4000000CDFF8081681F86200DFF8FC05C06886
:104E5000000ADFF8F81581F86300DFF8F005DFF8E5
:104E6000E815C96880F86410DFF8DC050069000EF9
:104E7000DFF8D81581F86500DFF8CC050069000C73
:104E8000DFF8C81581F86600DFF8BC050069000A84
:104E9000DFF8B81581F86700DFF8B005DFF8A8156E
:104EA000096980F8681000F06AF901BD80B500F06A
:104EB00072F9DFF8980590F8200001280DD0DFF88E
:104EC0008C0590F82000022807D0DFF8800590F8C4
:104ED0002000032801D000F069F9DFF870050221F5
:104EE00080F83110DFF8640590F82000DFF85815DD
:104EF0000870DFF8580590F82100DFF8501591F898
:104F00002210090411EB0060DFF8401591F823101E
:104F100010EB0120DFF8341591F824100818DFF8A1
:104F20003015C860DFF82005DFF8201591F825104E
:104F30004170DFF81405DFF8141591F82610817020
:104F4000DFF80405DFF8041591F82710C170DFF8C9
:104F5000F804DFF8F81491F828100171DFF8E8047C
:104F6000DFF8E81491F829104171DFF8DC04DFF86C
:104F7000DC1491F82A108171DFF8D00490F82D002C
:104F8000DFF8C81491F82E1011EB0020DFF8C414DC
:104F90004860DFF8B404DFF8B41491F82F10C17141
:104FA000DFF8A404DFF8A41491F831100172DFF8DF
:104FB000A404DFF8981491F832100172DFF8880425
:104FC000C068002842D1DFF88004006900283DD184
:104FD000DFF8780490F86100DFF8701491F862103F
:104FE000090411EB0060DFF8641491F8631010EB12
:104FF0000120DFF8581491F864100818DFF84814FD
:10500000C860DFF84404C068DFF84C140860DFF8BB
:105010003C0490F86500DFF8341491F86610090438
:1050200011EB0060DFF8241491F8671010EB0120F9
:10503000DFF8181491F868100818DFF80C140861EC
:10504000DFF804040069DFF8141408602022DFF898
:105050001014DFF8100402F065FBDFF8EC03002108
:1050600080F833102022DFF80014DFF8000402F08B
:1050700059FB2022DFF8F813DFF8F80302F052FBA7
:105080002022DFF8F413DFF8F40302F04BFB2022B8
:10509000DFF8EC13DFF8EC0302F044FB2022DFF82A
:1050A000E813DFF8E80302F03DFB1522DFF8E01318
:1050B000DFF8E00302F036FBDFF8B003002180F8F0
:1050C0002A101522DFF8D013DFF8D00302F02AFBF4
:1050D000DFF8A003002180F82A101522DFF8C013A2
:1050E000DFF8C00302F01EFBDFF89003002180F818
:1050F0002A101522DFF8B013DFF8B00302F012FB1C
:10510000DFF88003002180F82A101522DFF8A013B1
:10511000DFF8A00302F006FBDFF87003002180F83F
:105120002A101522DFF89013DFF8900302F0FAFA44
:10513000C8480021C1740A22DFF88413DFF8840311
:1051400002F0F0FADFF88003002180F874101022DA
:10515000DFF87813BE4802F0E5FA2022DFF870137A
:10516000DFF8700302F0DEFA1522DFF86C13DFF8C7
:105170006C0302F0D7FAB7480021C17401BD80B5B5
:105180004FF4FA7000900023DFF85423012120200F
:1051900002F006FB01BD80B54FF4057000900023BE
:1051A000AA4A0121002002F06EFB01BD80B5A7488C
:1051B000022180F82010A548002180F82110A34882
:1051C000022180F82210A148422180F823109F4834
:1051D000FD2180F824109D48082180F825109B4867
:1051E000082180F826109948082180F82710974850
:1051F000082180F828109548152180F82910934837
:10520000B32180F82A109148002180F82B108F4894
:10521000012180F82C108D48002180F82D108B483A
:10522000012180F82E108948022180F82F1087482C
:10523000022180F830108548022180F8311083481F
:10524000012180F832108148032180F833107F4813
:10525000002180F861107D48002180F862107B48B1
:10526000002180F863107948002180F864107748A5
:10527000002180F865107548002180F86610734899
:10528000002180F867107148002180F86810002024
:1052900005E06E494118002281F86920401C202851
:1052A000F7DBFFF76CFF01BD80B58E490320FFF7E8
:1052B000A8FD8D490020FFF7A4FD8C490120FFF7D0
:1052C000A0FD8B490220FFF79CFD8648894941617A
:1052D00085488949416185488849416184488849B0
:1052E000416179480021016077480021416076489A
:1052F00000210172744800214172734801218172BA
:1053000071480021C1727048002101616E4800217E
:1053100041616D48002181616B480021C1616A488B
:10532000002101626848002141626748002180F83D
:105330002F106548002101636348002180F8341074
:105340006148002180F835105F48002180F8361050
:105350005D48002180F837105B48002101735A48EE
:10536000012180F86A1064220021664802F010FBD7
:105370006548002180F82B106348002180F82C102C
:105380006148002180F82D105F48002180F82E1020
:105390005D48002180F82F105B48002180F8301014
:1053A00001BD10B4002307E0DBB2D2B2934202D1B8
:1053B00004780C70491C401C04780A2C0CD004782A
:1053C0002C2C02D004780D2CEED15B1CD2B2DBB2B7
:1053D0009A42F0D20020087010BC704710B400232D
:1053E00007E0DBB2D2B2934202D104780C70491CC0
:1053F000401C04780A2C0CD004782E2C02D004789F
:105400000D2CEED15B1CD2B2DBB29A42F0D200205E
:10541000087010BC704710B4FF22FF2308E0DBB215
:1054200004785C40401C394BE35C5340384AA25C32
:105430000C00611EA4B2002CF1D1D2B2DBB253EA4F
:10544000022080B210BC704780A30010F88F0010BB
:1054500084A50010A8A40010484002404C4002401F
:105460006190001094A300108190001004A000101F
:10547000A1900010D8A20010C190001010A300103D
:10548000E190001048A3001001910010A0A00010AE
:105490002291001024A0001037910010F8A20010F3
:1054A0004C91001030A300106191001068A300100F
:1054B00076910010C0A000108B910010B1A40010D4
:1054C000A09100102B9E0010C09D0010AB91001009
:1054D000BC91001038A40010DC91001048A400100A
:1054E00018900010E4A40010C8A4001000A500103B
:1054F0001CA50010D83D0010D8450010D84D001054
:10550000D835001039A0001098A20010000000103B
:10551000000100102DE9F04FADF50B7D5FF0000CA0
:105520005FF0000A0025002600275FF0000E5FF004
:105530000008DDF85892979CC9B28B46BBF1010F69
:105540000ED0BBF1030F0BD0BBF1050F00F0F281C1
:10555000BBF1070F04D0BBF10B0F00F07E82E7E236
:1055600024248DF800408DF80110D1F1FF048DF84E
:105570000240C9B2012903D0C9B2032940F07B819E
:10558000949CC0B2002840F0A4805FF0000C01E0C1
:105590001CF1010C1FFA8CFCBCF1160F21DA1FFA6A
:1055A0008CFC1CF80250202D0AD11FFA8CFC1CEB3D
:1055B00002056D78303D0A2D02D2761C1CF10107E0
:1055C0001FFA8CFC1CF80250303D0A2DE0D21FFA65
:1055D0008CFC1CEB02056D78202DD9D1761C1CF1BA
:1055E000010EF6B2022E1BD15FF0000C0FE0FFB2ED
:1055F0001FFA8CFC1CEB0705AD5C1FFA8CFC0DF14F
:1056000000091CEB090989F805501CF1010C1FFA6F
:105610008CFC5FFA8EFEFFB2BEEB0705AC45E6DB05
:105620005FF0000C11E05FFA8EFE1EF10505FFB27F
:10563000ED1B1FFA8CFC1CEB05050DF100095FF05A
:10564000000A05F809A01CF1010C1FFA8CFC5FFA96
:105650008EFEDEF11005FFB27D19AC45E3DB5FF095
:10566000000C0CE01FFA8CFC00AD1CEB05051FFACA
:105670008CFC1CF8049085F815901CF1010C1FFAA5
:105680008CFCBCF1100FEDDB5FF0000C0CE01FFA9E
:105690008CFC00AD1CEB05051FFA8CFC1CF803907C
:1056A00085F825901CF1010C1FFA8CFCBCF1040F4D
:1056B000EDDB00258DF8295000258DF82A500425B2
:1056C0008DF82B5002258DF82C5054258DF82D5037
:1056D0002925C0B2012840F0CE805FF0000C01E027
:1056E0001CF1010C1FFA8CFCBCF1160F21DA1FFA19
:1056F0008CFC1CF8020020280AD11FFA8CFC1CEB41
:105700000200407830380A2802D2761C1CF10107CA
:105710001FFA8CFC1CEB020040782028E0D11FFA15
:105720008CFC1CF8020030380A28D9D2761C1CF1F7
:10573000010EF6B2022E19D15FF0000C0DE0FFB29F
:105740001FFA8CFC1CEB0700805C1FFA8CFC00AD80
:105750001CEB050568711CF1010C1FFA8CFC5FFA4B
:105760008EFEFFB2BEEB07008445E8DB5FF0000C65
:105770000EE05FFA8EFE1EF10500FFB2C01B1FFA9D
:105780008CFC1CEB000000AA002585541CF1010CC8
:105790001FFA8CFC5FFA8EFEDEF11000FFB23818A3
:1057A0008445E6DB5FF0000C0BE01FFA8CFC00A8E0
:1057B0001CEB00001FFA8CFC1CF8042042751CF145
:1057C000010C1FFA8CFCBCF1100FEEDB5FF0000C3B
:1057D0000CE01FFA8CFC00A81CEB00001FFA8CFCEC
:1057E0001CF8032080F825201CF1010C1FFA8CFC0A
:1057F000BCF1040FEDDB00208DF8290000208DF8AE
:105800002A0004208DF82B0002208DF82C00522055
:105810008DF82D005FF0000C95980CE01FFA8CFCC1
:1058200000AA1CEB02021FFA8CFC1CF8003082F864
:105830002E301CF1010C10F8012C1FFA8CFC92B2D6
:105840009445EBD35FF0000C0CE010F8012C1FFA2C
:105850008CFC1CEB020200ABD218002382F82E3025
:105860001CF1010C1FFA8CFC10F8012CD2F1100273
:105870009445EADB3925C9B2072905D0C9B20929FF
:1058800002D0C9B20A2916D15FF0000C0DE01FFA50
:105890008CFC00A81CEB00001FFA8CFCDFF86418DD
:1058A0001CF8011041711CF1010C1FFA8CFCBCF1B9
:1058B000080FECDB082528008DF80300ADB2280A9C
:1058C0008DF804005FF0000C08E01FFA8CFC00A8C3
:1058D0001CF8000090EA08081CF1010C1FFA8CFC6F
:1058E000ADB2681D8445F0DBADB200A8281880F881
:1058F0000580ADB200A828180D218171ADB200A8B5
:1059000028180A21C171DFF8000890F8033415F156
:10591000080292B200A90120FEF7F0FA0122032149
:105920000120FEF727FB15F1080189B200A8FAF75C
:10593000A4FEFDE0250024208DF800008DF8011064
:10594000D1F1FF008DF8020028008DF80300ADB200
:10595000280A8DF804005FF0000C08E01FFA8CFCA8
:1059600000A81CF8000090EA08081CF1010C1FFABE
:105970008CFCBCF1050FF1DB5FF0000C07E01FFAB7
:105980008CFC1CF8090090EA08081CF1010C1FFAB5
:105990008CFCADB2AC45F2D38DF805800D208DF8AE
:1059A00006000A208DF807005FF0000C0CE01FFADB
:1059B0008CFCDFF854071FFA8CFC00A91CF80110BE
:1059C0000CF800101CF1010C1FFA8CFCBCF1050F47
:1059D000EDDB5FF0050A5FF0000C0CE01FFA8CFCB9
:1059E000DFF824071CEB00001FFA8CFC1CF80910E0
:1059F00041711CF1010C1FFA8CFCADB2AC45EDD32A
:105A000015F1050A5FF0000C10E01FFA8CFC1FFA7C
:105A10008AFA1AEB0C00DFF8F0161FFA8CFC00AAC9
:105A20001CEB0202527942541CF1010C1FFA8CFC4F
:105A3000BCF1030FE9DBDFF8D00690F8033415F171
:105A4000080292B2DFF8C0160120FEF757FA0122D1
:105A500003210120FEF78EFA6AE024208DF8000071
:105A60008DF80110D1F1FF008DF8020020008DF8B3
:105A70000300A4B2200A8DF804005FF0000C08E0D7
:105A80001FFA8CFC00A81CF8000090EA08081CF122
:105A9000010C1FFA8CFCBCF1050FF1DB5FF0000C70
:105AA00007E01FFA8CFC1CF8090090EA08081CF1BA
:105AB000010C1FFA8CFCA4B2A445F2D35FF0000CD9
:105AC0000BE01FFA8CFC00A81CEB00001FFA8CFCFA
:105AD0001CF8091041711CF1010C1FFA8CFCA4B2D6
:105AE000A445EED3A4B200A8201880F80580A4B283
:105AF00000A820180D218171A4B200A820180A2145
:105B0000C171DFF8040690F8033414F1080292B270
:105B100000A90120FEF7F2F9012203210120FEF77E
:105B200029FA14F1080189B200A8FAF7A6FDFFE7E7
:105B30000DF50B7DBDE8F08F70B504000D0000265B
:105B40000020217824296ED1607804286BD1A078B8
:105B5000FB2868D1DFF8B4054079617E884205D121
:105B6000DFF8A8050079A17E884205D0607E002874
:105B70001CD1A07E002819D1DFF88C05012180F806
:105B80000014DFF88C05002101802800C11EC9B275
:105B90002000FEF752FA0600ADB2281910F8030CE7
:105BA000F6B2864240F0128100200FE11C21200055
:105BB000FEF743FA060006232A0092B2DFF85415D6
:105BC0002000FEF701FA002800F00081607FF6B2A5
:105BD00086421AD1DFF83405A17E0171DFF82C0569
:105BE000617E4171DFF8300501210170DFF82C057D
:105BF0000078002840F0EA80DFF8200501210170DC
:105C0000DFF80C0500214173E0E0DFF81405FFF731
:105C1000ECF8290089B22000FAF72FFDDFF804051F
:105C2000FFF7E3F8D2E02078242820D16078082814
:105C30001DD1A078F7281AD1E078082809D1DFF81B
:105C4000C804012180F80014DFF8C4040021018099
:105C5000BCE0E078002840F0B980DFF8AC04002117
:105C600080F80014DFF8A80400210180AEE0DFF81E
:105C70009C0490F84000012840F0A880DFF89004D0
:105C800000210182DFF8880400210180DFF8780418
:105C900090F80304002876D000201CE0DFF8881478
:105CA000098BDFF88424526980B2035D8B54DFF8DE
:105CB0007814098B491CDFF870241183DFF868140D
:105CC000098B4FF4006291FBF2F303FB1213DFF830
:105CD00058140B83401C80B2ADB2A84276D280B279
:105CE000015D10292AD1DFF844140978002904D174
:105CF000DFF8381401220A70ECE7DFF830140022D4
