:020000040001F9
:10000000A8AE001059960200FD9502004796020026
:1000100075960200799602007D96020050CBEFEFB4
:1000200000000000000000000000000081960200B7
:100030008596020000000000EB7B0100A7A30100F1
:10004000919602005728020099960200FF1F0200B5
:10005000A1960200BB6D0100976E0100116F0100B7
:10006000ED6F0100B5960200B9960200BD96020040
:10007000C1960200C5960200C9960200E5940200EE
:10008000D1960200670F0200D9960200DD960200A9
:10009000E1960200E5960200E9960200ED96020064
:1000A000395B0200F596020065950200FD9602009C
:1000B00001970200C7900200099702000D97020005
:1000C000119702001597020019970200C9700100EC
:1000D0002197020025970200698702002D970200F0
:1000E0003197020010B50024DFF8200300780028C3
:1000F0003FD1DFF8FC020078002809D0DFF8F002D9
:100100000078012804D0DFF8E8020078022830D116
:10011000B848408878282CD3B64800210180B548DB
:1001200000214180DFF8E0020078022819D2B048AF
:100130000078B44951F8200003F090FF0400002338
:10014000E4B2220092B2AA480078AE4951F82010D9
:10015000012003F041FFAC480078401CAA49087018
:1001600007E0A94800210170A0480021017004F0B7
:10017000F7FC9E480078A74909780843C0B20028D8
:100180006AD1A5480078012824D19A48007B082824
:1001900020D3A24804F00CFF9F4800210170A04822
:1001A000002101709348002101739E480021417095
:1001B0009D48002180F8E5139B48002180F8E81352
:1001C0009948002180F8E41398480021017087487D
:1001D000012101709648007801281DD18548C0880A
:1001E0004FF4F071884217D384480078002804D176
:1001F000834890F82700012802D18E4804F0D8FEE9
:100200008B48002101707B480021C1807748012183
:1002100001707D48002101708748007801281BD1BA
:100220007448008B502817D374480078002804D1F4
:10023000734890F82700012802D1804804F0B8FEE6
:100240007D48002101706B4800210183674801212E
:1002500001706D4800210170794890F84000012834
:1002600074D177488079532817D16F4890F8E90303
:1002700001286BD166480078002867D16A480021C0
:1002800080F8E9135B48002101805A480021418031
:100290006548012180F8E41358E0634890F8E903C9
:1002A000012853D15A48007800284FD15F48007880
:1002B000002835D15C4890F8E60300282CD0594836
:1002C0004078062802D15748002141705648002145
:1002D00080F8E913544890F86100002812D10123F6
:1002E000514890F8E22192B25649012003F074FE81
:1002F00001234D4890F8E22192B25249002003F0C8
:100300006BFE04E0504A5149474806F0D1F8464890
:10031000012180F8E41310E04248062141700CE00E
:100320004148002180F8E91306F032FA48480021DC
:1003300001833D48012180F8E4132E480021818289
:100340002C48002101802B48002141802A48007858
:10035000062802D100F07EF82CE027480078052816
:1003600002D100F023FD25E02348007804281FD0A7
:100370002148007803281BD01F480078012817D097
:100380001D480078072813D01B48007808280FD094
:100390001948007802280BD017480078092807D0A0
:1003A000154800780A2803D0134800780B2801D19B
:1003B00003F05AF810BD38B504000D000F4800785E
:1003C000002806D02A0092B22100002004F0DEFDB1
:1003D0000AE00B4890F82700012805D12A0092B2C4
:1003E0002100002004F0D2FD31BD000089A60010DC
:1003F0007EA60010ACA4001082A600108CA60010EF
:1004000030A20010240600108DA600108BA600104C
:1004100090A6001083A6001084A60010943E010050
:1004200085A6001078A50010A089001091A60010E4
:1004300086A60010C03E010087A600108C3F010078
:10044000F4980010828A0010E0890010C089001022
:1004500074A4001010B50024DFF8000900780C28FF
:100460004FD1DFF8E80840884FF416718842C0F099
:10047000D481DFF8E008007802282DD20023012281
:100480000021002006F01DFBDFF8C00800210180DC
:10049000DFF8B80800214180DFF8C0080078DFF8F5
:1004A000B01851F8200003F0D9FD04000023E4B295
:1004B000220092B2DFF8A4080078DFF8941851F80F
:1004C0002010012003F088FDDFF888080078401C28
:1004D000DFF880180870A0E1DFF884080721417078
:1004E000DFF8680800210180DFF860080021418002
:1004F000DFF8600800210170DFF868080121017051
:100500008BE1DFF858080078062809D0DFF84C089E
:1005100000780A2804D0DFF8440800780B282BD193
:10052000DFF8280840882828C0F07781DFF8240801
:100530000078022817D2DFF8140800210180DFF8C4
:100540000C0800214180DFF814080078811FC9B22F
:10055000012004F0AEF8DFF8FC070078401CDFF85B
:10056000F417087059E1DFF8EC0700210170DFF89B
:10057000F4070121017050E1DFF8E00700780E2850
:100580002BD1DFF8C80740884FF4C8718842C0F00B
:100590004481DFF8B80700210180DFF8B0070021AF
:1005A0004180DFF8B007007802280DD2DFF8B807E5
:1005B0008179012003F0CBFDDFF898070078401C1B
:1005C000DFF89017087028E1DFF888070021017034
:1005D000DFF89007012101701FE1DFF88007007844
:1005E000122848D1DFF8640740884FF4C871884268
:1005F000C0F01381DFF8540700210180DFF84C07B9
:1006000000214180DFF84C07007802280DD2DFF886
:1006100058078179012003F09AFDDFF83807007848
:10062000401CDFF830170870F7E0DFF834070321CB
:100630004170DFF8200700210170DFF80C0790F807
:100640006100012812D1DFF8140717210170DFF8CB
:100650001C0703F003FD04000023E4B2220092B261
:10066000DFF80817012003F0B7FCD6E0DFF8EC064E
:1006700010210170D1E0DFF8E4060078162838D1A7
:10068000DFF8C80640884FF4C8718842C0F0C580C2
:10069000DFF8C006007802281AD2002302220021C7
:1006A000002006F00EFA00230322DFF8981601203E
:1006B00003F092FC002302220021002006F001FA40
:1006C000DFF890060078401CDFF88816087007E015
:1006D000DFF8800600210170DFF888060121017033
:1006E000DFF8680600210180DFF860060021418004
:1006F00093E0DFF86806007809283BD1DFF84C0664
:100700004088A028C0F08980DFF8480600780228D9
:1007100027D2DFF8380600210180DFF830060021FB
:100720004180DFF838060078DFF8241651F8200001
:1007300003F094FC04000023E4B2220092B2DFF83C
:100740001C060078DFF8081651F82010012003F08D
:1007500043FCDFF800060078401CDFF8F81508704D
:100760005BE0DFF8F00500210170DFF8F8050121FA
:10077000017052E0DFF8E40500780D284DD0DFF875
:10078000DC050078102848D0DFF8D0050078142860
:1007900043D0DFF8C805007815283ED0DFF8BC0547
:1007A0000078172839D0DFF8A4054088282834D3EA
:1007B000DFF8A0050078022827D2DFF89005002195
:1007C0000180DFF8880500214180DFF8900500787E
:1007D000DFF87C1551F8200003F040FC04000023F2
:1007E000E4B2220092B2DFF874050078DFF86015F9
:1007F00051F82010012003F0EFFBDFF858050078D6
:10080000401CDFF85015087007E0DFF848050021AC
:100810000170DFF8500501210170DFF8480500780C
:10082000DFF84C1509780843C0B2002840F03E813B
:10083000DFF828050078142804D0DFF820050078B8
:1008400015286AD1DFF82C050078002840F02E81A9
:10085000DFF824050078012840F02881DFF8EC0457
:10086000407B0428C0F02281DFF8100504F0A0FBD3
:1008700004F024F9DFF8000500210170DFF8CC0452
:1008800000214173DFF8D80400214170DFF8F00443
:10089000002180F80114DFF8E804002180F800143A
:1008A000DFF8DC04002180F80214DFF89C0400214A
:1008B00080F8E913DFF89004002180F8E513DFF8F1
:1008C0008804002180F8E813DFF87C04002180F818
:1008D000E413DFF8B00400210170DFF88004162172
:1008E0000170002302220021002006F0EAF8002314
:1008F0000322DFF85014012003F06EFB00230222D4
:100900000021002006F0DDF8DFF84004002101801E
:10091000DFF8380400214180C8E0DFF840040078A7
:100920000D28C0F0B980DFF834040078142880F076
:10093000B380DFF840040078002840F0B780DFF88B
:1009400038040078012840F0B180DFF80004407BD3
:100950000428C0F0AB80DFF8240404F029FB04F085
:10096000ADF8DFF8140400210170DFF8E003002186
:100970004173DFF80C04002180F80114DFF8000453
:10098000002180F80014DFF8F803002180F8021439
:10099000DFF8B403002180F8E913DFF8C403002175
:1009A0004170DFF8A403002180F8E513DFF8980315
:1009B000002180F8E813DFF89003002180F8E413A9
:1009C000DFF8A4038079552804D0DFF89C038079F0
:1009D000562829D1DFF8B0030078002866D1DFF867
:1009E0006C0300210180DFF8640300214180DFF8FF
:1009F0006C030D210170DFF864030078DFF85013F9
:100A000051F8200003F02AFB04000023E4B2220086
:100A100092B2DFF848030078DFF8341351F8201061
:100A2000012003F0D9FA41E0DFF85C0300780028E8
:100A300005D1DFF8140390F86100012809D0DFF830
:100A400018030078012804D0DFF838030078012863
:100A50002CD1DFF8040300210170BC480021018083
:100A6000BA4800214180DFF8F40210210170BB4830
:100A70000078B74951F8200003F0F0FA0400002391
:100A8000E4B2220092B2B5480078B14951F8201082
:100A9000012003F0A1FA09E0B04800780D2805D242
:100AA000B54800210170A94800214173AE4890F873
:100AB000400000283BD1AC488079552804D0AA4892
:100AC0008079562840F03C81AD4890F80204012816
:100AD00040F03681AD4804F06BFAA948002180F857
:100AE0000214A74890F8040403280AD3A44800215C
:100AF00080F804149748002101709A480121017080
:100B00001EE19F4890F80404401C9D4981F80404AC
:100B100091480121017098480078002840F0108128
:100B200095480121017089480021417308E18E48F0
:100B30008079552803D08C48807956283BD190483D
:100B400090F80204012840F0FB808048008AB0F54C
:100B5000FA5FC0F0F5808E4804F02AFA7B48002145
:100B600001828748002180F80214854890F8040427
:100B700003280AD38248002180F804147548002114
:100B80000170784801210170DAE07D4890F8040492
:100B9000401C7B4981F804046F48012101707648AC
:100BA0000078002840F0CC8073480121017067482C
:100BB00000214173C4E06C488079532826D16248F3
:100BC00090F8E803012840F0BB805F4890F8E70305
:100BD000002840F0B5805D48008AB0F5FA5FC0F0AB
:100BE000AF806C4804F0E4F95848002101825A486B
:100BF0000121017060480078002840F0A1805E4823
:100C00000121017051480021417399E04E4890F84C
:100C1000E403012872D14D48808A4FF4167188424E
:100C20006CD34948002180F8E413484800218182B0
:100C3000464800210180454800214180424890F803
:100C4000E503012832D2404890F8E503401C3E49B4
:100C500081F8E5034B48007800281DD13A4890F808
:100C60006100002812D10123374890F8E22192B2A6
:100C70004949012003F0B0F90123334890F8E221FB
:100C800092B24549002003F0A7F90AE0434A4449DB
:100C90002D4805F00DFC04E005F07AFD41480021E7
:100CA00001832948012180F8E41327E03E4804F03D
:100CB0007FF92548002180F8E5132348002180F8BA
:100CC000E413214890F86100012803D12248012152
:100CD000017009E02048002101702A4800780128AD
:100CE00002D128480021017023480078002805D14E
:100CF000214801210170154800214173124890F8E4
:100D0000E80301281CD1104890F8E703002817D108
:100D10000E48008AB0F5FA6F12D31E4804F048F965
:100D20000A48002101820C48012101701248007814
:100D3000002805D1104801210170044800214173A9
:100D400010BD0000C4060010A0890010ACA4001063
:100D5000100300108DA6001092A600107FA60010B0
:100D600078A5001089A60010F4980010F405001072
:100D700083A6001084A6001085A60010E03E0100A6
:100D8000986D001091A6001090A60010043F01007D
:100D9000203F01004C3F0100828A0010E0890010D2
:100DA000C089001074A400106C3F010010B500242D
:100DB000DFF8B8070078072841D1DFF8B40740888A
:100DC0004FF448718842C0F04181DFF8A407002148
:100DD0000180DFF89C0700214180DFF89807007848
:100DE00002281FD2DFF884070078DFF88C1751F84B
:100DF000200003F033F904000023E4B2220092B291
:100E0000DFF868070078DFF8701751F8201001202C
:100E100003F0E2F8DFF85C070078401CDFF85417B5
:100E2000087013E1DFF8540707214170DFF8440729
:100E300000210170DFF848070121017006E1DFF8A9
:100E40002C070078052804D0DFF820070078062852
:100E50002BD1DFF81C0740882828C0F0F780DFF886
:100E600014070078022817D2DFF804070021018058
:100E7000DFF8FC0600214180DFF8F0060078011F52
:100E8000C9B2012003F08EFCDFF8E8060078401CB0
:100E9000DFF8E0160870D9E0DFF8D806002101700D
:100EA000DFF8DC0601210170D0E0DFF8C006007831
:100EB0000D283AD1DFF8B80640884FF448718842CF
:100EC000C0F0C480DFF8A80600210180DFF8A0068A
:100ED00000214180DFF89C06007802280DD2DFF85F
:100EE00080068179012003F00FFADFF88806007888
:100EF000401CDFF880160870A8E0DFF880060321A8
:100F00004170DFF8700600210170DFF8500690F89C
:100F10006100012804D1DFF868060121017095E025
:100F2000DFF848060C21017090E0DFF840060078F9
:100F3000112838D1DFF8380640884FF4C87188424C
:100F4000C0F08480DFF82C06007802281AD2002333
:100F500002220021002005F0B4FD00230322DFF867
:100F60000416012003F038F800230222002100209B
:100F700005F0A7FDDFF8FC050078401CDFF8F4154C
:100F8000087007E0DFF8EC0500210170DFF8F005DC
:100F900001210170DFF8D80500210180DFF8D005BC
:100FA0000021418052E0DFF8C405007809284DD0C7
:100FB000DFF8B80500780C2848D0DFF8B0050078D5
:100FC0000F2843D0DFF8A405007810283ED0DFF8C2
:100FD000B4050078122839D0DFF894054088282815
:100FE00034D3DFF890050078022827D2DFF8800597
:100FF00000210180DFF8780500214180DFF86C05D1
:101000000078DFF8741551F8200003F027F8040089
:101010000023E4B2220092B2DFF850050078DFF836
:10102000581551F82010012002F0D6FFDFF84405D2
:101030000078401CDFF83C15087007E0DFF8340545
:1010400000210170DFF8380501210170DFF830055B
:101050000078DFF8341509780843C0B2002840F062
:101060003781DFF8080500780F2804D0DFF8FC048A
:101070000078102871D1DFF814050078002840F0BE
:101080002781DFF80C050078012840F02181DFF886
:10109000E004407B0428C0F01B81DFF8F80403F073
:1010A00087FF03F00BFDDFF8E80400210170DFF893
:1010B000C00400214173DFF8C40400214170DFF84F
:1010C000D804002180F80114DFF8CC04002180F856
:1010D0000014DFF8C404002180F80214DFF87C0457
:1010E000002180F8E913DFF87404002180F8E5138B
:1010F000DFF86804002180F8E813DFF860040021BD
:1011000080F8E413DFF8940400210170DFF85C0438
:1011100011210170002302220021002005F0D1FCE2
:1011200000230322DFF83C14012002F055FF0023C6
:101130000322DFF83014002002F04EFF00230222C9
:101140000021002005F0BDFCDFF82404002101800F
:10115000DFF81C0400214180BAE0DFF810040078B9
:101160000928C0F0AB80DFF804040078102880F074
:10117000A580DFF8F80300780B2800F09F80DFF8E7
:101180000C040078002840F0A380DFF80404007805
:10119000012840F09D80DFF8D803407B0428C0F090
:1011A0009780DFF8F00303F003FF03F087FCDFF81C
:1011B000E00300210170DFF8B80300214173DFF87C
:1011C000BC0300214170DFF8D003002180F8011436
:1011D000DFF8C403002180F80014DFF8BC0300210D
:1011E00080F80214DFF87403002180F8E913DFF8B7
:1011F0006C03002180F8E513DFF86003002180F81C
:10120000E813DFF85803002180F8E413DFF85003F7
:101210008079552804D0DFF848038079562817D103
:10122000DFF87C030078002852D1DFF84403002166
:101230000180DFF83C0300214180DFF83003092101
:101240000170DFF81C038179012003F05DF83FE0B5
:10125000DFF84C030078002805D1DFF8000390F890
:101260006100012809D0DFF800030078012804D0CC
:10127000DFF82803007801282AD1BB48002101703B
:10128000BB4800210180BA4800214180B7480C21A9
:101290000170B6480078B84951F8200002F0DEFE2F
:1012A00004000023E4B2220092B2B0480078B249B0
:1012B00051F82010012002F08FFE09E0AB480078C1
:1012C000082805D2B24800210170A94800214173C5
:1012D000A34890F8400000283BD1A14880795528C8
:1012E00004D09F488079562840F03681AA4890F86B
:1012F0000204012840F03081AA4803F059FEA648B4
:10130000002180F80214A44890F8040403280AD3AA
:10131000A148002180F804149648002101709848E3
:101320000121017018E19C4890F80404401C9A497E
:1013300081F804048C480121017095480078002848
:1013400040F00A81924801210170894800214173CF
:1013500002E183488079552803D081488079562856
:101360003BD18D4890F80204012840F0F580804878
:10137000008AB0F5FA5FC0F0EF808B4803F018FEEA
:101380007B48002101828448002180F802148248B1
:1013900090F8040403280AD37F48002180F804143D
:1013A000744800210170764801210170D4E07A4828
:1013B00090F80404401C784981F804046A4801212B
:1013C000017073480078002840F0C6807048012101
:1013D0000170674800214173BEE06148807953285D
:1013E00026D15E4890F8E803012840F0B5805B48BC
:1013F00090F8E703002840F0AF805D48008AB0F520
:10140000FA5FC0F0A980694803F0D2FD5848002176
:1014100001825548012101705D480078002840F0A4
:101420009B805B480121017051480021417393E08A
:101430004A4890F8E40301286CD14D48808A4FF463
:101440001671884266D34548002180F8E413484865
:1014500000218182414890F8E503012832D23F48BB
:1014600090F8E503401C3D4981F8E5034B480078BE
:1014700000281DD1394890F86100002812D10123BD
:10148000364890F8E22192B24949012002F0A4FDC9
:101490000123324890F8E22192B24549002002F03F
:1014A0009BFD0AE0434A44492C4805F001F804E05A
:1014B00005F06EF94148002101832848012180F898
:1014C000E41327E03E4803F073FD2448002180F830
:1014D000E5132248002180F8E413204890F86100C9
:1014E000012803D120480121017009E01E48002194
:1014F00001702A480078012802D128480021017093
:1015000023480078002805D121480121017018489E
:1015100000214173114890F8E80301281CD10F48BD
:1015200090F8E703002817D11148008AB0F5FA6F48
:1015300012D31E4803F03CFD0D48002101820A48E9
:101540000121017012480078002805D110480121BE
:10155000017007480021417310BD0000A0890010F0
:10156000F4980010C406001092A6001080A6001087
:10157000ACA400108DA60010B404001078A50010D3
:1015800089A600107FA6001083A6001084A6001074
:1015900085A60010AC3F0100986D001091A60010C8
:1015A00090A60010043F0100203F01004C3F0100C5
:1015B000828A0010E0890010C089001074A4001015
:1015C0006C3F01000D0A53494D43415244204F4B9B
:1015D000210D0A0D0A0000002DE9F04FADF2144D67
:1015E00004000D00160000275FF000085FF00009FE
:1015F0005FF0000A5FF0000B002083461FFA8BFBB0
:10160000BBF5806F08D21FFA8BFB04A800210BF8F2
:1016100000101BF1010BF1E7002082462888B6B2CA
:1016200086420CD02888B6B2B04203D22888301A3D
:10163000824604E016F500602988401A824640F28E
:1016400001401FFA8AFA824502D34FF48060824635
:10165000DFF8A40B007800282ED0022800F0DA81F1
:10166000C0F03B81042800F06482C0F0628206284A
:1016700000F0A183C0F0E582082800F0D884C0F013
:1016800059840A2800F00686C0F03D850C2801F038
:10169000C580C0F087870E2801F0E382C1F0C281C7
:1016A000102801F0ED83C1F0B482122801F0748596
:1016B000C1F06B8401F053BEDFF8400B008828288E
:1016C000C0F00981DFF8340B00210180002083463F
:1016D0001FFA8BFB1FFA8AFAD34514D22888005DC3
:1016E0001FFA8BFB04A90BF801002888401C2880F6
:1016F00028884FF4006190FBF1F202FB11022A806E
:101700001BF1010BE4E7514689B204A8FEF753FE32
:101710000523524692B2DFF8E81A04A802F0C0FC92
:10172000002800F0D880DFF8D40A00210180DFF81B
:10173000CC0A00214180DFF8CC0A0078022820D2B0
:10174000DFF8B40A0078DFF8C01A51F8200002F080
:1017500085FC814600235FFA89F94A4692B2DFF898
:10176000980A0078DFF8A01A51F82010012002F042
:1017700033FCDFF8900A0078401CDFF8881A087004
:10178000A9E0DFF8880A0078002805D1DFF8800A90
:1017900090F82700012803D1DFF8780A03F008FC4D
:1017A000DFF8740A4078022803D1DFF86C0A0021C0
:1017B0004170DFF8380E0078072804D0DFF82C0ECF
:1017C0000078082821D1DFF83C0A00210170DFF8F9
:1017D000280A04210170DFF8200A0078DFF8281AAF
:1017E00051F8200002F03AFC814600235FFA89F9A3
:1017F0004A4692B2DFF8000A0078DFF80C1A51F876
:101800002010012002F0E8FB65E0DFF8E00D007831
:10181000032809D0DFF8D40D0078092804D0DFF8B8
:10182000CC0D00780A281AD1DFF8D8090021017000
:10183000DFF8C4090078801CDFF8BC1908700023A9
:101840005FFA89F94A4692B2DFF8AC090078DFF80E
:10185000B81951F82010012002F0BEFB3BE0DFF880
:101860008C0D00780B2812D1DFF898090021017047
:10187000DFF884090078401CDFF87C190870002329
:101880000622DFF86C1D012002F0A6FB23E0DFF842
:10189000740900210170DFF860090078401CDFF84E
:1018A00058190870DFF850090078DFF85C1951F812
:1018B000200002F0D3FB814600235FFA89F94A46F3
:1018C00092B2DFF834090078DFF83C1951F82010A3
:1018D000012002F081FB01F042BDDFF82009008801
:1018E0000828C0F09580002083461FFA8BFB1FFA62
:1018F0008AFAD34514D22888005D1FFA8BFB04A90D
:101900000BF801002888401C288028884FF40061CB
:1019100090FBF1F202FB11022A801BF1010BE4E7BC
:10192000514689B204A8FEF746FD0223524692B200
:10193000DFF8C01C04A802F0B3FB002828D0DFF8B1
:10194000BC0800210180DFF8B40800214180DFF8E5
:10195000A8080078401CDFF8A0180870DFF8980885
:101960000078DFF8A41851F8200002F077FB8146D8
:1019700000235FFA89F94A4692B2DFF87C080078C2
:10198000DFF8841851F82010012002F025FB3FE019
:101990000523524692B2DFF8301E04A802F080FB05
:1019A000002835D0DFF8540800210180DFF84C080A
:1019B00000214180DFF84C080078022820D2DFF8AF
:1019C00038080078DFF8401851F8200002F046FB94
:1019D000814600235FFA89F94A4692B2DFF8180877
:1019E0000078DFF8241851F82010012002F0F4FAF2
:1019F000DFF810080078401CDFF80818087007E0CE
:101A0000DFF8000800210170DFF8C00D012101702E
:101A100001F0A5BCDFF8E40700880828C0F0878043
:101A2000002083461FFA8BFB1FFA8AFAD34514D293
:101A30002888005D1FFA8BFB04A90BF80100288899
:101A4000401C288028884FF4006190FBF1F202FBD3
:101A500011022A801BF1010BE4E7514689B204A868
:101A6000FEF7A9FC0223524692B2DFF8881B04A8B5
:101A700002F016FB002813D0DFF880070021018058
:101A8000DFF8780700214180DFF86C070078401C00
:101A9000DFF8641708700021012002F0D7FE46E04D
:101AA0000523524692B2DFF8201D04A802F0F8FA8E
:101AB00000283CD0DFF8440700210180DFF83C0714
:101AC00000214180DFF83C070078022820D2DFF8AF
:101AD00028070078DFF8301751F8200002F0BEFA2E
:101AE000814600235FFA89F94A4692B2DFF8080777
:101AF0000078DFF8141751F82010012002F06CFA7A
:101B0000DFF800070078401CDFF8F81608700EE0D8
:101B1000DFF8F00600210170DFF8DC060078401CD9
:101B2000DFF8D41608700021012002F08FFE01F0CA
:101B300016BCDFF8C80600880828C0F080800020A6
:101B400083461FFA8BFB1FFA8AFAD34514D22888E2
:101B5000005D1FFA8BFB04A90BF801002888401CCC
:101B6000288028884FF4006190FBF1F202FB1102FB
:101B70002A801BF1010BE4E7514689B204A8FEF765
:101B80001AFC0223524692B2DFF8681A04A802F047
:101B900087FA002828D0DFF8640600210180DFF8EA
:101BA0005C0600214180DFF850060078401CDFF819
:101BB00048160870DFF840060078DFF84C1651F838
:101BC000200002F04BFA814600235FFA89F94A4669
:101BD00092B2DFF824060078DFF82C1651F82010B6
:101BE000012002F0F9F92AE00523524692B2DFF80B
:101BF000D81B04A802F054FA002820D0DFF8FC0516
:101C000000210180DFF8F40500214180DFF8F405B0
:101C1000007802280BD20021012002F017FEDFF825
:101C2000E4050078401CDFF8DC15087007E0DFF8F9
:101C3000D40500210170DFF8940B0121017001F03F
:101C40008EBBDFF8B80500881028C0F0B2800020F5
:101C500083461FFA8BFB1FFA8AFAD34514D22888D1
:101C6000005D1FFA8BFB04A90BF801002888401CBB
:101C7000288028884FF4006190FBF1F202FB1102EA
:101C80002A801BF1010BE4E7514689B204A8FEF754
:101C900092FB0623524692B2DFF8A41C04A802F07D
:101CA000FFF90700FFB2002F00F083807F1EFFB214
:101CB00004A83818093004F035FF80465FFA88F828
:101CC000B8F1010F04D05FFA88F8B8F1050F2CD1F4
:101CD000DFF8700C00210170DFF820050021018081
:101CE000DFF8180500214180DFF80C050078401C62
:101CF000DFF804150870DFF800050078DFF8081534
:101D000051F8200002F0AAF9814600235FFA89F910
:101D10004A4692B2DFF8E0040078DFF8EC1451F89C
:101D20002010012002F058F943E0DFF8D804002128
:101D30000170DFF8C80400210180DFF8C004002131
:101D40004180DFF8000C0078401CDFF8F81B0870B9
:101D5000DFF8F00B00781F282BD3DFF8E80B002109
:101D60000170DFF8980400210180DFF89004002161
:101D70004180DFF884040078401CDFF87C14087090
:101D8000DFF874040078DFF8801451F8200002F0C6
:101D900065F9814600235FFA89F94A4692B2DFF875
:101DA00058040078DFF8601451F82010012002F088
:101DB00013F901F0D4BADFF8440400882828C0F0F1
:101DC000B780002083461FFA8BFB1FFA8AFAD3459F
:101DD00014D22888005D1FFA8BFB04A90BF80100C0
:101DE0002888401C288028884FF4006190FBF1F27D
:101DF00002FB11022A801BF1010BE4E7514689B274
:101E000004A8FEF7D8FA0523524692B2DFF8381B31
:101E100004A802F045F90700FFB2002F52D07F1E40
:101E2000FFB204A83818801D04F07CFE8046DFF85D
:101E3000E8034078012803D1DFF8DC03002141707A
:101E4000DFF8B80300210180DFF8B00300214180F2
:101E5000DFF8B00300210170DFF890070078072851
:101E600004D0DFF88807007808280BD1DFF8880352
:101E70000078801CDFF8801308700121012002F037
:101E8000E5FC55E0DFF870030078401CDFF86813CC
:101E90000870DFF864030078DFF86C1351F8200055
:101EA00002F0DCF8814600235FFA89F94A4692B2D3
:101EB000D1480078DFF8501351F82010012002F0CB
:101EC0008BF835E00523524692B2DFF8FC1804A8DF
:101ED00002F0E6F800282BD0C84800210180C7484E
:101EE00000214180C748007802281AD2C2480078F1
:101EF000C54951F8200002F0B1F8814600235FFA8D
:101F000089F94A4692B2BC480078BF4951F820107E
:101F1000012002F061F8BB480078401CB949087004
:101F200006E0B84800210170DFF8A0080121017027
:101F300001F015BAB1480088502876D300208346B6
:101F40001FFA8BFB1FFA8AFAD34514D22888005D4A
:101F50001FFA8BFB04A90BF801002888401C28807D
:101F600028884FF4006190FBF1F202FB11022A80F5
:101F70001BF1010BE4E7514689B204A8FEF71BFAF6
:101F80000223524692B2DFF86C1604A802F088F8D9
:101F900000280FD0994800210180984800214180F5
:101FA00095480078401C944908700121012002F0F6
:101FB0004DFC3AE00523524692B2DFF80C1804A813
:101FC00002F06EF8002830D08C48002101808B4848
:101FD000002141808B48007802281AD28648007878
:101FE000894951F8200002F039F8814600235FFA50
:101FF00089F94A4692B280480078834951F8201006
:10200000012001F0E9FF7F480078401C7D490870FD
:102010000BE07C480021017077480078401C76492D
:1020200008700121012002F011FC01F098B97348F9
:102030000088082865D3002083461FFA8BFB1FFA0F
:102040008AFAD34514D22888005D1FFA8BFB04A9B5
:102050000BF801002888401C288028884FF4006174
:1020600090FBF1F202FB11022A801BF1010BE4E765
:10207000514689B204A8FEF79EF90223524692B255
:10208000DFF8701504A802F00BF800280FD05B48A9
:102090000021018059480021418057480078401CA8
:1020A000554908700221012002F0D0FB29E00523E8
:1020B000524692B2DFF8101704A801F0F1FF002891
:1020C0001FD04E48002101804C48002141804D48DE
:1020D0000078022809D20121012002F0B7FB49480B
:1020E0000078401C474908700BE046480021017009
:1020F00041480078401C404908700221012002F04C
:10210000A5FB01F02CB93D4800880828C0F0C0802C
:10211000002083461FFA8BFB1FFA8AFAD34514D29C
:102120002888005D1FFA8BFB04A90BF801002888A2
:10213000401C288028884FF4006190FBF1F202FBDC
:1021400011022A801BF1010BE4E7514689B204A871
:10215000FEF731F90223524692B2DFF8981404A830
:1021600001F09EFF002859D0DFF88004007807288E
:1021700004D0DFF87804007808281DD12148002118
:1021800001701E48002101801C48002141801A482E
:102190000078401C18490870DFF8D40D01F05EFF8C
:1021A000814600235FFA89F94A4692B2DFF8C01DE2
:1021B000012001F011FF6BE01248002101700F486F
:1021C000002101800D48002141800B48122101703F
:1021D000DFF8A00D01F042FF814600235FFA89F984
:1021E0004A4692B2DFF88C1D012001F0F5FEDFF8BF
:1021F000880D002101704BE081A60010ACA40010F6
:10220000A40600108DA60010F00400108CA600108B
:1022100030A20010C415010078A500100523524615
:1022200092B2DFF8A41504A801F03AFF00282FD0DD
:10223000DFF8480D00210180DFF8400D00214180CA
:10224000DFF83C0D007802280BD20221012002F0B9
:10225000FDFADFF82C0D0078401CDFF8241D087013
:1022600016E0DFF81C0D00210170DFF8180D1221B7
:102270000170DFF8000D01F0F1FE814600235FFAE6
:1022800089F94A4692B2DFF8EC1C012001F0A4FE65
:1022900001F065B8DFF8E40C00887828C0F0808190
:1022A000002083461FFA8BFB1FFA8AFAD34514D20B
:1022B0002888005D1FFA8BFB04A90BF80100288811
:1022C000401C288028884FF4006190FBF1F202FB4B
:1022D00011022A801BF1010BE4E7514689B204A8E0
:1022E000FEF769F80223524692B2C24904A801F0EF
:1022F000D7FE00284FD0DFF8840C00210180DFF8E2
:102300007C0C00214180DFF8700C0078002820D17F
:10231000DFF8700C0078401CDFF8681C0870DFF8EC
:10232000640C0078DFF8C01D51F8200001F096FE23
:10233000814600235FFA89F94A4692B2DFF8440CDD
:102340000078DFF8A41D51F82010012001F044FEB0
:1023500026E1DFF8240C00210170DFF8280C0C21A5
:102360000170DFF8200C0078DFF87C1D51F82000A8
:1023700001F074FE814600235FFA89F94A4692B261
:10238000DFF8000C0078DFF8601D51F82010012004
:1023900001F022FE04E10523524692B2DFF8281430
:1023A00004A801F07DFE002800F0E080DFF8CC0BEF
:1023B00000210180DFF8C40B00214180DFF8C00B51
:1023C0000078022880F0B78088480078072803D07A
:1023D00086480078082839D184480078072816D123
:1023E000DFF89C0B0078002806D10023052200218D
:1023F000002004F066FB0AE0DFF8840B0078012877
:1024000005D100230A220021002004F05AFBDFF846
:102410006C0B00210180DFF8640B00214180DFF8A4
:10242000500B01F01BFE814600235FFA89F94A46F2
:1024300092B2DFF83C1B012001F0CEFDDFF8400B2B
:102440000078401CDFF8381B0870A9E06748007866
:102450000B2807D065480078032803D0634800782C
:10246000092847D1DFF8180B007800280ED1002387
:1024700005220021002004F024FBDFF8000B0021DE
:102480000180DFF8F80A0021418012E0DFF8F00A4D
:10249000007801280DD100230A220021002004F039
:1024A00010FBDFF8D80A00210180DFF8D00A0021F4
:1024B0004180DFF8D00A0078DFF82C1C51F82000AA
:1024C00001F0CCFD814600235FFA89F94A4692B2B9
:1024D000DFF8B00A0078DFF8101C51F82010012056
:1024E00001F07AFDDFF8980A0078401CDFF8901AB6
:1024F000087055E0DFF88C0A0078DFF8EC1B51F823
:10250000200001F0ABFD814600235FFA89F94A46BD
:1025100092B2DFF8700A0078DFF8CC1B51F8201077
:10252000012001F059FDDFF8580A0078401CDFF85F
:10253000501A087034E0DFF8440D0078002805D107
:10254000DFF83C0D90F82700012803D1DFF8340DA7
:1025500002F02EFDDFF8300D07214170DFF8200A70
:102560000021017099480121017019E05FFA89F991
:102570004B469BB2524692B2DFF8080A0078DFF869
:10258000681B51F8201004A801F08AFD002807D02C
:10259000DFF8E80900210180DFF8E009002141802F
:1025A00000F0DDBEDFF8D40900880828C0F03481CF
:1025B000002083461FFA8BFB1FFA8AFAD3451BD2F1
:1025C0002888005D1FFA8BFB04A90BF801002888FE
:1025D000401C288028884FF4006190FBF1F202FB38
:1025E00011022A801BF1010BE4E700BF82A6001054
:1025F000D03F0100C8060010514689B204A8FDF77B
:10260000DAFE0223524692B2DFF85C1D04A801F004
:1026100047FD002800F0AA80DFF8600C0078002851
:1026200005D1DFF85C0C90F82700012803D1DFF812
:102630003C0D02F0BDFCDFF8500C4078072803D1B8
:10264000DFF8440C00214170DFF8300900210180DF
:10265000DFF8280900214180DFF828090078401CB4
:10266000DFF820190870DFF8080D8079552804D0AC
:10267000DFF8FC0C8079562824D1DFF8F80C0078BC
:10268000002840F0C980DFF8FC080078DFF8581A0D
:1026900051F8200001F0E2FC814600235FFA89F93D
:1026A0004A4692B2DFF8DC080078DFF83C1A51F8AD
:1026B0002010012001F090FCDFF8BC0C002180F814
:1026C0000414A9E0DFF8A80C90F8400000281FD1FE
:1026D000DFF8A00C0078002840F09E80DFF8A40806
:1026E0000078DFF8041A51F8200001F0B7FC8146A9
:1026F00000235FFA89F94A4692B2DFF88808007829
:10270000DFF8E41951F82010012001F065FC83E0A6
:10271000DFF8600C0078002805D1DFF8600C90F835
:102720006100012804D0DFF8580C0078012873D12B
:10273000DFF84C0C00210170DFF848080078DFF862
:10274000A81951F8200001F089FC814600235FFAA6
:1027500089F94A4692B2DFF82C080078DFF8881928
:1027600051F82010012001F037FC55E0DFF80C088B
:1027700000210180DFF8040800214180DFF8000813
:102780000078022824D2DFF8FC070078DFF8581917
:1027900051F8200001F062FC814600235FFA89F9BC
:1027A0004A4692B2DFF8DC070078DFF83C1951F8AE
:1027B0002010012001F010FCDFF8C4070078401C55
:1027C000DFF8BC17087027E09406001089A60010F7
:1027D000DFF8AC0700210170DFF8A8070078401C83
:1027E000DFF8A0170870DFF89C070078DFF8F8180A
:1027F00051F8200001F032FC814600235FFA89F98C
:102800004A4692B2DFF87C070078DFF8DC1851F80E
:102810002010012001F0E0FB00F0A1BDDFF85C0713
:1028200000880828C0F0FC80002083461FFA8BFB3C
:102830001FFA8AFAD34514D22888005D1FFA8BFB51
:1028400004A90BF801002888401C288028884FF430
:10285000006190FBF1F202FB11022A801BF1010BD7
:10286000E4E7514689B204A8FDF7A5FD02235246CC
:1028700092B2DFF8F41A04A801F012FC002800F06C
:102880009980DFF8F80600210180DFF8F80A007867
:10289000012804D1DFF8F00A01210170C0E0DFF85F
:1028A000D40A0078002840F0BB80DFF8D006002171
:1028B0004180DFF8C4060078012847D1DFF8CC0A50
:1028C0000078072804D0DFF8C40A0078082823D14C
:1028D000DFF89C0A8079552804D0DFF8940A8079C3
:1028E00056280AD1DFF89C060D210170DFF8800A16
:1028F0008179012001F0D9FD92E0DFF8840A0021FE
:102900000170DFF880060E210170DFF8640A81791A
:10291000012001F0CAFD83E0DFF868061221017092
:10292000DFF8500601F09AFB814600235FFA89F92F
:102930004A4692B2DFF83C16012001F04DFB6FE0F1
:102940008C0600107AA6001084060010DFF8200A1A
:102950008079552804D0DFF8180A807956280AD1E2
:10296000DFF820060D210170DFF8040A81790120CB
:1029700001F09BFD54E0DFF8FC090078002805D148
:10298000DFF8F80990F86100012804D0DFF8F009B9
:102990000078012844D1DFF8E80900210170DFF850
:1029A000E4050E210170DFF8C8098179012001F0EA
:1029B0007CFD35E0DFF8C805007802282CD2DFF86E
:1029C000BC0500210180DFF8B40500214180DFF85B
:1029D000B0050078401CDFF8A8150870DFF8A405E2
:1029E0000C210170DFF89C050078DFF8FC1651F827
:1029F000200001F033FB814600235FFA89F94A4643
:102A000092B2DFF880050078DFF8DC1651F820106C
:102A1000012001F0E1FA03E0DFF86C090121017007
:102A200000F09DBCDFF8540500887828C0F0F080E5
:102A3000002083461FFA8BFB1FFA8AFAD34514D273
:102A40002888005D1FFA8BFB04A90BF80100288879
:102A5000401C288028884FF4006190FBF1F202FBB3
:102A600011022A801BF1010BE4E7514689B204A848
:102A7000FDF7A1FCDFF80C050078DFF86C1651F8C3
:102A8000200001F0EBFA81460723524692B2DFF8AC
:102A9000001904A801F004FB00284BD0DFF8DC0784
:102AA0000078002805D1DFF8D80790F82700012822
:102AB00003D1DFF8E00802F07BFADFF8C004002160
:102AC0000180DFF8B80400214180DFF8B8040F214D
:102AD00001700020039000200290DFF8BC080190F4
:102AE000DFF8B8080090DFF8B838DFF8B82803211D
:102AF000DFF87C0890F8400002F048FE3223002204
:102B00000021002003F0DDFF002003900020029050
:102B10000020019000200090002300220721DFF810
:102B2000500890F8400002F031FEDFF85004002118
:102B3000C1826DE00523524692B2DFF86C1804A8FA
:102B400001F0AEFA00284DD0DFF8300400210180FA
:102B5000DFF8280400214180DFF8240400780228EF
:102B600028D2DFF8140401210170DFF818040C21C9
:102B70000170DFF810040078DFF86C1551F82000C0
:102B800001F06CFA814600235FFA89F94A4692B255
:102B9000DFF8F0030078DFF8501551F8201001201D
:102BA00001F01AFADFF8D8030078401CDFF8D013E0
:102BB00008702DE0DFF8C4060078002805D1DFF8A2
:102BC000C00690F82700012803D1DFF8E00702F0E3
:102BD000EFF9DFF8AC0300210170DFF8AC07012149
:102BE000017015E05FFA89F94B469BB2524692B2EA
:102BF000DFF890030078DFF8F01451F8201004A8F3
:102C000001F04EFA002803D0DFF8700300210180A4
:102C1000A5E3002083461FFA8BFB1FFA8AFAD345EF
:102C200014D22888005D1FFA8BFB04A90BF8010061
:102C30002888401C288028884FF4006190FBF1F21E
:102C400002FB11022A801BF1010BE4E7DFF82807E1
:102C5000012180F80014514689B204A803F0E4F879
:102C60007DE3C64800887828C0F0098100208346AB
:102C70001FFA8BFB1FFA8AFAD34514D22888005D0D
:102C80001FFA8BFB04A90BF801002888401C288040
:102C900028884FF4006190FBF1F202FB11022A80B8
:102CA0001BF1010BE4E7514689B204A8FDF783FB51
:102CB000B4480078DFF8301451F8200001F0CEF964
:102CC00081460A23524692B2DFF8E41604A801F0C6
:102CD000E7F900282FD0DFF8A4050078002805D1F7
:102CE000DFF89C0590F82700012803D1DFF8C4061F
:102CF00002F05EF9A14800210180A0480021418036
:102D0000A0480C2101709F480078DFF8DC1351F8CF
:102D1000200001F0A3F9814600235FFA89F94A46B1
:102D200092B298480078DFF8C01351F820100120C3
:102D300001F052F913E30723524692B2DFF850161E
:102D400004A801F0ADF9002826D0DFF8300500789E
:102D5000002805D1DFF8280590F82700012803D1C5
:102D6000DFF8540602F024F9DFF81C054078032848
:102D700003D1DFF814050021417080480021018053
:102D80007E48002141807F4810210170DFF8EC056A
:102D9000012180F8E91372E00523524692B2DFF870
:102DA000081604A801F07CF9002852D073480021CD
:102DB000018072480021418071480078022820D2A9
:102DC0006D48012101706F480C2101706D48007839
:102DD000C54951F8200001F041F9814600235FFA0E
:102DE00089F94A4692B267480078BF4951F82010E5
:102DF000012001F0F1F862480078401C6049087039
:102E00003DE0DFF878040078002805D1DFF8700491
:102E100090F82700012803D1DFF8A00502F0C8F8D8
:102E2000DFF8640403214170554800210170DFF888
:102E30004C0590F86100012804D1DFF84C05012110
:102E400001701CE04F480C2101704B4801210170BA
:102E500015E05FFA89F94B469BB2524692B2494857
:102E60000078A14951F8201004A801F019F90028B0
:102E700005D04248002101804048002141806EE297
:102E8000DFF8EC048079532840F07E8000208346F0
:102E90001FFA8BFB1FFA8AFAD34514D22888005DEB
:102EA0001FFA8BFB04A90BF801002888401C28801E
:102EB00028884FF4006190FBF1F202FB11022A8096
:102EC0001BF1010BE4E72D48002101802B48002174
:102ED00041800A23524692B2DFF8D41404A801F0CC
:102EE000DFF800281AD024480121017025480C2160
:102EF0000170244800787C4951F8200001F0AEF8B8
:102F0000814600235FFA89F94A4692B21D4800784B
:102F1000754951F82010012001F05EF80020834629
:102F20001FFA8BFB1FFA8AFAD3452DD2DFF89004E3
:102F3000008BDFF88C1449691FFA8BFB04AA1BF87D
:102F400002204254DFF87804008B401CDFF8701434
:102F50000883DFF86C04008B4FF4006190FBF1F202
:102F600002FB1102DFF8580402831BF1010BD7E7C3
:102F700004060010300600108FA60010ACA400104C
:102F80008DA6001081A60010E9E1DFF83804008862
:102F90005028C0F00081002083461FFA8BFB1FFAE7
:102FA0008AFAD34514D22888005D1FFA8BFB04A946
:102FB0000BF801002888401C288028884FF4006105
:102FC00090FBF1F202FB11022A801BF1010BE4E7F6
:102FD000514689B204A8FDF7EEF90223524692B297
:102FE000DFF8841304A801F05BF800285FD0DFF855
:102FF000D40300210180DFF8CC0300214180DFF8F9
:10300000C8030C210170DFF87403002180F8E91374
:10301000DFF85C038079552804D0DFF85403807909
:10302000562823D1DFF8A40300210170DFF89403B0
:1030300000210180DFF88C0300214180DFF8880344
:103040000078294951F8200001F008F88146002352
:103050005FFA89F94A4692B2DFF86C030078224998
:1030600051F82010012000F0B7FF94E0DFF85C0376
:1030700000210170DFF84C0300210180D1480021BC
:103080004180D1480078184951F8200000F0E6FF4F
:10309000814600235FFA89F94A4692B2CA4800780D
:1030A000114951F82010012000F096FF73E005232C
:1030B000524692B2BC4904A800F0F2FF00286AD040
:1030C000C3480078022811D2BE48002101800023A5
:1030D0000322C049012000F07FFFBD480078401C5A
:1030E000BB49087057E000BFF0040010B54800214C
:1030F0000180B44800214180B54800210170B248E8
:103100000C2101709A488079552803D0984880791D
:10311000562820D1AD4800210170AA480021018025
:10312000A84800214180A8480078DFF8F01C51F839
:10313000200000F093FF814600235FFA89F94A4698
:1031400092B2A1480078DFF8D41C51F82010012079
:1031500000F042FF1FE09D480021017099480021C6
:10316000018098480021418097480078DFF8AC1C26
:1031700051F8200000F072FF814600235FFA89F9C0
:103180004A4692B290480078DFF8901C51F820101F
:10319000012000F021FFE2E08A4800880828C0F002
:1031A000DD80884800210180002083461FFA8BFBC8
:1031B0001FFA8AFAD34514D22888005D1FFA8BFBC8
:1031C00004A90BF801002888401C288028884FF4A7
:1031D000006190FBF1F202FB11022A801BF1010B4E
:1031E000E4E7514689B204A8FDF7E5F80823524602
:1031F00092B2DFF82C1C04A800F052FF002845D042
:103200007048002101806F48002141806F4800789C
:1032100000281AD16C480B2101706B480078DFF848
:10322000FC1B51F8200000F019FF814600235FFAD3
:1032300089F94A4692B264480078DFF8E01B51F8F9
:103240002010012000F0C8FE88E0604800210170D5
:1032500047488079552803D045488079562803D1BE
:1032600059480D21017002E057480E210170404875
:103270008179012001F019F970E000BF8CA60010DF
:1032800030A20010EC33010078A50010082352464C
:1032900092B2DFF8901B04A800F002FF002831D0A2
:1032A0004B480021017039480078092803D037487D
:1032B00000780B2805D1002305220021002003F00F
:1032C00000FC41480A2101703E48002101803D4830
:1032D000002141803C480078DFF8401B51F8200075
:1032E00000F0BCFE814600235FFA89F94A4692B29B
:1032F00035480078DFF8241B51F82010012000F039
:103300006BFE2BE00523524692B2274904A800F039
:10331000C7FE002822D02B48002101802948002127
:1033200041802B480021017027480A21017026485E
:103330000078DFF8E81A51F8200000F08FFE81468F
:1033400000235FFA89F94A4692B21F480078DFF8F5
:10335000CC1A51F82010012000F03EFEFFE70DF2DC
:10336000144DBDE8F08F0000C8060010D8330100EE
:10337000F498001090A60010986D0010A08900101D
:1033800092A600108AA6001089A6001082A600103E
:103390009C0600101834010036990010CC0500106E
:1033A000AC060010E4A400109406001004340100E0
:1033B0006006001040340100583401002C34010034
:1033C00074A40010ACA4001081A600108FA60010F9
:1033D0008DA60010C40600100D0A4469616C2055CA
:1033E00070204F4B210D0A0D0A0000000D0A4469A0
:1033F000616C205570204572726F72210D0A0D0AA2
:10340000000000000D0A554450204572726F722171
:103410000D0A0D0A000000000D0A4C6F6720415094
:103420004953204F4B210D0A0D0A00000D0A544349
:1034300050204572726F72210D0A0D0A00000000C3
:103440000D0A54435020446973636F6E6E65637454
:10345000210D0A0D0A0000000D0A544350204F4B65
:10346000210D0A0D0A00000010B50024DFF8B8098C
:1034700000780A2809D0DFF8B0090078072804D0BE
:10348000DFF8A4090078062866D1DFF8A009408893
:103490004FF4C8718842C0F03D82DFF890090021E6
:1034A0000180DFF8880900214180DFF88409007875
:1034B00002283FD2DFF87C090078072804D0DFF823
:1034C00074090078082815D1DFF86C0900F0C6FDF2
:1034D00004000023E4B2220092B2DFF85C1901205C
:1034E00000F07AFDDFF848090078401CDFF8401949
:1034F00008700FE2DFF830090078DFF8201951F882
:10350000200000F0ABFD04000023E4B2220092B2E0
:10351000DFF814090078DFF8041951F820100120B1
:1035200000F05AFDDFF808090078401CDFF80019A8
:103530000870EFE1DFF8F00800780A2803D1DFF81F
:10354000FC0807214170DFF8E80800210170DFF86E
:10355000F00801210170DDE1DFF8CC0800780328D4
:103560002BD1DFF8C80840882828C0F0D381DFF8C5
:10357000C0080078022817D2DFF8B00800210180C7
:10358000DFF8A80800214180DFF89C080078C11E00
:10359000C9B2012001F05AF9DFF894080078401C04
:1035A000DFF88C180870B5E1DFF88408002101709D
:1035B000DFF88C0801210170ACE1DFF86C080078BD
:1035C000082804D0DFF86008007809282CD1DFF83B
:1035D0005C0840882828C0F09D81DFF854080078F6
:1035E000022818D2DFF8440800210180DFF83C08E7
:1035F00000214180DFF830080078B0F10801C9B23D
:10360000012001F023F9DFF828080078401CDFF8DA
:10361000201808707EE1DFF8180800210170DFF83B
:1036200020080121017075E1DFF8FC0700780D2802
:103630002BD1DFF8F80740884FF4C8718842C0F0FA
:103640006981DFF8E80700210180DFF8E007002149
:103650004180DFF8DC07007802280DD2DFF8E407AC
:103660008179012000F021FFDFF8C4070078401CB9
:10367000DFF8BC1708704DE1DFF8B40700210170D6
:10368000DFF8BC070121017044E1DFF89C070078F6
:103690000E283ED1DFF8940740884FF4C871884265
:1036A000C0F03881DFF8840700210180DFF87C0753
:1036B00000214180DFF87807007802280DD2DFF87A
:1036C00084078179012000F0F0FEDFF864070078BC
:1036D000401CDFF85C1708701CE1DFF8600703216D
:1036E0004170DFF84C0700210170DFF85C0790F8AB
:1036F0006100012804D1DFF848070121017009E1C8
:10370000DFF824070C210170DFF840070121017068
:1037100000E1DFF81407007811282CD1DFF80C073E
:1037200040884FF4C8718842C0F0F480DFF8FC068E
:1037300000210180DFF8F40600214180DFF8F00667
:10374000007802280ED200230322DFF8041701209C
:1037500000F042FCDFF8D8060078401CDFF8D016F5
:103760000870D7E0DFF8C80600210170DFF8D00646
:1037700001210170CEE0DFF8B0060078022842D1C6
:10378000DFF8A80640882828C0F0C480DFF89C062F
:1037900000210180DFF8940600214180DFF89006C7
:1037A000007802281FD2DFF880060078DFF86C1658
:1037B00051F8200000F052FC04000023E4B2220083
:1037C00092B2DFF864060078DFF8501651F8201046
:1037D000012000F001FCDFF858060078401CDFF8FB
:1037E0005016087096E0DFF8480600210170DFF8F7
:1037F00038060078401CDFF83016087000210120E0
:1038000001F024F886E0DFF820060078122830D195
:10381000DFF81806408828287CD3DFF8100600213E
:103820000180DFF8080600214180DFF804060078F7
:10383000022815D2DFF81C0600F010FC040000235B
:10384000E4B2220092B2DFF80C16012000F0C4FBB3
:10385000DFF8DC050078401CDFF8D415087059E06B
:10386000DFF8CC0500210170DFF8D40501210170DB
:1038700050E0DFF8B40500780C284BD0DFF8A8053D
:1038800000780F2846D0DFF8A0050078102841D036
:10389000DFF89805408850283CD3DFF8940500787D
:1038A000022827D2DFF8840500210180DFF87C059B
:1038B00000214180DFF870050078DFF8601551F8CD
:1038C000200000F0CBFB04000023E4B2220092B2FF
:1038D000DFF854050078DFF8441551F82010012076
:1038E00000F07AFBDFF848050078401CDFF840154F
:1038F00008700FE0DFF8340500210180DFF82C05A7
:1039000000214180DFF8280500210170DFF8300533
:1039100001210170DFF828050078DFF83C150978EF
:103920000843C0B2002840F03881DFF8FC0400787A
:103930000F2804D0DFF8F004007810286AD1DFF8EF
:103940001C050078002840F02881DFF81405007875
:10395000012840F02281DFF8D404407B0428C0F025
:103960001C81DFF8000501F023FB01F0A7F8DFF868
:10397000F00400210170DFF8B40400214173DFF886
:10398000E804002180F80114DFF8DC04002180F84D
:103990000014DFF8D404002180F80214DFF8A80432
:1039A000002180F8E913DFF8940400214170DFF86A
:1039B0009804002180F8E513DFF88C04002180F8DA
:1039C000E813DFF88404002180F8E413DFF89C0496
:1039D00000210170DFF85004112101700023012241
:1039E0000021002003F06DF800230322DFF86014AB
:1039F000012000F0F1FA002301220021002003F051
:103A000060F8DFF8280400210180DFF8200400219D
:103A10004180C2E0DFF8100400780C2840F0B38049
:103A2000DFF838040078002840F0B780DFF8300471
:103A30000078012840F0B180DFF8F003407B0428D3
:103A4000C0F0AB80DFF81C0401F0B2FA01F036F8E8
:103A5000DFF80C0400210170DFF8D003002141736E
:103A6000DFF80404002180F80114DFF8FC030021D2
:103A700080F80014DFF8F003002180F80214DFF86A
:103A8000C803002180F8E913DFF8B003002141707A
:103A9000DFF8B403002180F8E513DFF8AC03002160
:103AA00080F8E813DFF8A003002180F8E413DFF8C2
:103AB00094038079552804D0DFF88803807956284C
:103AC00029D1DFF8AC030078002866D1DFF87C0349
:103AD00001210170DFF8540300210180DFF84C035D
:103AE00000214180DFF840030078DFF8301351F8FF
:103AF000200000F0B3FA04000023E4B2220092B2E6
:103B0000DFF824030078DFF8141351F820100120A7
:103B100000F062FA41E0DFF858030078002805D190
:103B2000DFF8240390F86100012809D0DFF844038E
:103B30000078012804D0DFF83403007801282CD164
:103B4000DFF8080301210170DFF82803002101706C
:103B5000B64800210180B54800214180B248007874
:103B6000AE4951F8200000F079FA04000023E4B2D5
:103B7000220092B2AC480078A84951F820100120E8
:103B800000F02AFA09E0A84800780C2805D2B448C9
:103B900000210170A54800214173AA4890F8400017
:103BA00000283BD1A7488079552804D0A5488079C2
:103BB000562840F03281AC4890F80204012840F0C9
:103BC0002C81AD4801F0F4F9A748002180F80214D7
:103BD000A54890F8040403280AD3A348002180F8DC
:103BE000041493480021017095480121017014E1EB
:103BF0009D4890F80404401C9B4981F804049D48AA
:103C00000121017096480078002840F00681944810
:103C100001210170854800214173FEE089488079C7
:103C2000552803D08748807956283BD18E4890F894
:103C30000204012840F0F1807C48008AB0F5FA5F68
:103C4000C0F0EB808D4801F0B3F978480021018283
:103C50008548002180F80214834890F80404032862
:103C60000AD38148002180F80414714800210170B2
:103C7000734801210170D0E07B4890F80404401C97
:103C8000794981F804047B48012101707448007867
:103C9000002840F0C2807248012101706348002171
:103CA0004173BAE067488079532826D1664890F876
:103CB000E803012840F0B180634890F8E70300284A
:103CC00040F0AB805948008AB0F5FA5FC0F0A5809B
:103CD0006B4801F06DF955480021018265480121CA
:103CE00001705F480078002840F097805C4801210F
:103CF00001704E48002141738FE05248807954286A
:103D000040F08B8059480078002864D14E4890F8E4
:103D1000E40301285FD14548808A4FF44871884206
:103D200059D34948002180F8E4134048002181829A
:103D3000454890F8E50301282CD2434890F8E50364
:103D4000401C414981F8E50348480078002842D1E9
:103D50003D4890F86100002812D101233A4890F8BC
:103D6000E22192B24749012000F036F9012336489A
:103D700090F8E22192B24349002000F02DF904E0CE
:103D8000414A4249304802F093FB2F48012180F814
:103D9000E41320E03E4801F00BF92B48002180F8A5
:103DA000E5132948002180F8E413274890F86100C2
:103DB000012803D12F480121017002E02D48002184
:103DC000017027480078002805D12548012101709D
:103DD0001648002141731C4890F8E80301281CD1C3
:103DE000194890F8E703002817D11048008AB0F569
:103DF000FA5F12D3224801F0DBF80C48002101825F
:103E00001C480121017016480078002805D114488B
:103E10000121017005480021417310BDF00400101C
:103E2000480600105406001081A60010ACA4001033
:103E30008DA6001082A600100406001078A50010C0
:103E400089A60010F4980010A08900108FA6001019
:103E5000C40600103006001083A6001084A60010CF
:103E600085A60010E03E0100986D001091A600109C
:103E700090A6001092A60010043F0100203F010010
:103E80004C3F0100828A0010E0890010C0890010B8
:103E90006C3F01000D0A4469616C20506172616DD4
:103EA00065746572206368616E6765642C72657302
:103EB0006574206D6F64756C65210D0A0D0A000034
:103EC0000D0A435351205765616B2C7265736574FD
:103ED000206D6F64756C65210D0A0D0A00000000ED
:103EE0000D0A50726F746F636F6C20506172616D58
:103EF00065746572206368616E676564210D0A0DE3
:103F00000A0000000D0A426173653A20415049538E
:103F1000206E6F2062656174210D0A0D0A00000099
:103F20000D0A526F7665723A2041504953206E6FE8
:103F3000206265617420616E642064696666206435
:103F4000617461210D0A0D0A000000000D0A526F14
:103F50007665723A20434F5253206E6F2064696633
:103F6000662064617461210D0A0D0A000D0A526F0A
:103F70007665723A20434F5253206E6F20726573FC
:103F8000706F6E7365210D0A0D0A00000D0A4E6FE9
:103F90002053494D434152442C7265736574206D22
:103FA0006F64756C65210D0A0D0A00000D0A5072D0
:103FB0006F746F636F6C20506172616D65746572B0
:103FC000206368616E6765640D0A0D0A00000000D9
:103FD0004154264B300D00002DE9F04104000D0046
:103FE00016001F005FF00008B6B2012E26D3FFB204
:103FF000012F1CD1002080461FFA88F8B6B2B045C8
:104000001CD22878032802D02878102805D1012254
:1040100010212000C0B200F013F8012229782000FE
:10402000C0B200F00DF86D1C18F10108E4E7320091
:1040300092B229002000C0B200F0A8FFBDE8F081D4
:1040400032B504001500ADB2012D06D32A0092B29C
:1040500000A92000C0B200F099FF31BD010000228C
:1040600010000A00511C1278002A01D0401CF8E709
:1040700080B2704730B40300002400200400E4B292
:10408000D2B2944209D2E4B2E05CE4B2655CA842E8
:1040900001D0002002E0641CF1E7012030BC704731
:1040A0002DE9F84304000D0016001F005FF0000822
:1040B0005FF00009002080461FFA88F8B6B2B045CC
:1040C00030D2B6B21FFA88F8B6EB0800BFB2B842D9
:1040D00001DA002027E03A00D2B229001FFA88F85E
:1040E00018EB0400FFF7C6FF81465FFA89F9B9F1C2
:1040F000000F03D0B9F1010F01D010E00FE02078DC
:10410000412808D16078542805D164230022002179
:10411000002002F0D6FC18F10100C0B203E018F153
:104120000108C9E70020BDE8F28310B402000023B3
:10413000002000242300DBB2C9B28B4204D2DBB2E0
:104140009C5C60405B1CF6E7C0B210BC70472DE978
:10415000F04104000D00002600275FF00008EDB2DA
:10416000552D02D0EDB2562D11D1DFF8580A806BD3
:10417000FFF774FF07000023FFB23A0092B2DFF8A6
:10418000440A816B2000C0B2FFF726FF10E0DFF881
:10419000340A806CFFF762FF07000023FFB23A0089
:1041A00092B2DFF8200A816C2000C0B2FFF714FF42
:1041B000DFF8140A00794FF48071DFF80C2A527985
:1041C00001FB00200600DFF8000A90F880000700DD
:1041D000002080465FFA88F8FFB2B8451AD25FFA2D
:1041E00088F8DFF8E40918EB000090F88100202837
:1041F0000DD0002301225FFA88F8DFF8CC0918EB14
:10420000000010F181012000C0B2FFF7E5FE18F1B7
:104210000108DFE7012222212000C0B2FFF710FFD2
:1042200001222C212000C0B2FFF70AFF0122222127
:104230002000C0B2FFF704FFB6B2DFF8A00A0122E7
:1042400096FBF0F100FB116042F2107190FBF1F06F
:1042500010F13001C9B22000C0B2FFF7F1FEB6B2D2
:1042600042F21070012296FBF0F100FB11604FF456
:104270007A7190FBF1F010F13001C9B22000C0B2A8
:10428000FFF7DEFEB6B24FF47A70012296FBF0F132
:1042900000FB1160642190FBF1F010F13001C9B214
:1042A0002000C0B2FFF7CCFEB6B26420012296FB1C
:1042B000F0F100FB11600A2190FBF1F010F13001E8
:1042C000C9B22000C0B2FFF7BBFEB6B20A2001227D
:1042D00096FBF0F100FB1160012190FBF1F010F171
:1042E0003001C9B22000C0B2FFF7AAFE012222218C
:1042F0002000C0B2FFF7A4FE01220D212000C0B2B1
:10430000FFF79EFEBDE8F0812DE9F04104000D00AD
:10431000002600275FF00008EDB2552D02D0EDB267
:10432000562D11D1DFF8B809406AFFF797FE070054
:104330000023FFB23A0092B2DFF8A409416A2000DC
:10434000C0B2FFF749FE10E0DFF89409406BFFF7B9
:1043500085FE07000023FFB23A0092B2DFF8800921
:10436000416B2000C0B2FFF737FEDFF85C08007930
:104370004FF48071DFF85028527901FB00200600CD
:10438000DFF8440890F880000700002080465FFABC
:1043900088F8FFB2B8451AD25FFA88F8DFF8280823
:1043A00018EB000090F8810020280DD00023012296
:1043B0005FFA88F8DFF8100818EB000010F18101AF
:1043C0002000C0B2FFF708FE18F10108DFE7012264
:1043D00022212000C0B2FFF733FE01222C21200051
:1043E000C0B2FFF72DFEB6B2DFF8F008012296FB4F
:1043F000F0F100FB116042F2107190FBF1F010F14E
:104400003001C9B22000C0B2FFF71AFEB6B242F2C4
:104410001070012296FBF0F100FB11604FF47A71ED
:1044200090FBF1F010F13001C9B22000C0B2FFF7EB
:1044300007FEB6B24FF47A70012296FBF0F100FB52
:104440001160642190FBF1F010F13001C9B220003D
:10445000C0B2FFF7F5FDB6B26420012296FBF0F181
:1044600000FB11600A2190FBF1F010F13001C9B29C
:104470002000C0B2FFF7E4FDB6B20A20012296FB8D
:10448000F0F100FB1160012190FBF1F010F130011F
:10449000C9B22000C0B2FFF7D3FD01220D212000D8
:1044A000C0B2FFF7CDFDBDE8F0812DE9F0418AB043
:1044B00004000D00002600275FF00008DFF8080761
:1044C00000794FF48071DFF80027527901FB00205A
:1044D0000600EDB2552D03D0EDB2562D40F0B3805D
:1044E000DFF80008406BFFF7B9FD07000023FFB2BB
:1044F0003A0092B2DFF8EC07416B2000C0B2FFF740
:104500006BFDB6B2DFF8D407012296FBF0F100FB99
:10451000116042F2107190FBF1F010F13001C9B25C
:104520002000C0B2FFF78CFDB6B242F2107001223B
:1045300096FBF0F100FB11604FF47A7190FBF1F003
:1045400010F13001C9B22000C0B2FFF779FDB6B258
:104550004FF47A70012296FBF0F100FB11606421A8
:1045600090FBF1F010F13001C9B22000C0B2FFF7AA
:1045700067FDB6B26420012296FBF0F100FB1160EA
:104580000A2190FBF1F010F13001C9B22000C0B255
:10459000FFF756FDB6B20A20012296FBF0F100FBB0
:1045A0001160012190FBF1F010F13001C9B220003F
:1045B000C0B2FFF745FD01222C212000C0B2FFF759
:1045C0003FFD012222212000C0B2FFF739FDDFF8B4
:1045D000F80590F880000700002080465FFA88F810
:1045E000FFB2B8451AD25FFA88F8DFF8DC0518EB9D
:1045F000000090F8810020280DD0002301225FFAEE
:1046000088F8DFF8C40518EB000010F181012000E4
:10461000C0B2FFF7E1FC18F10108DFE70122222117
:104620002000C0B2FFF70CFD01222C212000C0B2F7
:10463000FFF706FD00230922DFF8AC162000C0B208
:10464000FFF7CAFC32E0B6B23300DFF89806826B9F
:10465000DFF8981602A802F069FA02A802F080FAC0
:104660000023020092B202A92000C0B2FFF7B4FCFE
:10467000DFF87C06C07A0190DFF87406807A00903B
:10468000DFF86C06437ADFF86806027ADFF87C16FA
:1046900002A802F04BFA02A802F062FA020000231C
:1046A00092B202A92000C0B2FFF796FC0AB0BDE8A2
:1046B000F08170B504000D000026EDB2002D03D08E
:1046C000022D4AD025D36CE0DFF8F8048069FFF7AB
:1046D000C5FC06000023F6B2320092B2DFF8E40413
:1046E00081692000C0B2FFF777FC0023DFF8D8040F
:1046F00090F8202092B2DFF8FC152000C0B2FFF73E
:104700006BFC002302228EA12000C0B2FFF764FCE4
:1047100047E0DFF8B004806AFFF7A0FC0600002342
:10472000F6B2320092B2DFF89C04816A2000C0B277
:10473000FFF752FC0023DFF8C005027892B2DFF8E1
:10474000BC152000C0B2FFF747FC002302227CA169
:104750002000C0B2FFF740FC23E0DFF86804C06A25
:10476000FFF77CFC06000023F6B2320092B2DFF8BD
:104770005404C16A2000C0B2FFF72EFC0023DFF80A
:104780008405027892B2DFF880152000C0B2FFF7EE
:1047900023FC002302226AA12000C0B2FFF71CFC08
:1047A000FFE770BD70B504000D000026EDB22800D3
:1047B000012802D0022824D047E0DFF82405406910
:1047C000FFF74CFC06000023F6B2320092B2DFF88D
:1047D000100541692000C0B2FFF7FEFB0023DFF89F
:1047E0001805027892B2DFF814152000C0B2FFF766
:1047F000F3FB0023022252A12000C0B2FFF7ECFB22
:1048000023E0DFF8DC048069FFF728FC06000023C2
:10481000F6B2320092B2DFF8C80481692000C0B25B
:10482000FFF7DAFB0023DFF8DC04027892B2DFF84E
:10483000D8142000C0B2FFF7CFFB0023022240A112
:104840002000C0B2FFF7C8FBFFE770BD70B50400E1
:104850000D000026EDB2002D03D0022D4AD025D345
:104860006CE0DFF88004C068FFF7F8FB0600002367
:10487000F6B2320092B2DFF86C04C1682000C0B218
:10488000FFF7AAFB0023DFF8400390F8202092B244
:10489000DFF860142000C0B2FFF79EFB0023022265
:1048A00027A12000C0B2FFF797FB47E0DFF83404F0
:1048B000006AFFF7D3FB06000023F6B2320092B283
:1048C000DFF82004016A2000C0B2FFF785FB002357
:1048D000DFF82404027892B2DFF820142000C0B27E
:1048E000FFF77AFB0023022215A12000C0B2FFF7D8
:1048F00073FB23E0DFF8EC03406AFFF7AFFB060031
:104900000023F6B2320092B2DFF8D803416A2000E9
:10491000C0B2FFF761FB0023DFF8E803027892B230
:10492000DFF8E4132000C0B2FFF756FB0023022299
:1049300003A12000C0B2FFF74FFBFFE770BD0000EE
:10494000220D000010B5DFF8C803007800284ED112
:10495000DFF8C003007809280BD000225FF08071D7
:10496000032002F075F9002302220021002002F04A
:10497000A8F801225FF08071032002F069F900239A
:1049800001220021002002F09CF800225FF08061EB
:10499000032002F05DF9002305220021002002F02F
:1049A00090F801225FF08061032002F051F94FF48A
:1049B000FA7300220021002002F083F800225FF049
:1049C0000071032002F044F9C823002200210020D6
:1049D00002F077F801225FF00071032002F038F94D
:1049E000C82302220021002002F06BF865E0DFF806
:1049F000200300210170DFF81C030078072832D162
:104A000000225FF08071032002F022F94FF4FA7364
:104A100000220021002002F054F801225FF0807192
:104A2000032002F015F9C82300220021002002F023
:104A300048F800225FF08061032002F009F9C823E2
:104A400005220021002002F03CF801225FF0806185
:104A5000032002F0FDF84FF4FA7300220021002039
:104A600002F02FF817E000225FF00071032002F03F
:104A7000EFF8C82300220021002002F022F80122D2
:104A80005FF00071032002F0E3F8C8230022002148
:104A9000002002F016F800200400E4B20A2C0CD228
:104AA000DFF8A0020078012807D0C82300220021E7
:104AB000002002F006F8641CEFE710BD80B5424804
:104AC00090F84000002815D1DFF87C0200F070FA61
:104AD0003D488079552803D03B488079562804D139
:104AE000DFF8680200F064FA36E0DFF8640200F0F4
:104AF0005FFA31E0DFF85C0200F05AFA3248807960
:104B0000552803D030488079562804D1DFF83C027C
:104B100000F04EFA20E02C488079542818D1DFF8B4
:104B200038020078012804D1DFF8300200F040FAA2
:104B300012E0694890F86100012804D1DFF82002F2
:104B400000F036FA08E0DFF81C0200F031FA03E06A
:104B5000DFF80C0200F02CFA19A000F029FA01BDD0
:104B600010B50024DFF8000201210170FFF7EAFE12
:104B7000124800214180114800210180DFF8EC013A
:104B800000210170DFF8E4010078564951F8200057
:104B9000FFF764FA04000023E4B2220092B2DFF8C7
:104BA000CC0100784F4951F820100120FFF714FA8A
:104BB000DFF8C0010021018010BD0000ACA400108E
:104BC0000D0A000010030010F4980010DFF84401F3
:104BD0000078032803D0DFF8380100210170DFF8E6
:104BE000980103210170DFF8940100210170DFF8C2
:104BF000900100210170DFF8740100210170DFF8DD
:104C0000840100210170DFF8800100210170DFF8CC
:104C10006001002180F80114DFF85401002180F8C0
:104C20000014DFF84C01002180F802142A4800210A
:104C300080F8E913DFF8500100218170DFF84801A6
:104C40000021C1702448002180F8E413224800218B
:104C500080F8E5132048002180F8E813DFF8F80019
:104C600000210170DFF82401002101701A480021A1
:104C700080F8E713DFF8CC0000210170DFF81001A5
:104C800000210170DFF80C0100210170DFF808013C
:104C900000210170DFF8040100210170DFF800013C
:104CA00000210170DFF8FC0000210170DFF8F8003E
:104CB00000210170DFF8F40000210170DFF8F0003E
:104CC00000210180DFF8AC0000210180DFF8E40062
:104CD0000021018070470000A0890010A08601001B
:104CE000B4040010F0040010184D0100244D010020
:104CF000F0A1001015990010D4A30010D5A3001046
:104D00007047000028A5001029A500102C4D0100B7
:104D100089A6001082A60010302C313032342C309D
:104D20000D0A000025732530346400002C22256410
:104D30002E25642E25642E2564222C302C302C3018
:104D40000D0A000083A60010B84D0100C04D0100FF
:104D5000C84D0100E84D010091A60010F04D010082
:104D60000C4E0100204E01008BA6001081A6001001
:104D7000986D00105CA600107EA600107FA60010A3
:104D800080A6001088A6001078A5001090A600103C
:104D900084A6001085A6001086A6001087A6001025
:104DA0008DA600108EA6001093A600108FA60010EE
:104DB0005EA6001066A60010426173653A200000EE
:104DC00041504953210D0A005472616E736D69742C
:104DD000746572206279205443502044697265637F
:104DE000746C79210D0A0000526F7665723A2000CA
:104DF00047657420736F757263656C6973742066A0
:104E0000726F6D20434F5253210D0A004175746F2C
:104E1000204C6F6720434F5253210D0A00000000C1
:104E20004D616E75616C204C6F6720434F5253216A
:104E30000D0A000080B550480078032803D24F487F
:104E4000002101704CE050480078002803D14B4805
:104E50000621017044E04C480078062803D14748F9
:104E6000072101703CE0484800780C2803D24348F1
:104E70000521017034E0444800780F2803D34248EC
:104E80000078112806D13D480321017037480021E0
:104E9000017025E03C4800780F280AD1384890F886
:104EA000000400281CD035480121017001F058FF92
:104EB00016E035480078102812D12D4890F8E80304
:104EC00001280AD12A4890F8E703002805D12B4889
:104ED0000421017001F044FF02E028480221017022
:104EE00025480078032804D2264823490978017010
:104EF00039E0254800780D2805D223480078C01CE9
:104F0000204908702FE018488079542803D01648AB
:104F10008079532814D11748112101701A4800785C
:104F20000E2805D118480078401E164908701AE06E
:104F300015480078102816D112480F21017012E090
:104F40000C480F210170104800780D2804D10D483D
:104F50000D490978017006E00B4800780F2802D14E
:104F600008480F21017001BDF49800108AA60010B6
:104F7000A089001094A600107EA6001088A600103C
:104F8000986D001093A6001081A6001070B5040063
:104F90000D001600E4B20A2C07D2320092B22900AA
:104FA0002000C0B202F077FA01E0E4B20B2C70BD31
:104FB00010B50400200001F0D3FD020092B22100E0
:104FC0000020FFF7E3FF10BD087001224A704FF484
:104FD00016524A8000220A7100228A6000228A81C9
:104FE00000220A6100220A8300224A83704780B5AA
:104FF000DFF8AC068069000EDFF8A01681F86100CA
:10500000DFF89C068069000CDFF8901681F86200DA
:10501000DFF88C068069000ADFF8801681F86300EB
:10502000DFF87806DFF87816896980F86410DFF811
:105030007006C069000EDFF8641681F86500DFF8BD
:105040006006C069000CDFF8541681F86600DFF8CE
:105050005006C069000ADFF8441681F86700DFF8DF
:105060003C06DFF83C16C96980F8681000F068F962
:1050700001BD80B500F070F9DFF8200690F820003F
:1050800001280DD0DFF8140690F82000022807D080
:10509000DFF8080690F82000032801D000F068F936
:1050A000DFF8F805022180F83110DFF8F00590F8FC
:1050B0002000DFF8EC150870DFF8E00590F821001B
:1050C000DFF8D81591F82210090411EB0060DFF821
:1050D000CC1591F8231010EB0120DFF8C01591F8E2
:1050E00024100818DFF8BC15C860DFF8B405DFF835
:1050F000AC1591F825100172DFF8A405DFF89C15B6
:1051000091F826104172DFF89805DFF8901591F8B4
:1051100027108172DFF88805DFF8801591F82810D4
:10512000C172DFF87C05DFF8741591F8291001735E
:10513000DFF86C05DFF8641591F82A104173DFF889
:105140005C0590F82B00DFF8541591F82C1011EB4A
:105150000020DFF854154860DFF8400590F82D0076
:10516000DFF8381591F82E1011EB0020DFF830151C
:105170000882DFF82C05DFF8241591F82F108174D0
:10518000DFF81C05DFF8141591F831104175DFF8D0
:105190001805DFF8081591F832100172DFF80005E4
:1051A0008069002842D1DFF8F804C06900283DD1A9
:1051B000DFF8E80490F86100DFF8E01491F862107D
:1051C000090411EB0060DFF8D41491F8631010EBC0
:1051D0000120DFF8C81491F864100818DFF8C01433
:1051E0008861DFF8BC048069DFF8C0140860DFF86C
:1051F000AC0490F86500DFF8A41491F86610090477
:1052000011EB0060DFF8941491F8671010EB0120A7
:10521000DFF8881491F868100818DFF88414C86162
:10522000DFF87C04C069DFF8881408602022DFF80A
:105230008414DFF8840402F03FFBDFF864040021EB
:1052400080F83F102022DFF87414DFF8740402F0B5
:1052500033FB2022DFF86C14DFF86C0402F02CFB27
:105260002022DFF86814DFF8680402F025FB202212
:10527000DFF86014DFF8600402F01EFB2022DFF884
:105280005C14DFF85C0402F017FB1522DFF85414FD
:10529000DFF8540402F010FBDFF82404002180F84A
:1052A0002A101522DFF84414DFF8440402F004FB4E
:1052B000DFF81404002180F82A101522DFF83414D6
:1052C000DFF8340402F0F8FADFF80404002180F873
:1052D0002A101522DFF82414DFF8240402F0ECFA77
:1052E000DFF8F403002180F82A101522DFF81414E7
:1052F000DFF8140402F0E0FADFF8E403002180F89C
:105300002A101522DFF80414DFF8040402F0D4FA9E
:10531000DFF894030021C1740A22DFF8F813DFF8E4
:10532000F80302F0C9FADFF8F403002180F87010E6
:105330001022DFF8EC13DFF86C0302F0BDFA01BDB8
:1053400080B54FF4FA7000900023DFF8D8230121D4
:10535000202002F0F6FA01BD80B54FF405700090F0
:105360000023DFF838230121002002F07BFB01BD80
:1053700010B5DFF82803022180F82010DFF81C03A5
:10538000002180F82110DFF81403022180F8221098
:10539000DFF80803422180F82310DFF80003FD2125
:1053A00080F82410DFF8F402082180F82510DFF8D7
:1053B000EC02082180F82610DFF8E002082180F8CE
:1053C0002710DFF8D802082180F82810DFF8CC0277
:1053D000152180F82910DFF8C402B32180F82A10C3
:1053E000DFF8B802002180F82B10DFF8B0020121AD
:1053F00080F82C10DFF8A402002180F82D10DFF8CF
:105400009C02012180F82E10DFF89002022180F822
:105410002F10DFF88802022180F83010DFF87C02BC
:10542000022180F83110DFF87402012180F8321077
:10543000DFF86802032180F83310DFF860020021F2
:1054400080F86110DFF85402002180F86210DFF864
:105450004C02002180F86310DFF84002002180F840
:105460006410DFF83802002180F86510DFF82C02A4
:10547000002180F86610DFF82402002180F8671010
:10548000DFF81802002180F8681000200400202CAA
:1054900007DADFF808022018002180F86910641C80
:1054A000F5E7FFF74DFF10BD80B5DFF87C12032054
:1054B000FFF78AFDDFF874120020FFF785FDDFF8A3
:1054C00070120120FFF780FD64490220FFF77CFD88
:1054D000DFF85402DFF85C124161DFF85002DFF8B8
:1054E00058124161DFF84802DFF8501241615B4811
:1054F000DFF84C124161DFF8240200210160DFF87F
:105500001C0200214160DFF8140200210172DFF863
:105510000C0200214172DFF8040201218172DFF8E0
:10552000FC010021C172DFF8F4010021C160DFF845
:10553000EC0100210161DFF8E40100214161DFF8A5
:10554000DC0100218161DFF8D4010021C161DFF8B5
:10555000CC0100210162DFF8C401002180F82B108A
:10556000DFF8B8010021C162DFF8B001002180F846
:105570003010DFF8A801002180F83110DFF89C011D
:10558000002180F83210DFF89401002180F83310F8
:10559000DFF88801012180F8661064220021DFF81D
:1055A000A40102F0F9FADFF8A001002180F82B1025
:1055B000DFF89401002180F82C10DFF88C01002125
:1055C00080F82D10DFF88001002180F82E10DFF820
:1055D0007801002180F82F10DFF86C01002180F89D
:1055E000301001BD10B4002304780A2C16D00478C2
:1055F0002C2C02D004780D2C07D15B1CD2B2DBB26C
:105600009A4209D200240C7008E0DBB2D2B2934275
:1056100002D104780C70491C401CE5E710BC7047AF
:1056200010B4002304780A2C16D004782E2C02D053
:1056300004780D2C07D15B1CD2B2DBB29A4209D29E
:1056400000240C7008E0DBB2D2B2934202D104789D
:105650000C70491C401CE5E710BC704790A400107A
:1056600030B40200FF20FF230D00691EADB2002DF3
:105670000CD0DBB215785D402C00521C334D655DBB
:1056800045402B00324D655D2800EDE7C0B2DBB22E
:1056900053EA002080B230BC704700008C8F0010AD
:1056A000F0A1001014A500101CA4001048400240F6
:1056B0004C400240F58F001010A200101590001011
:1056C000489E00103590001070A2001055900010F8
:1056D000A8A2001075900010E0A200109590001094
:1056E000E49E0010B6900010689E0010CB90001051
:1056F00090A20010E0900010C8A20010F5900010D9
:1057000000A300100A910010049F00101F910010C8
:1057100025A40010349100106F9C0010089C00100C
:105720003F910010AC8F001058A400103CA4001052
:1057300074A40010EC3E0010EC460010EC4E00107B
:10574000EC3600107D9E001030A20010000000100A
:10575000000100104E554C4C0000000044495354C9
:105760000000000054494C5400000000464C5558BD
:10577000000000004D4F564500000000534F494CBB
:105780000000000041434345000000002DE9FB4FAD
:10579000ADF50C7D15009B9C5FF0000B0020ADF873
:1057A000000000265FF0000900275FF000085FF0AE
:1057B000000A9DF8340201280AD0032808D00528E1
:1057C00000F02282072803D00B2800F0B88227E3DC
:1057D00024208DF804009DF834028DF805009DF812
:1057E0003402D0F1FF008DF806009DF83402012844
:1057F00004D09DF83402032840F0A3819DF83002C4
:10580000002840F0B380002083461FFA8BFBBBF1D9
:10581000160F34D21FFA8BFB1BF80500202812D17B
:105820001FFA8BFB1BEB0500407830280BD31FFAC7
:105830008BFB1BEB050040783A2804D219F10109D3
:105840001BF1010007001FFA8BFB1BF80500302835
:1058500012D31FFA8BFB1BF805003A280CD21FFA53
:105860008BFB1BEB05004078202805D119F10109BD
:105870001BF10100804602E01BF1010BC5E75FFA56
:1058800089F9B9F1020F19D1002083461FFA8BFB69
:105890005FFA88F8FFB2B8EB070083450EDAFFB273
:1058A0001FFA8BFB1BEB0700405D1FFA8BFB01A966
:1058B0001BEB010148711BF1010BE7E70020834658
:1058C0001FFA8BFB5FFA88F8D8F11000FFB2381886
:1058D00083450FDA5FFA88F818F10500FFB2C01BA4
:1058E0001FFA8BFB1BEB000001A9002242541BF1A5
:1058F000010BE5E7002083461FFA8BFBBBF1100F7D
:105900000DD21FFA8BFB01A81BEB00001FFA8BFBCB
:1059100098991BF8011041751BF1010BECE7002071
:1059200083461FFA8BFBBBF1040F0ED21FFA8BFBD1
:1059300001A81BEB00001FFA8BFB8E991BF80110CE
:1059400080F825101BF1010BEBE700208DF82D00EE
:1059500000208DF82E0004208DF82F0002208DF8F5
:10596000300054208DF83100292006009DF83002C7
:10597000012840F0E680002083461FFA8BFBBBF134
:10598000160F34D21FFA8BFB1BF80500202812D10A
:105990001FFA8BFB1BEB0500407830280BD31FFA56
:1059A0008BFB1BEB050040783A2804D219F1010962
:1059B0001BF1010007001FFA8BFB1BEB0500407871
:1059C000202811D11FFA8BFB1BF8050030280BD3C0
:1059D0001FFA8BFB1BF805003A2805D219F10109C3
:1059E0001BF10100804602E01BF1010BC5E75FFAE5
:1059F00089F9B9F1020F19D1002083461FFA8BFBF8
:105A00005FFA88F8FFB2B8EB070083450EDAFFB201
:105A10001FFA8BFB1BEB0700405D1FFA8BFB01A9F4
:105A20001BEB010148711BF1010BE7E700208346E6
:105A30001FFA8BFB5FFA88F8D8F11000FFB2381814
:105A400083450FDA5FFA88F818F10500FFB2C01B32
:105A50001FFA8BFB1BEB000001A9002242541BF133
:105A6000010BE5E7002083461FFA8BFBBBF1100F0B
:105A70000DD21FFA8BFB01A81BEB00001FFA8BFB5A
:105A800098991BF8011041751BF1010BECE7002000
:105A900083461FFA8BFBBBF1040F0ED21FFA8BFB60
:105AA00001A81BEB00001FFA8BFB8E991BF801105D
:105AB00080F825101BF1010BEBE700208DF82D007D
:105AC00000208DF82E0004208DF82F0002208DF884
:105AD000300052208DF8310000208346999810F84C
